:020000041000EA
:1000000000B5324B212058609868022188439860DF
:10001000D860186158612E4B002199600221596106
:100020000121F02299502B49196001219960352056
:1000300000F044F80222904214D00621196600F024
:1000400034F8196E01211966002018661A6600F04E
:100050002CF8196E196E196E052000F02FF8012189
:100060000842F9D1002199601B49196000215960AB
:100070001A491B48016001219960EB211966A021F2
:10008000196600F012F800219960164914480160C1
:100090000121996001BC002800D000471248134993
:1000A000086003C880F30888084703B5996A0420EC
:1000B0000142FBD001200142F8D103BD02B5186610
:1000C0001866FFF7F2FF186E186E02BD00000240BE
:1000D000000000180000070000035F00212200005C
:1000E000F4000018222000A00001001008ED00E03C
:1000F00000000000000000000000000074B24E7A12
:1001000000200420F7010010CB010010CD010010E9
:10011000C9010010C9010010C9010010C901001077
:10012000C9010010C9010010C90100103D330010C1
:10013000C9010010C9010010D1320010B533001000
:10014000C1010010C1010010C1010010C101001067
:10015000C1010010C1010010C1010010C101001057
:10016000C1010010C1010010C1010010C101001047
:10017000C1010010C1010010C1010010C101001037
:10018000C1010010C1010010C1010010C101001027
:10019000C1010010C1010010C1010010C101001017
:1001A000C1010010C1010010C1010010C101001007
:1001B000C1010010C1010010C1010010C1010010F7
:1001C000EFF30580103800BE00BE00BE00BE00BECA
:1001D00000BE00BEF2EB887180C60310A0C60310FB
:1001E0003802001090A31AE700201E49086006C8D4
:1001F00081F3088810471C480068002801D00020BF
:10020000F3E70DA40ECC002902D000F012F8F9E7B4
:100210001649174A002000E001C19142FCD115495E
:100220008847154988471549884700BEFDE701C939
:1002300001C29A42FBD37047A0C60310C000002041
:10024000C0080020A0CE03100000042000000420FD
:10025000A0CE0310001004200010042000000000B5
:100260007047000008ED00E0000000D0C00800204A
:10027000F8110120591500109902001051150010B5
:1002800010B5044C200001F093FAFA20800002F02F
:1002900033FAF7E76884031000B583B001F03CFA45
:1002A000022001F029FD012001F02EFC084B8022E4
:1002B000019301230749520000930748002302F0ED
:1002C000A3F803F05BFF02F011F9044800F03EF8D8
:1002D000141100207884031081020010848403101C
:1002E00010B54024074A83009A181268C000544091
:1002F000C0222240044C1B191A60044BC0184160F4
:1003000010BDC04604C0014004D00140004001407F
:100310000123D0228340120693629361084A83002E
:100320009A1811684022514080320A400549C000A5
:100330005B181A60044BC018052343607047C04621
:1003400004C0014004D00140004001400FB400B59A
:10035000084883B001F02CFA049B002B07D005A9B4
:100360001800019101F0BEF8034801F021FA0120C4
:1003700001F0D0F8A08403107484031010B5014874
:10038000FFF7E4FFB084031070B58C461600EFF35E
:10039000108472B60F490B68002BFCD0BFF35F8F3F
:1003A0006346DB08C5180722C05C63461A40012378
:1003B00093401A000240034207D118432870BFF34C
:1003C0005F8F0A6084F3108870BD61463000FFF7CC
:1003D000BDFFC0462C0100D0044A1078431CDBB29C
:1003E000172B00D9102313707047C0464802002015
:1003F0000021044B044ABFF35F8F02C39342FAD13A
:100400007047C046000100D0800100D0084B094A67
:100410001360094A1360094A1360094A1360094AC4
:100420001360094A1360094A1360094A1360704750
:100430008080808000E400E004E400E008E400E064
:100440000CE400E010E400E014E400E018E400E054
:100450001CE400E01F2318401E3B8340002905D008
:10046000C021044A4900535013607047802201495B
:100470008B50FAE700E100E010B5EFF3108C72B694
:100480000F4A1368002BFCD0BFF35F8F0D4B103069
:100490009B6880001B580C4A934201D099420CD1B2
:1004A000084B9B681950BFF35F8FBFF35F8F00222B
:1004B000034B1A608CF3108810BD00F0A1FDC046FC
:1004C000240100D000ED00E0C1010010024BC9186A
:1004D000890001607047C0464000003470B5114C7F
:1004E000114DAC420FD2FF262368002B0CD0FFF732
:1004F00073FF01002000FFF7E9FFA680BFF35F8FC5
:100500000834AC42F0D370BDFFF766FF0100200055
:10051000FFF7DCFF2671BFF35F8F0834AC42E3D3F3
:10052000F1E7C046B8080020C00800200A4B19684F
:10053000EFF3108072B60A68002AFCD0BFF35F8F19
:100540001B68BFF35F8F00221A6080F3108840BFE2
:10055000002000217047C04610110020F0B5DE4693
:1005600057464E464546E0B585B0EFF30583032276
:100570001A40B34B91005F58012393409B4602926F
:100580005A468846AF4B1A60AF4B03935B46AF4861
:1005900043630823FE5E002E37DABB881BB2002BB4
:1005A00000DBA4E0BB79002B00D0E5E00823F95E76
:1005B000002920DB4B007A695B18DB00D3189D68AB
:1005C000DC686B1C00D104E1A04801004144826A50
:1005D0000B69AE1A9B1A9E4215D30123026A029838
:1005E00083401A420FD0994800F054FB8C4202DC41
:1005F000CCD18542CAD940BF05B0F0BCBB46B2469B
:10060000A946A046F0BD0D61EDE77A6973009146F9
:100610009B19DB0099444B469C68DD6800F03AFB6F
:100620008D42BADC00D1F6E0002D00DADBE04A466C
:100630004B4652691B699246039A934200D1CCE023
:100640004A460821785E5288000451461043984774
:10065000009001910099019A0B00134300D1C2E070
:1006600013000A00002B00DBD9E020002900801ACB
:1006700099414B469860D96000229B5E002B00DABE
:100680008BE75D007C69EA18D200A2180094946898
:10069000D268A2468A4200DD7FE702D1844200D9B7
:1006A0007BE70824A4463B81BC44009C00972F00B4
:1006B0006546B4463E0006E05E00F218D200A2187D
:1006C0009768D268BA468A4207DC00D1B4E0F318D2
:1006D000DB00E518E35E002BEEDA66464A46009F33
:1006E00013802E80BB881BB2002B00DA5AE73A69D0
:1006F000EFF3108172B61368002BFCD0BFF35F8F4D
:100700000123BE885B42BB8036B23B69BFF35F8F7B
:1007100000221A6081F31088002E00DA42E73B00C5
:1007200008333A0099467D6973009B190824115FCC
:10073000DB004846EB18002913DB9C680093A446B5
:10074000DC6806E0A34240D00023F95E38000029AF
:1007500006DB4F007F18FF00EF19FB68A342F1DDB5
:10076000009B068000201E5E1980002EDCDA170038
:10077000BB79002B00D119E70023BB710823F95E78
:100780004B1C00D137E73D000835AC467C6903E0DF
:1007900084464B1C00D109E74B005B18DB00E018D6
:1007A0000A00E15E43881BB2002BF1DA01256D429D
:1007B000EE178560C66008257B5F9342E9D06346EB
:1007C00019803B8903803A81E3E7BB686345BBD965
:1007D000C6E7631C00D0F7E605E7534650461B69A1
:1007E0009847002823D14B461B883A693B81EFF399
:1007F000108372B611680029FCD0BFF35F8F4946A1
:100800007A880A803A697E80BFF35F8F0021116089
:1008100083F31088C1E6844200D805E7BDE60B48A3
:1008200000F038FA009B019CC018614121E7534653
:100830000CCB009201930DE7824500D847E74CE7C7
:10084000800F00203C7005405D0500100040054011
:1008500070B52D4C2569002D04D00A212B48FFF7D7
:1008600035FE70BD2A4E0321294800F009FAE660E2
:10087000FFF7B2FD274B0322C018D02322701B06BE
:100880001B6801216370244B8000A3600F2320614B
:100890000220638063694942A18019800231198670
:1008A00047311D83585218315A5275325C3999526A
:1008B00018320131995218320131995218320131EE
:1008C0009952083518329D52023118329952183215
:1008D000013199521832013199521832013199522D
:1008E0001832013199521832013199520B4B0C498F
:1008F000DC6001303562FFF7BFFD01210320FFF707
:10090000A9FD084B1D60A8E7580200201011002027
:100910000040054040000034FFFF1000800F002021
:100920005D0500103860054070B582B000920193FB
:1009300001000269EFF3108472B61368002BFCD03B
:10094000BFF35F8F0223C85E0D6900283FDB4A6951
:10095000430016001B18DB00D218F35A4B80BFF37C
:100960005F8F00232B6084F31088069B1361079B25
:100970005361009B019C9360D460538801335B04F6
:100980005B0C1D1C002B20D0ACB20304558023430C
:100990000D69EFF3108C72B62C68002CFCD0BFF3FD
:1009A0005F8F8C88148088800A69BFF35F8F002076
:1009B00010608CF310880A7801309040CA680849AA
:1009C00052181060180002B070BD0125DCE7BFF3BB
:1009D0005F8F00232B6084F31088013BF2E7C04651
:1009E0003C20000010B543890A1493421ADD5300DD
:1009F0009B184269DB00D3180469EFF3108C72B6C0
:100A00002268002AFCD0BFF35F8F5A88090494B291
:100A1000090C8A4208D00369BFF35F8F00221A6075
:100A20008CF31088002010BD094A22435A8001230C
:100A300002698371BFF35F8F002111608CF310880E
:100A4000027804499340C268012052181360EAE713
:100A50000080FFFF3C200000F0B5C64600B582B024
:100A6000040000F01FF9FA2206000F002000002306
:100A70000021920000F0B4FC8019794104000D1EA1
:100A800002DA01242E4D644206267642F717361903
:100A90006F41AF4214D811D000F004F932003B008E
:100AA000121A8B41002B15DC002B46D020002900A8
:100AB00000F002F902B080BCB846F0BDA642EBD906
:100AC0000026002700F0EEF832003B00121A8B419E
:100AD000002BE9DD00F0E6F832003B00121A8B41F2
:100AE000002B0ADB00230193164B320000931648BB
:100AF0003B00FFF719FF0130D8D000233900B04682
:100B00009C46124A1248536A994204D8966A46454E
:100B1000CCD29942CAD10668EFF3108772B6336817
:100B2000002BFCD0BFF35F8F0368BFF35F8F664677
:100B30001E6087F3108820BFE5E7002AB6D0C9E71A
:100B4000FFFFFF7F2D0500105802002000400540E8
:100B500010110020F0B5CE46474680B504000D00C8
:100B600085B0EFF305838946002B32D1404E3368C0
:100B700083422AD03F4FFB683A7898461800039288
:100B800000F088F8039A131D42469B009B582200F0
:100B90001B1A9C462B00121A8B41190000231000CF
:100BA0008B4225DC22D020BF334B586A48452BD3DB
:100BB000401B9A6A431E98410023A2425B4118439E
:100BC00005B0C0BCB946B046F0BD73688B42D1D108
:100BD000E9E7294900204B6AAB42F1D38A6A5B1BE3
:100BE000591E8B41A24240411843E9E78445DAD9B6
:100BF00000F058F822002B00121A8B41002B05DA66
:100C00001D4A536A4B4529D20020D9E7002301939E
:100C10001A4B2200009338002B00FFF785FE0028B6
:100C2000EEDD154B30C65A6A4A4515D39B6AA3427E
:100C300010D301003800FFF7D5FE0F4A0020536A99
:100C40004B45BDD3926A5B1B591E8B41A24240416A
:100C50001843B5E74A45ECD120BFEAE70020926A85
:100C60005B1BA24240415A1E93411843A8E7C0466D
:100C70005002002058020020004005402D050010C1
:100C800010B5024A0248FFF77FFB10BDC084031075
:100C9000000D00200300416A0A00986A596A8A42DE
:100CA000FAD17047034B596A0A00986A596A91420F
:100CB000FAD1704700400540064A536A9942FCD871
:100CC00007D1044B02E05A6A914202D19A6A9042DB
:100CD000F9D8704700400540F8B5DE464E46454617
:100CE0005746E0B505008B4618000A99914600F07A
:100CF000E5FA0A9B6C001E026419304BA400E4184C
:100D0000636880469E4200D966602F1FFBB29A46F8
:100D1000012B2FD9C0238022294FAD009B01795987
:100D20001201E3181A6000291BD14B4622685B01AF
:100D30005340E022134080225201A2181360534610
:100D4000012B2FD9802380229B01E31812011A6006
:100D5000434666607B51F0BCBB46B246A946A046FE
:100D6000F8BD786900F0AAFA013043001B18033B74
:100D7000FDD2DAE75B46012BCCD1C02303229B01D5
:100D8000E3181A60023AA3681A42FCD04A46236864
:100D900052015A40E023134080225201A218084F0A
:100DA0001360AD0058460323216841400B40136097
:100DB00001228240A3681A42FCD0C3E700800040B1
:100DC000040D0020F0B5D6464F46464644009846EE
:100DD0002418324BA400E41863688A469146C0B5D3
:100DE000FF2B02D880235B006360061FF6B2012E42
:100DF0002FD9C02380222A4F85009B0179591201E7
:100E0000E3181A6000291BD14B4622685B0153404E
:100E1000E022134080225201A2181360012E30D923
:100E2000802380229B01E31812011A6080235B005B
:100E3000636043467B51E0BCBA46B146A846F0BD6C
:100E4000786900F03BFA013043001B18033BFDD2E8
:100E5000DAE75346012BCCD1C02303229B01E318D0
:100E60001A60023AA3681A42FCD04A46236852012B
:100E70005A40E023134080225201A218084F136009
:100E8000850050460323216841400B401360012236
:100E90008240A3681A42FCD0C2E7C04600800040EE
:100EA000040D0020014B8000C0587047040D002045
:100EB000F0B5C646040000B52348160098460D005C
:100EC00000F0FCF90100300000F0F8F94346069A02
:100ED0001B04120313439C4623680600002B22DBED
:100EE0001A4B1B48E218531E9A4180235242120BA0
:100EF0009B011203D218174B1A60174B1A6013008C
:100F000001688B43FBD12122144B2560E318A660B6
:100F10001A602268002AFCDA6246E26008221A603F
:100F200080BCB846F0BD3F2322681340AB42D7D106
:100F3000A3681B051B0D8342D2D1EE22E368D202C7
:100F400013406345CCD1EBE7001BB7000040FDBF69
:100F500008C0004000E0004000F000400430000005
:100F60008023024A9B000B43D362704700800540F8
:100F7000002310B50100988A1B8B984710BDC0460E
:100F8000162310B5010018885B88984710BDC0462D
:100F9000F8B54746CE4680B50F1E18D014239946A3
:100FA000043304000025012698464B461888434622
:100FB00021681B88984701C4431E984101350640AB
:100FC000AF42F2D13000C0BCB946B046F8BD0126F0
:100FD000F8E7C046AA23064A1B0113608D235B0075
:100FE000D3600449044B19605368002BFCDA704746
:100FF0000040024000B0FA00006002407047C04666
:1010000010B50148FFF7A2F9E484031070B5074D4D
:10101000074EB54209D20024013E761BB6080136C0
:1010200008CD01349847B442FAD170BD288403102A
:1010300064840310054B064A06491A60064A074BAA
:101040001A6010000B689843FBD1704700E0004025
:10105000BFCDFBFE08C00040FE7F3C0000F000401A
:10106000044BDB6C002B03D18022034BD2021A60AD
:101070007047C046000011504C201150044A054BE7
:101080001A60054A1368DB018033FBD17047C04604
:10109000FFFFFF0100F0004008C000404022034B6A
:1010A0009A675A671A67DA667047C04600F00140CF
:1010B00010B5FFF79DF910BD70B52749274E284D93
:1010C000761AB4082200302C00D930222800920071
:1010D00000F0FAF92F2C3BD823002A3B214A052B9C
:1010E0001BD93020AE197107001B2600CB0F002939
:1010F00002DAA1006A50661CC01AE3189B0041087E
:10110000EB18C900C9181A605A6008338B42FAD12B
:10111000012303421CD098438419A300EA50631CA6
:101120002F2C15D09B00EA50A31C2E2C10D09B0016
:10113000EA50E31C2D2C0BD09B00EA50231D2C2CD5
:1011400006D09B00EA50631D2B2C01D09B00EA5077
:10115000054B9D6070BDC04600010010C00100102D
:1011600000000020C101001000ED00E0002310B5D8
:10117000294C82B0A367FFF72DFF0122274B1A608D
:10118000636C012BFCD10322254B1A60224A936B1E
:10119000012BFCD1013300930121224A2248043360
:1011A000FFF786FE052301210093204A2048FFF720
:1011B0007FFE0022022104201E4BFFF703FE0022C7
:1011C000012105201C4BFFF7FDFD00220021072017
:1011D0001A4BFFF7F7FD002200210820174BFFF7FD
:1011E000F1FD8023DB000093002200210920134B36
:1011F000FFF772FD0022104B00210620FFF7E2FDF1
:101200000420FFF74FFE0E4900F058F801000020BF
:10121000FFF7A6FE02B010BD008000403CB00040C9
:1012200030B00040002F685900800240008C864793
:1012300000C00240001BB70040597307006CDC027D
:1012400040420F0001480421014B18477002002062
:10125000910F0010014B5B681847000070020020DE
:10126000014B9B681847000070020020124A936FE0
:101270009B0815D29066D166002905D0FFE7FFE7ED
:10128000FFE7516F106F704704B580210906C21740
:101290005140002800D0C84337F0BEF8002104BDFB
:1012A000F0B5146E556E576F166FFFF7E3FF1466B7
:1012B000556657671667F0BD000000D0114A936F5E
:1012C0009B0813D210665166002905D0FFE7FFE79F
:1012D000FFE7516F106F704704B5002801D0002060
:1012E000C04337F099F8002104BDC046F0B5146E34
:1012F000556E576F166FFFF7E5FF14665566576713
:101300001667F0BD000000D010B50148FFF71EF8C9
:10131000F0840310132370B51D78012D19D014DD4E
:101320001D48FFF72DFE06001C48FFF729FE1C4C48
:1013300080223100200000F0C7F8022D06D01948A5
:10134000FFF716FE184B186070BD154C174BA364C1
:10135000F5E7174B124C23606360A360E3602361E1
:101360006361A361E36123626362A362E362236357
:101370006363A363E36323646364A364E364236537
:101380006365A365E36523666366A366E366236717
:101390006367A367E367D9E753440000534600003F
:1013A000400A00204C3300000C100020B513001040
:1013B0000913001007B5604601880A0A0230DF2AC7
:1013C000FAD1C9B2820804D30288408800041043CD
:1013D00000E00068014A5050039007BD400A002019
:1013E00051434343C9188C46110C83B24B4310B48C
:1013F000040C614392B280B2504362431C041B0C44
:10140000001910BC59411304120CC0185141614419
:101410007047000010B50148FEF798FF7484031070
:10142000132310B51C781148FFF7AAFD012C0BD02F
:1014300004DD010080220E4800F046F80D48FFF759
:1014400097FD0D4B186010BD094C0100542220007F
:1014500000F03AF822002000084980320368002B8F
:1014600000D1016004309042F8D1E7E75346000014
:10147000101000204C3300000C1000201514001038
:1014800010B5040036F034FB002804D0034B0419D7
:101490009C4200D810BD0248FEF758FF000004200F
:1014A0000885031010B536F02DFB10BD014804214E
:1014B000014B184780020020910F0010014B1B6860
:1014C0001847000080020020014B5B6818470000AD
:1014D0008002002010B5002800D110BD00F01EF9D8
:1014E000FBE7C04610B5094A0300146884B0002C1D
:1014F00008D0012200910648524203A9A0470120CA
:1015000004B010BD00F054F90020F9E73C0D0020B4
:10151000D514001000BEFDE77047C046094A1368A5
:10152000002B06D008491818884208D81060180007
:101530007047064B0449181813608842F6D90123F6
:101540005B42F4E7380D002000000420F811012070
:1015500010B5FFF7DFFFC04670B5FFF757FD074D29
:10156000074EB54209D20024013E761BB60801366B
:1015700008CD01349847B442FAD170BD6484031099
:1015800068840310030010B5080011001B68984719
:1015900010BDC046F8B5437D07000D001600002BB6
:1015A00038D0002A1ADD0B780A2B18D00020012E23
:1015B00009D0012421006B5C01340A2B1AD0B442FB
:1015C000F8D1864203DD311A3B6828189847AD19D7
:1015D000013D2B780D3B5A4253413B75F8BD037DCD
:1015E000002BE3D102210E483B689847012EEED034
:1015F0000120DEE76B1E5B5C0D2BE0D0884203DA36
:10160000091A3B6828189847054802213B68984703
:101610002000D4E70368110028009847DEE7C046A1
:101620000C860310F0B54646D6464F46C0B582B08C
:1016300090461C0006000D00FFF734FB00232F4AE4
:1016400012184B41002B02DA01222D4B52422D4938
:1016500008008A4636F0D8FE81466B1C03D1300064
:1016600036F046FD0500002C27D0274F274B1C687D
:10167000002C18D04346002B21D1254B984602E080
:101680002469002C0FD02368002BF9D043461B6837
:10169000002B01D09C42F3D120002A003100B84732
:1016A0002469002CEFD14B46002B23D1280002B037
:1016B000E0BCBA46B146A846F0BD164FD6E7144B7B
:1016C000984602E02469002CEDD02368002BF9D065
:1016D00043461B68002B01D0A342F3D12A003100FE
:1016E0002000B8476B460A222000DA71D91D093A5A
:1016F000B847E7E7504636F07FFED7E740420F0095
:10170000FFFFFF7FB8080020951500102C0D00206A
:10171000340D00208515001000207047F0B5CE462E
:10172000474680B583B06B460600DD1D2870FFF785
:10173000B9FA0023194A12184B41002B02DA012290
:10174000174B524217490800894636F05DFE164B8A
:1017500080461C68002C14D0144F02E02469002C31
:101760000FD02368002BF9D03B68002B01D09C429E
:10177000F4D1200001222900FFF70CFF2469002C7E
:10178000EFD14346002B05D1300003B0C0BCB946B1
:10179000B046F0BD484636F02FFEF5E740420F0058
:1017A000FFFFFF7FB80800202C0D0020340D002023
:1017B00070B5040036F09CFC0123010005000122F5
:1017C0002000FFF72FFF084B1C68002C06D0636831
:1017D000002B05D098472469002CF8D1280070BD53
:1017E0002469002CF3D1F9E72C0D0020F0B5454613
:1017F00080463C4B4E4643445A1E9341DE46574674
:101800008022E0B55B421B0C92021B049B18364AF7
:1018100083B01360354A8946354913601D000A6854
:101820009543FBD10620FFF73DFB43465A68022350
:101830001A4000922F4A8026424413604B4682464B
:10184000D90D580201920B0002000224760006E036
:10185000924506D3023412184B41B44201D0002BFA
:10186000F6D080272602361B7F0002E0361B012FB0
:1018700036D031005046BB46013FFFF71FFD814582
:10188000F4D2594661433D0243461C611B68FF2266
:101890006B40802512026D0113404544164A2B60AF
:1018A000009B4244136002204346019C5B68206019
:1018B0004446266807246640C83434402C6003241C
:1018C000034013600D4B43441C6010605046FFF70B
:1018D000F5FC03B0F0BCBB46B246A946A046F0BD3D
:1018E0002100D1E70000FCBF00E0004000F0004014
:1018F00008C0004004300000042000002420000044
:1019000010B5EFF3108C72B60A4B9A688300D0586A
:10191000814205D0084A90420AD3084A904207D231
:10192000044A9268D150BFF35F8F8CF3108810BDCA
:10193000FFF766FB00ED00E0C0010010D4010010CD
:1019400070B5204C20492068FFF750FF0221236822
:101950001E485A681818016018680A40CD31814342
:1019600080200125400118180160194912205B18D8
:101970001A600121FEF7B4FC01211320FEF7B0FC30
:10198000144C2088FEF7C4FC2A002388D0249A40F7
:10199000114E2406308862626261FEF7B9FC2A00AB
:1019A00033880E4E9A400023F05E62626261431CEF
:1019B00006D0FEF7ADFC0022B35E9D406562656116
:1019C00070BDC0469802002080F0FA02043000008A
:1019D00004200000940200209202002090020020C7
:1019E000F0B5DE4657464E464546E0B5037887B02B
:1019F000002B77D0013B1D003E4BD02701933E4B7F
:101A0000441C02933D4B3F069B46012398460133FD
:101A1000994603E0013DEDB2FF2D63D04046A21C84
:101A2000019903926278237800920A884446904094
:101A3000B86104A8C37102984E4603889C40BC61FB
:101A40005C4620684C46426822402D4C03191E60BB
:101A50008024C7260368B246734064010836011922
:101A600033400B60274B7F24C3181A6004ABD91D89
:101A7000012236F0B1FC0298009A03884046984053
:101A80007861584614404A4600681D49436813402F
:101A9000421849461160514602684A408021490176
:101AA000164042181660174E8219039E13603100CB
:101AB000220036F091FC4046019B34191B88984067
:101AC0006B461B7878615BB2002BA3DA2078661C2A
:101AD000FF2800D1F530013DEDB2FEF7BDFF340027
:101AE000FF2D9BD107B0F0BCBB46B246A946A0462D
:101AF000F0BDC0469402002092020020980200200F
:101B0000043000000420000000230321F0B585B05C
:101B100002AA93710A006B4B02401A706A4B0424AC
:101B20001B781D00A543012D0DD068490020095EDA
:101B3000022A24D0032A0BD1022B00D0ABE0602371
:101B400002AA937187E0800713D4604801800321C3
:101B5000012A00D176E0022B00D198E0042B00D1BD
:101B6000A7E0C82202A88271012B12D18020802216
:101B700011E056490D800121022A00D078E0022BA5
:101B800007D0042B00D19AE0082202A88271012B11
:101B9000ECD0A02080224E4B18804E4B1A804E4A2B
:101BA0004E4B12881A804E4B1980012422004D4B57
:101BB000D02500931B8821009A4036232D06AA6168
:101BC00002AAD371484A494E1388022799403068C7
:101BD0000192A961464942684318C7211F60036802
:101BE0003A404B4008310B408021490141180B60BD
:101BF000404BC3181A6002ABD91D012236F0ECFB32
:101C00002000019A3A491388984068613068CF26CD
:101C10004218C7214368176002683B404A40802150
:101C20004901164042181660324A02A98218136010
:101C30000631012236F0D0FB009B1B889C406C6172
:101C400005B0F0BD022B1ED0042B2CD0A82202A878
:101C50008271012B14D0A02080221E4B18801C4BB7
:101C60001A801D4A1E4B12881A801C4B19809CE753
:101C7000032A00D06CE7682202A88271012BEAD106
:101C800080208022E9E7A02302AA9371E3E7BE3314
:101C900002AA93717DE7042BEDD102AA5C33937104
:101CA000A0205022D9E702AA9C339371A020502291
:101CB000D3E702AABC339371A02050226BE7A02087
:101CC000502268E7F4110120F5110120EC110120E8
:101CD000EA110120EE110120E8110120F01101208C
:101CE000F2110120940200209202002098020020AC
:101CF0000430000004200000F0B5012585B0040088
:101D0000FFF71EFE2A006A4ED02733883F069A400E
:101D1000684BBA61009300229B5E5A1C0AD02A00CD
:101D20009A400520BA61FEF797FE009B00229B5E59
:101D30009D407D616048FFF753FE002C00D193E089
:101D4000012C00D1A2E0052C0FD0042C26D05B483A
:101D5000FFF746FE5A48FFF743FE022C30D0594B9E
:101D600000201C70FFF7D0FE16E08022564B57482B
:101D70001A80574B1A80FFF733FE0222554B50480A
:101D80001A80554B01321A80FFF72AFE01224D4B73
:101D900002201A70FFF7B8FE05B0F0BD50224A4B82
:101DA0004E481A804A4B50321A80FFF719FE18220B
:101DB000484B43481A800022474B1A80FFF710FE19
:101DC0000125C02302AA93712A003388D0279A40A4
:101DD00036233F06BA6102AAD3712A00404B022182
:101DE00000931B889A40BA613E4A3F4B10680192AB
:101DF000C3184268196003680A40C5314B40083176
:101E00000B408021490141180B60384BC3181A6000
:101E100002ABD91D012236F0DFFA2800009B022117
:101E20001B88019A9840304B78611068C31842684B
:101E3000196003680A40C5314B4008310B408021CE
:101E4000490141180B60294BC3181A6002AB991D58
:101E5000012236F0C1FA338800209D40194B7D6184
:101E60001C70FFF751FE97E72148FFF7B9FD0222EA
:101E7000184B13481A80184B013A1A80FFF7B0FD2F
:101E8000104B00201C70FFF73FFE85E780220E4BB1
:101E90000E481A800E4B1A80FFF7A2FD02220D4B4E
:101EA00007481A800C4B01321A80FFF799FD56E75C
:101EB00094020020900200207C8603105C860310B0
:101EC00010860310F5110120EA1101204C86031041
:101ED000EE110120E8110120EC1101203C860310D5
:101EE000920200209802002004300000042000002C
:101EF0006C860310F0B5C64600B5040001F03CFA4C
:101F0000364A374E1368013313603368002B34D0E0
:101F1000344BE26A98461B68002B28D0324D334977
:101F20000B6801330B606364314B1968914200D236
:101F30001A6093009B189B00E9184A68A260906899
:101F40000700E060201D78609060EA58616101320E
:101F5000EA5001F01DFA43461B68002B04D0336899
:101F6000DA6AE36A9A4211D380BCB846F0BD33689E
:101F7000DB6A9342D2D83460D0E734601368012B17
:101F800007D0184BE26A9846174DC8E701F0E8F908
:101F9000EAE7154D2F00380001F08CFA154B143785
:101FA000BB42F8D1144B9846180001F083FA134F46
:101FB000380001F07FFA124801F07CFA114801F074
:101FC00079FA114801F076FA4246104B1A60104B2C
:101FD000E26A1F60034B9846A1E7C0461C1100202F
:101FE000940F0020AC110120A80F00202811002020
:101FF0002C1100200C100020581101206C11012020
:1020000098110120C4110120B01101209C0F002063
:10201000A00F0020F8B54746CE460400264B80B5F9
:102020001E68264B264D1B6889461F00254B1B68E2
:1020300028689846043001F073FA631C18D02B68A6
:1020400034195C60A64208D929684046043101F081
:102050004DFAC0BCB946B046F8BD29683800043115
:1020600001F044FA184B1A68A242F2D91C60F0E75A
:102070004B46002B0CD12A68731E53609E42E3D856
:1020800029683800043101F031FA0F4B1B68E0E792
:102090000E4B29685A688A6090682968C860296868
:1020A000043141602968043191602A6853611A68DB
:1020B00001321A60CDE7C046D81101209C0F0020E4
:1020C000940F0020A00F00208C110120B0110120DE
:1020D000F8B5CE464746950080B5804628000E00EC
:1020E000994601F0B7F8071E00D187E0782001F08B
:1020F000B1F8041E00D17EE078220021FFF7DEF95E
:102100002A00A52138002763FFF7D8F9236B043D87
:102110005D1907239D43002E4BD034223378A354FE
:10212000002B43D073780132A354002B3ED0B378F8
:102130000132A354002B39D0F3780132A354002B81
:1021400034D033790132A354002B2FD0737901326C
:10215000A354002B2AD0B3790132A354002B25D0ED
:10216000F3790132A354002B20D0337A0132A354E7
:10217000002B1BD0737A0132A354002B16D0B37AF4
:102180000132A354002B11D0F37A0132A354002B57
:102190000CD0337B0132A354002B07D0737B013268
:1021A000A354002B02D04223B27BE25443230022EB
:1021B000E254089E042E1CD8201DE662E66401F05D
:1021C00085F92000183001F081F905239B1BA361DC
:1021D0004A46414628002461646201F0B1F8099B37
:1021E0002060002B00D01C602000C0BCB946B04667
:1021F000F8BD0426E0E7380001F038F80024F3E7E2
:10220000F0B5C646124B00B59846124D124F134E0C
:1022100014E001F0B1F8FB68DC68201D01F080F9E2
:102220003368013B33602B68013B2B6001F0B0F851
:10223000206B01F01BF8200001F018F82B68002B30
:10224000E7D143461B68012BF8D901F089F8F5E77F
:10225000A80F002020110020C41101201C11002013
:10226000F0B55746DE464E4645465E4BE0B51F6824
:1022700083B001371F60002F66D05B490B689F4217
:1022800077D35A4B98461B681B68002B00D1A3E0FC
:1022900000239C46564B45469A46564B564C99460B
:1022A000634600934B468C46B946019338E010686C
:1022B000013810609A6A002A0FD0D969186A8860BC
:1022C000D9694160180051681830814200D175E029
:1022D000002110689962013810600199D86A0A6873
:1022E000904200D908604746820012189200A11857
:1022F000486898608668DE6077608760A05859619A
:102300000130A05052461068DA6AC36A93429B417A
:10231000009A5B421A432B6800921B68002B55D031
:102320002B68DB68DB685A6891454AD39968D8689E
:102330005A698860996841605068191D88468842CA
:10234000B5D1D8685060B2E7284B2C4A196810689C
:10235000186011602A490A6801320A601A68126816
:10236000002A25D1012320495B420B600B689F4264
:1023700087D200239C461E4B1F4C9A465346012091
:102380001B68204AD96A12688B005B189B00E358CF
:102390009842804113005A1E9341404218436346BD
:1023A000184303B0F0BCBB46B246A946A046F0BDF8
:1023B0001B680D49DB681B680B605FE7186A50609B
:1023C00086E76146009B0A609C46D7E761469446D3
:1023D00001235B420B60D1E79C46054B064C9A46B5
:1023E000F6E7C046D81101208C1101209C0F002077
:1023F000940F00202C110020A80F0020A00F002017
:1024000090110120E411012010B582B0059C0194C7
:10241000049C0094FFF75CFE002804D0FFF76AFDDF
:10242000012002B010BD01204042FAE7F8B50400D7
:1024300000F0A2FF254E002C42D0201D01F070F8C4
:10244000A36A271D002B03D02000183001F068F884
:102450001F4A204D1368013313603368A34221D013
:102460002B681D4A1368013B13601C4B1A681268E5
:10247000002A13D01B68DB681A68194B1A6000F039
:1024800087FF206B00F0F2FE200000F0EFFE2B68CB
:10249000002B02D03368A34214D0F8BD104B013A90
:1024A0001A60ECE72B68002BDBD039000D4801F0F7
:1024B00011F80D4A13680133136000F069FFE6E775
:1024C0003468BAE700F04CFFE7E7C046940F0020FD
:1024D00028110020AC1101201C1100209C0F0020AD
:1024E0008C110120C41101202011002010B50024FE
:1024F00086B01022002102A8FEF7E0FF114B8022D7
:102500000293114B114801930094002302A9FFF795
:10251000DFFD002805D0FFF7EDFC00F055FE012897
:1025200003D00B4B1B6806B010BD72B60122094BDD
:1025300052421A60084B1860084B1C6000F066FF9E
:10254000EFE7C04649444C458411012001220010A8
:10255000B88603108C110120AC110120D811012084
:10256000024A1368013313607047C04624110020EB
:10257000F8B5DE46454657464E46E0B500F0FCFE4F
:10258000534D2B68013B2B602B68002B00D082E061
:10259000504B1B68002B7ED04F4F3B68002B00D167
:1025A00092E04E4BAB4618004D4B4E4C99464E4B6D
:1025B0009A46FB68DB68DE69196A9A6AB160DE696F
:1025C0004E601900566818318E4200D175E0002126
:1025D00099621168013911609E68D9685A69B160C1
:1025E0009E684E6051681E1DB14263D0116801396A
:1025F0001160D96A0268914200D901608A005218BC
:102600009200A1188C46496899608D68DD606E6003
:102610008E6061465961A1580131A1504A46116846
:10262000DA6ACB6A9A4240D9534601221A603B6863
:10263000002BBED12D4B5D461A681268002A3FD090
:102640001B68DB681A682A4B1A602A4E3468002C13
:1026500017D0330001272E001D0008E0FFF700FE11
:10266000002801D053461F60013C002C08D033687D
:10267000002BF3D02B68013C01332B60002CF6D1EA
:102680002C6053461B68002B05D0154B01241B689A
:1026900000F066FE00E0002400F07AFE2000F0BCAE
:1026A000BB46B246A946A046F8BD3B68002B00D009
:1026B0007FE7BFE7D968516098E7196A516086E7FC
:1026C0000B4B013A1A60C0E7074B9A46BDE7C0467C
:1026D000241100201C110020981101202C11002031
:1026E000940F0020A80F0020E41101209C0F00206F
:1026F0008C11012094110120F0B5C646040000B5EC
:1027000000281DD0154A136801331360144B154D72
:102710001E68154BA4191B689846144B1F6828683F
:10272000043000F0FDFE2B6829685C600431A6428D
:102730000BD9380000F0DAFEFFF71AFF002801D1AC
:1027400000F00EFE80BCB846F0BD404600F0CEFE64
:10275000074B1A689442EFD21C60EDE72411002069
:10276000D8110120940F00209C0F0020A00F002002
:102770008C110120014B18687047C046D811012008
:10278000064B10B51B68002B02D1FFF769FD10BD89
:10279000034A0020136801331360F8E72411002076
:1027A00094110120234B30B51B68002B03D001226C
:1027B000214B1A6030BD204A204C13602368204909
:1027C0009C4662469B009A1892008A58002A2BD198
:1027D00063465A1E9300981880000858002811D1AB
:1027E00063469A1E9300981880000858002809D163
:1027F0006346DA1E9300981880000858002801D11B
:10280000013A93009B189B00C818844665464068AF
:1028100008334068C9186860884207D0094BC1680E
:10282000196022601B68C5E76246EBE7E8686860EC
:10283000F4E7C04624110020E41101202C110020EF
:10284000A80F0020940F0020F0B5C6460D001E4CC6
:1028500000B52168183100F049FE1C4B1E681C4B66
:102860001B681F001B4B1B6820689846043000F053
:1028700057FE6B1C15D023682168AD195D600431CB
:10288000AE4205D9404600F031FE80BCB846F0BDEE
:10289000380000F02BFE104B1A689542F5D21D60EF
:1028A000F3E70E4B21685A688A6090682168C86017
:1028B00021680431416021680431916022685361CC
:1028C0001A6801321A60E0E7940F0020D811012045
:1028D0009C0F0020A00F00208C110120B0110120BE
:1028E000F8B54746CE462A4C43688846216880B5ED
:1028F000CB619D6821680D6221681831696021688B
:102900001831996023689862036801330360214B92
:10291000002A1ED01B68204B1B68204B1B682068B8
:10292000043000F0FDFD1E4B21685A688A609068F3
:102930002168C860216804314160216804319160D8
:10294000226853611A6801321A60C0BCB946B046A9
:10295000F8BD1E68104B1B689946104B1F68206815
:10296000043000F0DDFD43469D19236821685D6059
:102970000431AE4208D8484600F0B8FD094B1A6849
:102980009542E2D21D60E0E7380000F0AFFDDCE7E1
:10299000940F0020D81101209C0F0020A00F0020D0
:1029A000B01101208C110120C36870B5DB68D869B3
:1029B000196A9A6A8160D8694860180051681830AD
:1029C000814245D000219962116801391160274A7E
:1029D0001268002A2ED19868D9685A69816098686F
:1029E0004860191D8C465168614534D01168013921
:1029F00011601F4AD96A1068814227D866468A004A
:102A00001C48521892008418616899608D68DD60D6
:102A10006E608E6081585C6101318150164A0020E1
:102A20001168DA6ACB6A9A4203D90122134B01304A
:102A30001A6070BD124A5168D9618C681C6260606E
:102A4000886011689A6201311160E7E71160D5E78B
:102A5000196A5160B6E7D96851601168013911608F
:102A6000034AD96A10688142C8D9EFE724110020CF
:102A70002C110020A80F0020940F0020E411012049
:102A800098110120034B1B680360034B1B684360D4
:102A90007047C04690110120D8110120F8B50D00F3
:102AA000040000F069FC114A2B681168581C1AD008
:102AB0000F4E2768B44636686068B74208D088422F
:102AC00006D8002301242B6000F062FC2000F8BD32
:102AD0000E1AB342F5D95B1A1B182B6063461B68AC
:102AE0002360136863600024EEE7C046D81101201C
:102AF000901101200122014B1A607047E41101205E
:102B0000014B18687047C046940F0020F8B5041EAA
:102B100022D0204DC26A2B68DB6A9A4215D28369A3
:102B2000002B04DB2B68D96A05235B1A83619300B1
:102B30009B18194A9B001600D31862699A420DD05F
:102B40002B680120DB6AE36205E02B68C06CDB6A5E
:102B5000984280414042F8BD0020FCE7201D00F073
:102B6000DFFC2B68271DDA6A0C4BE26219688A4287
:102B700000D91A6093009B189B00F1184A68A26064
:102B80009068E06047609760F2586161013201200F
:102B9000F250E0E7940F0020A80F00202C11002035
:102BA000F8B5041E08D0036DC16AC26C013B036511
:102BB000914201D0002B01D00020F8BD071D043048
:102BC00000F0AEFC0523E26C9B1AA3610B4BE262A2
:102BD00019688A4200D91A60930009499B189B0022
:102BE000C8184268A2609568E5606F609760CA582F
:102BF000606101320120CA50DFE7C0462C1100207D
:102C0000A80F002070B5041E08D0C36C8B4206D3F9
:102C1000E26A9A4202D0216D012905D070BDE26AB4
:102C20000B009A42F7D1F9E7A169E362002902DBC0
:102C30000521CB1AA36193009B18104A9B00150035
:102C4000D31862699A42E9D1201D00F069FC0C4B4F
:102C5000E26A1968261D8A4200D91A6093009B18FF
:102C60009B00E9184A68A2609068E0604660966040
:102C7000EA5861610132EA50D0E7C046A80F00204F
:102C80002C110020034B1868002802D0036D01337B
:102C900003657047940F0020F8B504004746CE4600
:102CA000254D1A342B68A600F35880B588460700D6
:102CB0009146002B01D1002A1CD100F05DFB2B684E
:102CC000A400E658002E05D04346002B0ED000226B
:102CD0002B68E25000232868C0197430037000F09C
:102CE00057FB3000C0BCB946B046F8BD2B68721E19
:102CF000E250EFE7114A13680133136000F03CFB28
:102D00002B68F358002B04D000F042FBFFF730FC97
:102D1000D3E701222B68DB1974331A7000F038FBFB
:102D200001214846FFF776F9FFF722FC0028C4D1BD
:102D300000F016FBC1E7C046940F002024110020CC
:102D4000F8B51E0004000D00170000F015FB069BEF
:102D5000002B05D01A002B001A339B001B5913605F
:102D600002226319743319781A70C9B2032E14D071
:102D70000FD8012E41D0022E04D1AD006519AB6EE3
:102D80000133AB6601290DD0012400F001FB2000C6
:102D9000F8BD042EF6D1022935D01A35AD002F51D9
:102DA0000129F1D1A168E26863698A60A168201DE8
:102DB00051605A68824228D01A68013A1A60144B4E
:102DC000E26A19688A4200D91A60930011499B1877
:102DD0009B00CD186A68A2609668E660706090609B
:102DE000CA5865610132CA500B4B1B68DA6AE36A44
:102DF0009A42C9D200F0B4FAC6E7AD006519AB6ECD
:102E00003B43AB66BEE70024BFE7E2685A60D3E706
:102E10002C110020A80F0020940F0020F0B5574679
:102E20004546DE464E46E0B5D24FD34AB846434605
:102E30009246D24A8BB0019228221B6893461D68A5
:102E4000CF4CD04F002D67D1FFF78AFBFFF792FCE4
:102E50003B688146834200D9F6E053461B683860E0
:102E60001A6853425A414B462068E91A01F022F988
:102E7000FFF77EFB002800D13AE11022002106A8CE
:102E8000FEF71CFB3D000022206806A900F094FD1F
:102E900000283BD0069B002B75DB089E002EF2D04D
:102EA0007369002B02D0301D00F03AFBFFF762FC83
:102EB0002B68070098426FD3069B2F60092BE2D83E
:102EC000019A9B00D3589F465B46F05C01235A460B
:102ED0000343B3540799B26936618B187360BB42E0
:102EE00000D9A6E0791A8A4236D8410700D502E116
:102EF000012398435B46F0543000336A9847002220
:102F0000206806A900F058FD0028C3D143461B687D
:102F10002F001D68002D97D0DB681D68FFF720FB90
:102F2000FFF728FC3B688146984200D28CE038606D
:102F3000854200D801E1002295E75B460122F35C5F
:102F400013435A46B354079B3661DA19B361726072
:102F5000BA4273D8002B96D05346311D186800F042
:102F6000C5FA90E75B460122F35C93435A46B3549B
:102F700089E75B46F35C9A0700D4B5E001229343EE
:102F80005A46B3547FE7079B099908989847069BD0
:102F9000002B00DA77E780E743461B681A68002AAF
:102FA00040D00422029691460395049405900BE0CC
:102FB000012293435A46A354236A2000984743466C
:102FC0001B681A68002A29D0DB68DC681E68271D88
:102FD000380000F0A5FA5B464A46E35C1A42E7D0A7
:102FE000A3692461F518F64365609E4209D3EE4358
:102FF000236A20009847A3692461ED186560B342F5
:10300000F5D953463900186800F070FA236A200099
:10301000984743461B681A68002AD5D1029E039D33
:10302000049C059F5246414612680A60524613604E
:1030300042E7B94202D9994200D856E74346311DCA
:10304000186800F053FA1EE743461B681A68002A06
:103050003FD04A460397A14602920BE001229343D8
:103060005A46AB542B6A2800984743461B681A6897
:10307000002A2AD0DB68DD681F682C1D200000F0C4
:103080004FFA5B460422EB5C1A42E7D0AB692D6134
:10309000FE18FF436E609F420AD33700FF432B6A3E
:1030A00028009847AB692D61F6186E60BB42F4D9D1
:1030B00053462100186800F019FA2B6A2800984737
:1030C00043461B681A68002AD4D1029A4C4691469E
:1030D000039F5246414612680A60524613604B46AF
:1030E0003B60FFF745FAC8E6300000F0BFF8CAE6DB
:1030F00000F036F9C1E6A1463C0007E0E31A9A4227
:1031000014D8336A300098473B00B269D71877600B
:103110003661BC42F2D29C4201D2BB42F1D9434655
:10312000311D18684C4600F0E1F9E5E65346311DC3
:1031300018684C4600F0DAF9DEE6FFF719FA434664
:103140001B68DB68DE68331D1800029300F0E8F9A5
:103150005B46F35C5A0707D4012293435A46B354A3
:103160003000336A984788E622002B004C4691468F
:1031700011E0C046980F0020A40F0020BC86031069
:10318000DC11012088110120E31A9A4214D8336A15
:10319000300098472B00B26936619D187560A542D2
:1031A000F2D9A34201D9AB42F1D94346029918683A
:1031B0004C4600F09BF9D3E75346029918684C46F9
:1031C00000F094F9CCE7C04670B582B000F0D4F8B6
:1031D000174C2368002B12D000F0DAF82368002087
:1031E000002B0AD0134B8022019303231249009332
:1031F000124800235200FFF707F902B070BD104ECD
:10320000300000F057F90F4D280000F053F90E4B35
:1032100000221E600D4B10210A201D6000F090F965
:1032200020600028D8D00A4900F090FED4E7C046BC
:10323000DC110120E01101206C8503101D2E00100F
:103240003011012044110120980F0020A40F00200C
:103250006485031010B50400FFF782F92000FEF723
:103260000FF90400FFF784F9200010BD10B5041E0B
:1032700006D0FFF775F92000FEF714F9FFF778F98B
:1032800010BDC0460000000000000000000000006B
:103290000B4A13681868203080F30988022080F3F5
:1032A0001488BFF36F8F3FBCAE4608BC04BC62B647
:1032B0001847C046C046C046C046C046C046C04685
:1032C000940F00200000000000000000000000003B
:1032D000EFF30980164B1A6820381060F0C044469E
:1032E0004D4656465F46F0C00D221207146E556ECD
:1032F000566F176F3038F0C008B572B6FFF752FA44
:1033000062B60CBC116808681030F0C8A046A94627
:10331000B246BB4680F309880D2212073038F0C848
:103320001466556656671767F0C81847C046C0460A
:10333000940F002010B5FDF721F8C0467047C04635
:1033400010B58024031F64041C60043B196003490A
:10335000043B1960143B40381A6010BD353300102F
:103360008022044B52051A60BFF34F8FBFF36F8F5B
:103370007047C04604ED00E072B6044A136801339A
:103380001360BFF34F8FBFF36F8F7047181100208A
:10339000034A1368013B1360002B00D162B67047EB
:1033A00018110020EFF3108072B6704780F3108878
:1033B0007047C04610B5FFF7F5FF0400FFF7E0F9CE
:1033C000002803D08022034B52051A602000FFF72B
:1033D000EDFF10BD04ED00E0002310B5084A094CD4
:1033E000052023601360FDF75DFDFA218900FDF7DC
:1033F00065FF054B013818600723236010BDC046E8
:1034000018E000E010E000E014E000E0FF22134BC1
:103410001204196810B50A431A60FF2219681206CF
:103420000A431A600E490E20FEF76AFA0D490F2072
:10343000FEF766FA0C490B20FEF762FAFFF7CCFFA5
:1034400000220A4B1A60D0221206094B12681A7029
:10345000FFF71EFFFFF7A6F9FCF790FF20ED00E055
:10346000D1320010B53300103D3300101811002088
:103470009C02002010B5FCF7AFFF054A054B8018F1
:103480008000186000F00AF8034B186010BDC046B9
:1034900040000034900F00208011012010B51C2046
:1034A000FFF7D8FE041E03D0002308C000F002F886
:1034B000200010BD0300083301224360C360036194
:1034C00000235242826003607047C04600230361BC
:1034D0007047C04643689A684B608A605160996043
:1034E00003680861013303607047C04630B50500CA
:1034F0002B0008680C000833421C0DD019005B68D3
:103500001A688242FAD963609C602B68A16001331B
:103510004C6025612B6030BD29694B68F3E7C046DC
:103520000369416882688A6051605968814205D0A8
:103530000022026118680138186070475A60F7E786
:10354000F8B505000E001700002840D0030C0A0C47
:10355000002B41D1002A2FD13000684303005133A2
:1035600035D85030FFF776FE041E30D00300002E11
:1035700030D12360E5632664FFF7FEFE216CE36B28
:1035800022684B43D018A06000205B1A6260D218FA
:10359000E260FF234422A0632000A3540132A3541D
:1035A0001030FFF787FF20002430FFF783FFFFF77D
:1035B000EFFE4C23E7540BE0131CA9B2B2B24A430E
:1035C00080B29BB24343120C9B181B0CC4D0002446
:1035D0002000F8BD5033CCE7002AF8D1081CECE7F6
:1035E000F0B5CE464746050080B585B098460192B5
:1035F0008946FFF7C1FEAA6BEB6B9A427BD342462A
:103600000023022A00D1EBE02E002436019A002A82
:1036100000D1FAE0002B00D1DEE0FFF7B9FEFEF7A3
:103620009FFFFFF7A9FE4422AB5C5BB2013301D1DF
:103630000023AB544522AB5C5BB2013301D10023C4
:10364000AB54FFF7A5FE01A902A8FFF727FA00284F
:1036500000D0DEE0FFF790FEAA6BEB6B9A426DD0D4
:10366000FFF796FEFFF788FE4523EC5C64B2002C62
:1036700004DC11E0013CE4B2002C0DD06B6A002B9D
:103680000AD03000FFF790F90028F3D0013CE4B2F3
:10369000FFF730FA002CF1D14523FF22EA54FFF75F
:1036A00077FEFFF769FE44232F00EC5C103764B20D
:1036B000002C04DC11E0013CE4B2002C0DD02B699D
:1036C000002B0AD03800FFF76FF90028F3D0013C37
:1036D000E4B2FFF70FFA002CF1D14423FF22EA54A1
:1036E000FFF756FEFEF744FFFFF746FEAA6BE96BB5
:1036F000012391428AD92A6CAC6B002A00D173E075
:103700004346002B00D0F1E049466868FDF7DCFE37
:103710006B682A6CA9689B186B606A6A01348B42DB
:1037200001D32B686B60AC63002A65D1FFF730FED4
:10373000012005B0C0BCB946B046F0BD2F0010371F
:10374000FFF726FE38000199FFF77EF8FFF714FE19
:103750004523EC5C64B2002C04DC11E0013CE4B2D3
:10376000002C0DD06B6A002B0AD03000FFF71CF93B
:103770000028F3D0013CE4B2FFF7BCF9002CF1D1F2
:103780004523FF22EA54FFF703FEFFF7F5FD44232C
:10379000EC5C64B2002C04DC11E0013CE4B2002CCF
:1037A0000DD02B69002B0AD03800FFF7FDF8002858
:1037B000F3D0013CE4B2FFF79DF9002CF1D1442392
:1037C000FF22EA54FFF7E4FDFEF7D2FE002800D006
:1037D0008AE7FFF7C5FD87E702A8FFF753F91CE763
:1037E0002A6CAC6B002A5AD12E680134002E72D09C
:1037F0006B6AAC63002B99D028002430FFF7D4F813
:10380000002893D0FFF7ACFD90E7FFF7C1FD002043
:103810008FE7FFF7B1FD45232E00EC5C243664B240
:10382000002C04DC11E0013CE4B2002C0DD06B6AEA
:10383000002B0AD03000FFF7B7F80028F3D0013C86
:10384000E4B2FFF757F9002CF1D14523FF22EA54E7
:10385000FFF79EFDFFF790FD44232E00EC5C103631
:1038600064B2002C04DC11E0013CE4B2002C0DD069
:103870002B69002B0AD03000FFF796F80028F3D010
:10388000013CE4B2FFF736F9002CF1D14423FF22CA
:10389000EA54FFF77DFDFEF76BFE002049E749463D
:1038A000E868FDF711FEEB682A6C29689B1AEB604B
:1038B0008B4202D2AB689B1AEB606B6A002C04D07F
:1038C000AC63002B00D131E796E70122AA63002BFD
:1038D00000D12BE790E7A868FFF762F96B6AAE604A
:1038E000AC63002B88D100288CD11FE74946E868DB
:1038F000FDF7EAFDEB682A6C29689B1AEB608B42A6
:1039000005D342466B6A022AD8D00134D8E7AB68A7
:103910009B1AEB60F5E7C04670B506005020FFF734
:1039200099FC041E2DD0002501230060C3630564AB
:10393000FFF722FD216CE36B22684B43D0185B1A22
:103940006260D218E260FF234422A060A563A35402
:103950000132A354230010331800FFF7ABFD2300FE
:1039600024331800FFF7A6FDFFF712FD4C230022B9
:10397000E654002100232000A5602560E560FFF7E4
:103980002FFE200070BDC04670B504008568FFF7AB
:10399000B7F80023854201D0180070BDE368013BF1
:1039A000E360002B01D00123F6E700220021200074
:1039B000FFF716FE0123EFE7F0B5CE4647460500B8
:1039C00080B585B089460192FFF7D6FCAC6B002C20
:1039D00000D01DE1019B002B00D1C8E02E0002A801
:1039E000FFF750F844272436FFF7D2FCFEF7B8FD66
:1039F000FFF7C2FCEB5D5BB2013301D10023EB5555
:103A00004522AB5C5BB2013301D10023AB54FFF71D
:103A1000BFFC01A902A8FFF741F8002856D1FFF723
:103A2000ABFCAB6B002B00D0A9E0FFF7B1FC24236B
:103A30009846A84440460199FEF706FFFFF79CFC14
:103A40004523EC5C64B2002C04DC11E0013CE4B2E0
:103A5000002C0DD06B6A002B0AD04046FEF7A4FF65
:103A60000028F3D0013CE4B2FFF744F8002CF1D178
:103A70004523FF22EA54FFF78BFCFFF77DFC44232C
:103A8000EC5C343B984664B2A844002C04DC11E0A2
:103A9000013CE4B2002C0DD02B69002B0AD040462B
:103AA000FEF782FF0028F3D0013CE4B2FFF722F8D2
:103AB000002CF1D14423FF22EA54FFF769FCFEF702
:103AC00057FD00284AD1FFF74BFC47E0FFF754FCB5
:103AD0004523EC5C64B2002C04DC11E0013CE4B250
:103AE000002C0DD06B6A002B0AD03000FEF75CFF73
:103AF0000028F3D0013CE4B2FEF7FCFF002CF1D12A
:103B00004523FF22EA54FFF743FCFFF735FC10235F
:103B10009846EC5DA84464B2002C04DC11E0013C42
:103B2000E4B2002C0DD02B69002B0AD04046FEF7E2
:103B30003BFF0028F3D0013CE4B2FEF7DBFF002C92
:103B4000F1D1FF23EB55FFF723FCFEF711FDFFF743
:103B500013FCAB6B002B0AD0FFF71AFCFFF70CFC31
:103B6000AC6B002C54D1019B002B00D03CE7FFF73D
:103B70000FFC002005B0C0BCB946B046F0BDFFF751
:103B800007FCFFF7F9FB4523EC5C213B984664B248
:103B9000A844002C04DC11E0013CE4B2002C0DD060
:103BA0006B6A002B0AD04046FEF7FEFE0028F3D0D9
:103BB000013CE4B2FEF79EFF002CF1D14523FF2229
:103BC000EA54FFF7E5FBFFF7D7FB4423EC5C343BFB
:103BD000984664B2A844002C04DC11E0013CE4B235
:103BE000002C0DD02B69002B0AD04046FEF7DCFEDE
:103BF0000028F3D0013CE4B2FEF77CFF002CF1D1A9
:103C00004423FF22EA54FFF7C3FBFEF7B1FCA5E70C
:103C10002A6C002A08D0E968AB688918E9609942E3
:103C20000BD24846FDF750FC2B69013CAC63002BDE
:103C300006D1FFF7ADFB01209CE72968E960F0E7BA
:103C400028001030FEF7B0FE0028F2D0FFF788FB06
:103C5000EFE7C046F0B5CE464746050080B585B0D3
:103C60000191FFF789FBAB6B002B00D040E1019B7A
:103C7000002B00D12BE102A8FEF704FF00232E0049
:103C8000994644272436FFF783FBFEF769FCFFF7CC
:103C900073FBEB5D5BB2013301D10023EB55452291
:103CA000AB5C5BB2013301D10023AB54FFF770FB77
:103CB00001A902A8FEF7F2FE00285AD1FFF75CFB2B
:103CC000AB6B002B00D0B1E0FFF762FB2B68002B41
:103CD00000D104E124239846A84440460199FEF708
:103CE000B3FDFFF749FB4523EC5C64B2002C04DC18
:103CF00011E0013CE4B2002C0DD06B6A002B0AD01D
:103D00004046FEF751FE0028F3D0013CE4B2FEF736
:103D1000F1FE002CF1D14523FF22EA54FFF738FBD6
:103D2000FFF72AFB4423EC5C64B2002C15DD343B26
:103D30009846A84403E0013CE4B2002C0DD02B6966
:103D4000002B0AD04046FEF72FFE0028F3D0013C9E
:103D5000E4B2FEF7CFFE002CF1D14423FF22EA5457
:103D6000FFF716FBFEF704FC002855D1FFF7F8FA21
:103D700052E0FFF701FB4523EC5C64B2002C04DC4D
:103D800011E0013CE4B2002C0DD06B6A002B0AD08C
:103D90003000FEF709FE0028F3D0013CE4B2FEF744
:103DA000A9FE002CF1D14523FF22EA54FFF7F0FAD7
:103DB000FFF7E2FAEC5D64B2002C15DD10239846A3
:103DC000A84403E0013CE4B2002C0DD02B69002B89
:103DD0000AD04046FEF7E8FD0028F3D0013CE4B2EB
:103DE000FEF788FE002CF1D1FF23EB55FFF7D0FA48
:103DF000FEF7BEFBFFF7C0FAAB6B002B0AD1FFF753
:103E0000C7FA4B46002B5AD1002005B0C0BCB946BA
:103E1000B046F0BDFFF7BCFAFFF7AEFAAB6B002B74
:103E200066D1019B002B00D02DE750E0FFF7B0FAE0
:103E3000FFF7A2FA4523EC5C64B2002C15DD213BB0
:103E40009846A84403E0013CE4B2002C0DD06B6A14
:103E5000002B0AD04046FEF7A7FD0028F3D0013C16
:103E6000E4B2FEF747FE002CF1D14523FF22EA54CD
:103E7000FFF78EFAFFF780FA4423EC5C64B2002C63
:103E800015DD343B9846A84403E0013CE4B2002C25
:103E90000DD02B69002B0AD04046FEF785FD002887
:103EA000F3D0013CE4B2FEF725FE002CF1D144230F
:103EB000FF22EA54FFF76CFAFEF75AFBACE7FFF774
:103EC0005BFA696A002905D1A868FEF79BFEFFF737
:103ED0005FFA99E705212B6B1B68C91AF4E7FFF716
:103EE0004BFAA868FEF712FE8146FFF751FAF1E699
:103EF000013BAB632B68002B0FD02B69002B03D148
:103F0000FFF746FA012080E728001030FEF74CFD4D
:103F10000028F5D0FFF724FAF2E7FEF7B3FEA86019
:103F2000EBE7C04670B5856804000E00FEF7E8FDBB
:103F3000854205D031002000FFF78CFE002803D019
:103F40000120E3680133E36070BDC04610B500296D
:103F500043D0554B5A68904200D18EE01A68002A2F
:103F60003CD0DA68904200D19CE09A68002A54D094
:103F70005A69904200D193E01A69002A53D0DA6955
:103F8000904200D180E09A69002A52D05A6A904249
:103F900057D01A6A002A58D0DA6A904200D175E0E8
:103FA0009A6A002A57D05A6B904200D170E01A6B7F
:103FB000002A56D0DA6B904200D16BE09A6B002A4F
:103FC00055D05A6C904267D01A6C002A57D0DA6CE0
:103FD000904263D09A6C002A30D010BDDA689042CB
:103FE00060D05A6990425BD01A00DC69A0424BD085
:103FF0005C6AA04225D0DC6AA04247D05C6BA0423C
:1040000046D0DC6BA04245D05C6CA04244D0DC6C56
:10401000A04243D011605060DFE75A6990423FD020
:104020001A000832E1E7DA6990422DD01A00103206
:10403000DEE75A6A904204D01C4ADCE748331A0093
:10404000E8E70422D2009A18E4E7DA6A90421DD029
:104050001A002032D2E75A6B904219D01A00283247
:10406000CFE7DA6B904215D01A003032CCE75A6CA9
:10407000904211D01A003832C9E70022E2E7DA6C28
:1040800090420BD00A4AC5E70322DBE70522D9E7B5
:104090000622D7E70722D5E70822D3E70922D1E78E
:1040A0000222CFE70122CDE7400B0020580B002071
:1040B000800B002070B5050016000C00FFF75CF9BE
:1040C0004422AB5C5BB2013301D10023AB544522E7
:1040D000AB5C5BB2013301D10023AB54FFF758F95D
:1040E000AB6B002B42D0FFF747F94523EC5C64B281
:1040F000002C14DD2E00243603E0013CE4B2002C39
:104100000DD06B6A002B0AD03000FEF74DFC002862
:10411000F3D0013CE4B2FEF7EDFC002CF1D14523D5
:10412000FF22EA54FFF734F9FFF726F94423EC5C49
:1041300064B2002C14DD2E00103603E0013CE4B222
:10414000002C0DD02B69002B0AD03000FEF72CFC80
:104150000028F3D0013CE4B2FEF7CCFC002CF1D1F6
:104160004423FF22EA54FFF713F970BD2800320000
:1041700021002430FEF7B4FBB5E7C04670B5234CF0
:104180002379002B41D1902200219200200001F0E0
:10419000B1F92000C9210830890000F011FD20008C
:1041A000A2214830490000F00BFD194B0122A36603
:1041B0002823E254253BE365AD33164823636B3B6C
:1041C000636700F0FFFE00F0B5FF04F037FF01F079
:1041D0009FFE00F0A7FF00F043FF00F0C1FA13F0CC
:1041E000ADF800F075FA01F0A3FE04F055FD07F0FC
:1041F0005BFA04F08FFA04F08FFB0021002007F037
:1042000017F813F035FD0123237170BD400D002018
:10421000D4C3B2A1CDAB341270B5174CA823200083
:104220000126B030E65400F02BFDAC23E558002801
:104230000AD0002D04D1AA25635D002B15D070BDD6
:10424000280000F05BFFFAE7002D03D0280000F003
:104250004FFFF4E7AA26A35D002BF0D00022002038
:10426000064904F0D1FCA555E9E7002200200349E6
:1042700004F0A2FC6655E2E7400D0020C5460010A0
:10428000F8B543680500002B38D01E4E300000F012
:10429000F7FC041E31D0102709E022682B689A42EF
:1042A00012D02100300000F0F3FC041E25D0A542FE
:1042B000F7D0636B002BF0DA5C23E35C1F42F0D095
:1042C00022682B689A42ECD16368002BE9D06A68B7
:1042D0009342E6D12100300000F0AAFC6369002B74
:1042E00001D020009847200001F0C4FDFFF794FFA3
:1042F000300000F0C5FC041ED9D1F8BD8368002B46
:10430000C3D1FAE7F00D0020F8B5056B0400466A4A
:10431000C76A002D1ADA6420F31BDA179B18534082
:10432000A9055843890DFCF7C9FFAA00920D930017
:104330009B185B00984200D987E02D03AD0DAB00C0
:104340005B195B000500984200D27CE02563E56BB9
:10435000002D18DA6420F31BDA179B185340A905C7
:104360005843890DFCF7AAFFAA00920D93009B18F1
:104370005B0098425DD82D03AD0DAB005B195B006F
:104380000500984253D3E563A56B002D18DA64202D
:10439000F31BDA179B185340A9055843890DFCF706
:1043A0008DFFAA00920D93009B185B00984234D8B1
:1043B0002D03AD0DAB005B195B00050098422AD3BD
:1043C000A563256C002D18DA6420F61BF317F61888
:1043D0005E40A9057043890DFCF770FFAA00920D9D
:1043E00093009B185B0098420BD82D03AD0DAB00DA
:1043F0005B195B000500984201D32564F8BD1D00E0
:10440000FBE718002D03AD0DAB005B195B00050049
:104410009842F2D2F3E71D00D2E718002D03AD0D4C
:10442000AB005B195B0005009842C9D2F3E71D00A1
:10443000A9E718002D03AD0DAB005B195B0005006B
:104440009842A0D2F3E71D0080E718002D03AD0DC0
:10445000AB005B195B000500984200D376E7F2E7FA
:10446000F8B5DE46574645464E46A9220121E0B53D
:10447000934FBB5C4B40BB54B0239846B844404676
:1044800000F0FEFB041E47D05C250126206D01F0E4
:1044900029FD635D1E4200D074E0636B1B186363EB
:1044A00001F00CFDA82300222065FA54635D1E4232
:1044B00062D1A932BA5C5907C90F91425CD004217C
:1044C000324092008B4313436355626B91461A0747
:1044D00028D44A46002A4FDBDB066FD52000FFF7C1
:1044E00013FFE368002B01D0200098475C220821CD
:1044F000A35C20000B43A354FFF7C2FE636B9946F5
:10450000002B12DAA823FB5C002B35D0404600F0CC
:10451000B7FB0400002CB9D1F0BCBB46B246A9469B
:10452000A046F8BD4B46002B26DB236B9A464B4535
:1045300042DA6363236A20009847A36A0100834636
:1045400083420FD06368A062002B01D02068984797
:10455000A823FB5C002BD9D1A368002B06D05946B9
:1045600020009847A823FB5C002BCFD1636B226B04
:1045700053456DD093422EDA2100404600F088FB6F
:104580000400C7E7606D01F0ADFCA36D5A1C00D1BB
:1045900086E7834200D983E7626B0521D31A1B1893
:1045A0006363A9230122FB5C5340625D9B000B40C7
:1045B0008A431343635573E7CA46BBE7A369002BDD
:1045C00000D18BE720009847636A1B186362E36A97
:1045D0001B18E36282E75C208146205C616C8446A4
:1045E00080073BD5002953D0E16B8A465C21082027
:1045F0008C46615C8143604621540021934200DD7A
:10460000991A236CC91A53466163002BB4D05C23FA
:10461000E15C5A3B18000B40084202D1A16B4942B1
:104620006163012101209B07DB0F4B4003405C21AC
:104630005B009C46635C01308343604603436354E4
:10464000636AE16AE362534661622363E26393E76C
:10465000510049458EDD4B4663638BE7E06B824634
:10466000002905D0481CC1D0013961640029BDD1A1
:10467000514600290CD00821604688430100484675
:104680002154934218DD216C9B1A5B1A6363BEE7C9
:104690002100404600F0CCFAFFF7BEFD2369002B55
:1046A00001D0200098476369002B01D02000984773
:1046B000200001F0DFFB25E7236C5B426363A6E784
:1046C000400D002010B50020FFF7CAFE10BDC04607
:1046D000F8B51F4C6021200000F072FA250000227E
:1046E00021211C4800F0D4FCAC26A8230127B03DB2
:1046F000A8512000EF5400F0C3FAAC5900280ED0A6
:10470000002C08D1AA242B5D002B19D0A82200214F
:10471000114B9952F8BD200000F0F0FCF6E7002C98
:1047200003D0200000F0E4FCF0E7AA26AB5D002BEC
:10473000ECD000220020094904F066FAAC55E5E708
:1047400000220020054904F037FA2F55DEE7C04665
:10475000F00D002061440010400D0020C5460010FF
:1047600010B50421014800F02BFA10BD500F0020B5
:1047700070B504000D001600002823D0002922D0B7
:10478000002A21D0002313600B600378413B192BD2
:104790001BD8437800203A2B13D1A07802220021A5
:1047A0002D280CD131E0402A0FD08B005B185B0024
:1047B0001918531CE05C30392D2808D01A00002845
:1047C000F1D170BDFEE7FEE7FEE70020F9E7402BE0
:1047D000FBD00800931CE15C2E2913D0E3180022C3
:1047E00040340DE0A3420DD091008918490031609A
:1047F0001A780133303A5218326019782E2901D0D4
:104800000029EFD128600120DBE70020373BE2E7F9
:10481000F0B54646D6464F468046C0B592460E1E77
:1048200051D00C788946002C30D1324D280000F050
:1048300027FA011E05D148E0280000F029FA011EE0
:1048400043D00F683B78A342F6D1BB68002B03D05E
:1048500038009847002821D03C69002C39D04346C5
:104860005F607B6801331BD0524649463800A04741
:10487000431E03332BD8434618607B68002B11D1AD
:104880000020E0BCBA46B146A846F0BD4B783A3BA2
:104890005A425341CB1801339946C6E70130F0E73D
:1048A00043461B60102001F0D3FA4346986000286D
:1048B00008D07B6801330ED001235B420360DB1814
:1048C0004360DDE7FEE70B20DBE70320D9E70D209F
:1048D000D7E70920D5E70100021D0C313000FFF7B2
:1048E00047FF0028F3D0434600229B681A609A6075
:1048F000C6E7C046500F002070B50400406800288D
:104900001DD04369002B1CD02168984763680500BF
:104910005B68002B0DD0A06800280AD0013306D0B8
:10492000C368002B03D0180001F0A4FAA06801F0BE
:10493000A1FA002323606360A360280070BD0B25EB
:10494000FBE70925F9E7C046F0B5454657464E4610
:10495000DE46E0B58846060092461D0087B0002B73
:1049600001D000232B607068002800D17DE04768EB
:104970008469002F16D1002C00D174E004AB31689B
:104980000497009342465346A0470700002D01D0EC
:10499000049B2B60380007B0F0BCBB46B246A9466A
:1049A000A046F0BD002C5ED0036A9C46002B5AD076
:1049B00000230493B3689A68DC6819689146A3469B
:1049C0008A4218D200234A463168E04757454ED202
:1049D000706804AB31680093876953464246B84714
:1049E0000700002FD2D1049B9A46B2680027936833
:1049F00053449360CAE75B689A42E3D8981A01333C
:104A0000421C591A9146891A7B1C51D0D14553D268
:104A10004A464046594400F027FDB36870685A681A
:104A2000036A31681C0001320023A04700234C4672
:104A300005935346424670681B1B81691219039304
:104A40001C0005AB0291904631680093A74247D203
:104A50002300029CA0470700059B4B44534500D907
:104A600053460493BDE7092794E70B2792E75B467B
:104A7000002B29D000237068059305AB31680093A3
:104A800083695A461C003B00A04707004846B268AD
:104A9000106005994B1E1B18536052468A4205D878
:104AA00059464046049200F0DFFC9AE70A00F7E717
:104AB000924501D98246A9E752464046594400F042
:104AC000D3FC5346049390E7B36838001C0001F010
:104AD000B5F9B368E060DB689B46002BCAD1FEE7FE
:104AE0003B005A46029CA047B26807005368013356
:104AF00013600599481EC3185360039B8B4200D96D
:104B00000B001B04594640461A0C00F0ADFCA3E70D
:104B100030B50400406883B0002823D04368056A9C
:104B2000002B0ED0002D1BD0436A002B18D0012A79
:104B300010D0022A18D0002A01D1A3689960002061
:104B400006E0002D0CD0246813000A002100A847BD
:104B500003B030BDA268002093685B189360F7E74C
:104B60000920F5E70B20F3E723680A009C4602239F
:104B70006146A8470028EBD160682168436A01AA12
:104B800098470028E4D1A368019A9A60E0E7C046FC
:104B900010B5040000F08EFD002807D10CE02F2B8B
:104BA0000AD05C2B08D00138002805D0235C2E2BBE
:104BB000F5D10130201800E0004810BD74840310C6
:104BC00000234360836003310333994301607047DE
:104BD00010B504000068083001F030F900280CD04E
:104BE00000222368C2506268C1184A60002A00D0BF
:104BF000D050A3686060002B00D010BDA060FCE71F
:104C000010B504000068083001F018F900280CD035
:104C100000232268111D4350A3688350002B00D04D
:104C200058506368A060002B00D010BD6060FCE7A6
:104C300010B500280FD04268036891420CD08468F8
:104C4000CA58A14210D0181D0958002A00D011508E
:104C5000002900D0CA5010BDC9184A684260002A15
:104C600009D00021D150F6E78260002A05D0D21881
:104C700000235360EFE78260EDE74260EBE7C04658
:104C8000002800D040687047002800D08068704736
:104C90000368C918486870470368C8587047C04619
:104CA000F0B5C64600B5914224D0002A25D003684D
:104CB000D458A446A1421DD04468A14227D084689C
:104CC000A1422CD0CC581D1D271E4E5900D0665134
:104CD000002E00D0F7506446002C35D065461C1DD0
:104CE0002600295100293BD06446CC50002A3BD0F5
:104CF000D1508A5180BCB846F0BD002848D08368A6
:104D00009C469942F6D044680368A142DAD1CC1897
:104D100064684460002C2ED00025E550DBE7CC58B9
:104D20008460002C29D0A046984444460025656044
:104D30006446002C25D065461C1D260029510029FB
:104D4000D2D10021D150D5E7002925D0CC501C1D4F
:104D5000A446002A0BD0D1506346CA504160C9E72F
:104D6000002AEED18260C5E78A518160C2E70A510C
:104D700081604160BEE78460ADE744606446002C1A
:104D8000D9D100290AD06446CC501C1DA446E2E7C4
:104D90000029AFD00368FFDE002AE9D00024D450F8
:104DA0004160A7E7F8B5051E27D04068002824D049
:104DB000010000260DE0AF68C158B84215D00029A7
:104DC00000D08C50002C1DD0E15001F053F8200091
:104DD00069682B681A1D84588842ECD16C60002CDD
:104DE0000CD0E65001F046F8F1E7A96000290CD09C
:104DF0008E5001F03FF8002CE9D1F8BDAC6001F015
:104E000039F8FAE701F036F8F7E76960F1E7C046EC
:104E100000280EDA03006933FF3318B21B04F9D4FB
:104E2000592812DC1A4B4000C05A1A4B98422AD01B
:104E30007047B42252009042F2DB6938FF3883B2E7
:104E400000B29342F9D25928ECDD03005A3B9BB2E1
:104E5000592B06D8B4231B1A0D4A9BB25B00985AF3
:104E6000E3E70300B43B9BB2094A592B06D85B0029
:104E7000985A084B984209D04042D9E7B4235B00C6
:104E80001B1A9BB2F3E780200002D1E70248CFE76C
:104E9000E4870310FF7F00000080FFFF802370B5D0
:104EA0005B020400984225D380235B04984234D3EC
:104EB00080235B0598423DD28023DB0498425DD37A
:104EC0003D4B020D9B5C9B011D0019002000FCF76F
:104ED000F5F96B1CC01843081D0019002000FCF7F1
:104EE000EDF96B1CC018400803004343A34206DDE4
:104EF000013804E0FF2803D82F4B185C000970BD6F
:104F000080235B01984221D38023DB01984240D368
:104F1000294B020A985C0130E6E780235B03984244
:104F20001ED38023DB0398423ED3234B020C985CB4
:104F30000301D1E78023DB0598421AD31F4B984227
:104F400037D81D4B020E9B5C1B02BDE78023DB00A4
:104F5000984218D3184B0209985C80080130C3E7C7
:104F60008023DB0298421AD3134B020B985C830018
:104F7000B2E7114B820D9B5CDB01A5E70E4B820C67
:104F80009B5C5B01A0E70C4B8208985CC008013079
:104F9000AAE7094B8209985C40080130A4E7064B58
:104FA000820A985C430097E7034B820B985CC3002E
:104FB00092E70348A3E7C046E48603100000FEFF23
:104FC000FFFF0000014BD8667047C046400D00202F
:104FD0005A3003B202040ED56933FF3318001BB2F6
:104FE0000204F9D4592B12DC1A4A5B00985A1A4B66
:104FF00098422AD07047B42252009342F2DB693BB8
:10500000FF3B98B21BB29042F9D2592BECDD030062
:105010005A3B9BB2592B06D8B4231B1A0D4A9BB29C
:105020005B00985AE3E70300B43B9BB2094A592B53
:1050300006D85B00985A084B984209D04042D9E7FD
:10504000B4235B001B1A9BB2F3E780200002D1E778
:105050000248CFE7E4870310FF7F00000080FFFFD6
:1050600010B50A4C1C212000FFF7AAFD01222300E5
:105070000021783B22738732995018329A58002ABF
:1050800002D0A4315858904710BDC046B80D00203A
:10509000F0B5C646154D060000B528000F00904635
:1050A000FFF796FD041E20D00123866000265B4298
:1050B00003610760466100F001FF43460122E3609F
:1050C000237E60601343237601222B00EA73783B32
:1050D00087329E5018329A58002A02D0A42158587C
:1050E0009047200080BCB846F0BDFEE7B80D002018
:1050F000002802D0012343617047FEE710B5002865
:105100000CD000228821064B42615A50A0329A5896
:10511000002A02D01C315858904710BDFEE7C04607
:10512000400D002010B5024814F050FF10BDC046DD
:10513000680F002070B50F4CFC25200014F046FFCE
:105140008021260049020C4800F044FCF13E143452
:10515000FF3E6D00042170512000FFF731FD20005B
:10516000FFF74EFD041E04D0705900F0C7FC20600C
:1051700070BDFEE7300F00203011002070B5050033
:10518000104C200014F03AFF26002900A06800F01F
:10519000BBFCF13E0500FF3E00280CD000F012FCE5
:1051A000FE235B00F258801880229200F050B35822
:1051B000834205D3B350200014F040FF280070BD97
:1051C0000300F7E7300F0020F0B5C6460600184C84
:1051D00000B520000F0014F011FF300000F0F2FBCA
:1051E0002500310080463A00A06800F09DFDF13DA9
:1051F0000600FF3D002811D0FE2743467F00E859F6
:10520000C01AE851300000F0DDFB8022EB5992001B
:10521000C018AB58E851834207D3AB50200014F0BC
:105220000DFF300080BCB846F0BD0300F5E7C04676
:10523000300F0020F8B505000F4C200014F0DEFE02
:10524000280000F0BFFB270006002900A06800F03E
:10525000E3FCFE23F13F5B00FF3FFA580023B2421C
:1052600000D9931BFE22054852008350F130FF30D5
:1052700014F0E4FEF8BDC046300F0020400D0020C1
:105280000323F0B557464E46DE4645461C00E0B5C2
:10529000044007000E0087B00B409C4260D0202ADB
:1052A00050D91500213D6D096C1C64010C190B7857
:1052B00003704B7843708B788370CB78C3700B7915
:1052C00003714B7943718B798371CB79C3710B7AFD
:1052D00003724B7A43728B7A8372CB7AC3720B7BE5
:1052E00003734B7B43738B7B8373CB7BC3730B7CCD
:1052F00003744B7C43748B7C8374CB7CC3740B7DB5
:1053000003754B7D43758B7D8375CB7DC3750B7E9C
:1053100003764B7E43768B7E8376CB7EC3760B7F84
:1053200003774B7F43778B7F8377CB7F2031C377A6
:105330002030A142BBD16D01203A78197119521B5E
:10534000203020318A180B780131037001309142EE
:10535000F9D107B0F0BCBB46B246A946A046F0BDA5
:10536000002C48D1202A3CD903000B435B0756D1BF
:1053700003001F335B1A3E2B51D91300213B5C09FC
:105380000134A346002488468446A1460390049134
:10539000059343469868D9681C685D680090019140
:1053A0001E695F699869D96963461C605D60009CED
:1053B000019D1E615F619C60DD609861D961012380
:1053C00099441F3398449C44D945E2D303980499E7
:1053D000059B5B095B01203AC018C918D21A20301E
:1053E0002031002AB5D08A180B78013103700130C2
:1053F0008A42F9D1ADE7002AABD00B780370032CB9
:105400002ED0012AA5D04B784370012C24D1022A3A
:105410009FD08B78033A837003310330A2E71300E7
:1054200005000C00213B5F0901377F01CF19266879
:105430002E6066686E60A668AE60E668EE602669FB
:105440002E6166696E61A669AE61E6692034EE611F
:105450002035A742EBD1BCE702300231023A81E7A6
:1054600001300131013A7DE710B504000F2A03D95C
:10547000FFF706FF200010BD002AFBD00B78037059
:10548000012AF7D04B784370022AF3D08B788370CF
:10549000032AEFD0CB78C370042AEBD00B790371C9
:1054A000052AE7D04B794371062AE3D08B798371C3
:1054B000072ADFD0CB79C371082ADBD00B7A0372BD
:1054C000092AD7D04B7A43720A2AD3D08B7A8372B7
:1054D0000B2ACFD0CB7AC3720C2ACBD00B7B0373B1
:1054E0000D2AC7D04B7B43730E2AC3D08B7B8373AB
:1054F000C0E7C046032370B516001A00050002403D
:1055000018420ED0002E37D00170032A47D0012E4A
:1055100032D04170012A45D1022E2DD0A970033E10
:105520000335202E22D90B020A045B189B180A06A9
:105530009B183200213A1F2A1FD968071DD1520932
:105540009446541C00202A0001301360536093607D
:10555000D360136153619361D36120328442F3D8E5
:1055600063465B012035F61AED18203E002E03D06D
:1055700032002800FBF7A2FF70BD5209501C944670
:105580002A0040012818136053609360D3601361B0
:1055900053619361D36120328242F4D1E0E7013557
:1055A000013EBEE70235023EBBE7C04670B50400CF
:1055B000884234D38B18984231D8531E884227D85A
:1055C000002A23D0062B00D86CE008002043800777
:1055D00068D1601A0138022864D900209508AD000E
:1055E0000E5826500430A842FAD182420ED01A1A20
:1055F0000D18095C944622181170834206D06B780E
:1056000053706346012B01D0AB789370200070BDBE
:10561000002AFBD0CA5CE254013BFBD2F6E70F2A1A
:1056200003D92000FFF72CFEF0E7002AEED00B781C
:105630002370012AEAD04B786370022AE6D08B7877
:10564000A370032AE2D0CB78E370042ADED00B7972
:105650002371052ADAD04B796371062AD6D08B796B
:10566000A371072AD2D0CB79E371082ACED00B7A66
:105670002372092ACAD04B7A63720A2AC6D08B7A5F
:10568000A3720B2AC2D0CB7AE3720C2ABED00B7B5A
:1056900023730D2ABAD04B7B63730E2AB6D08B7B53
:1056A000A373B3E70023C85CE05401339A42FAD1F4
:1056B000ACE7C04610B50378002B04D0013032F0BF
:1056C00017FD013010BD0020FCE7C0460378002B19
:1056D00005D10BE043780130002B05D001310A7869
:1056E0009A42F7D0981A70474A78FBE70A78F9E7A8
:1056F00070B503780600002B4BD0013032F0F8FC77
:10570000851C280000F09AFB041E40D00F2D05D9FF
:105710002A003100FFF7B4FD200070BD337803701C
:1057200073784370022DF7D0B3788370032DF3D0D4
:10573000F378C370042DEFD033790371052DEBD0CE
:1057400073794371062DE7D0B3798371072DE3D0C8
:10575000F379C371082DDFD0337A0372092DDBD0C2
:10576000737A43720A2DD7D0B37A83720B2DD3D0BC
:10577000F37AC3720C2DCFD0337B03730D2DCBD0B6
:10578000737B43730E2DC7D0B37B8373C4E70024B0
:10579000C2E7012000F052FB041EF8D033780370FA
:1057A000BAE7C046431870B51A1D1C00C646944699
:1057B00003220F330C3400B593439C4200D0FEE724
:1057C000436893435D1AA84688442E1F984500D02D
:1057D000FEE7634665465B68134033436B60934363
:1057E0000B2B07D9436813400B4343606B68032BB3
:1057F00001D8FEE7FEE7022193431B191A68043B18
:105800000A435A6001221D606B68604613436B6057
:1058100040BCB04670BDC046032370B54C6806005E
:105820000D009C437F2C15D80022A41053011B1996
:105830009B00F318D96B00290BD0A960EE60CD60F6
:10584000290003200B3181432800083088420CD006
:10585000FEE7FEE72000FBF7FDFC1A231B1ADC40E5
:1058600019222023121A5C40E0E7DD6301231800AF
:105870009040A3403169920001433161B6187269CA
:105880001343736170BDC046F8B54B6806000C0049
:10589000D90718D50320190081430530844610002C
:1058A000A4441030674681420FD2032B0CD93B1F12
:1058B0005B1802215A6838008A435A6001226368E3
:1058C00093436360F8BDFEE7FEE711002000FFF799
:1058D00069FF6368032B10D903250222AB43FB1831
:1058E000043B1C6043680100134343603000FFF732
:1058F00093FF63681900A943D7E7FEE7F0B5464672
:10590000D6464F464C68C0B50D000600032C0BD997
:10591000082303229C4623008C4493436344E146BE
:105920001F1F042B01D1FEE7FEE77B68D90705D4D2
:105930002800E0BCBA46B146A846F0BD93439A465B
:105940007F2B29D91800FBF785FC1A2351461B1A17
:10595000D9402023192259408846121AFB68002B8F
:1059600017D0B868002815D0C3609860530143442D
:105970009B00F318D96BB94212D0043454446C60C4
:10598000032C08D903239C434B461B19043B1D6081
:10599000CEE7FEE7FEE7FEE79B1098460022DDE734
:1059A000D863B042E9D1012341461F008F409000E7
:1059B00030184169B9434161DFD1934032699A435C
:1059C0003261DAE7002803D003230838406898439F
:1059D0007047C0460323F0B51A004646D6464F46E8
:1059E00004008846C0B50240184200D079E0026148
:1059F00000218060C06028221430FBF75FFD20008A
:105A000020230021012699463C3030E001239A46AC
:105A100004604D464A01D3190F339B00E318EF1B76
:105A20001C605C609C60DC601C615C619C61DC6192
:105A30001C625C629C62DC621C635C639C63DC6372
:105A40001C645C649C64DC641C655C659C65DC6552
:105A50001C665C669C66DC661C675C677D08102DB6
:105A60000DD101319C67DC6780300A2911D03700E5
:105A700083081F401E42C9D100239A46C9E713007C
:105A800053442C339B00E31801315C6080300A29B9
:105A9000EDD1174BE6180325164A174B4244AA438B
:105AA00011000C39994216D83368371F2B40134325
:105AB000022293439046013A13437B603900200051
:105AC000FFF7AAFE7B68032B00D8FEE74246AB43F4
:105AD000F3181F605A602000E0BCBA46B146A846E1
