:020000041000EA
:1000000000B5324B212058609868022188439860DF
:10001000D860186158612E4B002199600221596106
:100020000121F02299502B49196001219960352056
:1000300000F044F80222904214D00621196600F024
:1000400034F8196E01211966002018661A6600F04E
:100050002CF8196E196E196E052000F02FF8012189
:100060000842F9D1002199601B49196000215960AB
:100070001A491B48016001219960EB211966A021F2
:10008000196600F012F800219960164914480160C1
:100090000121996001BC002800D000471248134993
:1000A000086003C880F30888084703B5996A0420EC
:1000B0000142FBD001200142F8D103BD02B5186610
:1000C0001866FFF7F2FF186E186E02BD00000240BE
:1000D000000000180000070000035F00212200005C
:1000E000F4000018222000A00001001008ED00E03C
:1000F00000000000000000000000000074B24E7A12
:1001000000200420F7010010CB010010CD010010E9
:10011000C9010010C9010010C9010010C901001077
:10012000C9010010C9010010C9010010ED5D0010E7
:10013000C9010010C9010010815D0010655E00104A
:10014000C1010010C1010010C1010010C101001067
:10015000C1010010C1010010C1010010C101001057
:10016000C1010010C1010010C1010010C101001047
:10017000C1010010C1010010C1010010C101001037
:10018000C1010010C1010010C1010010C101001027
:10019000C1010010C1010010C1010010C101001017
:1001A000C1010010C1010010C1010010C101001007
:1001B000C1010010C1010010C1010010C1010010F7
:1001C000EFF30580103800BE00BE00BE00BE00BECA
:1001D00000BE00BEF2EB88713CFB06105CFB061013
:1001E0003802001090A31AE700201E49086006C8D4
:1001F00081F3088810471C480068002801D00020BF
:10020000F3E70DA40ECC002902D000F012F8F9E7B4
:100210001649174A002000E001C19142FCD115495E
:100220008847154988471549884700BEFDE701C939
:1002300001C29A42FBD370475CFB0610C00000204D
:10024000C80A0020640507100000042000000420F4
:1002500064050710001004200010042000000000B6
:100260007047000008ED00E0000000D0C80A002040
:1002700054240120013E001071040010F93D0010CB
:1002800030B594460C00E368A2686446050008880F
:1002900089880133013283B05B1A121A9BB292B281
:1002A000009404F043FB28000FF098FB03B030BD2E
:1002B00070B501F01BFA02000B0014001D00094983
:1002C0008C4603C9241A8D412000291E02D1064CF8
:1002D000A04206D9054C03C461460CC10122044B5F
:1002E0001A7070BD480C002070170000500C0020E0
:1002F00051240120F0B54746CE46294B80B598469B
:10030000002300259946274C274E284F83B00AE04A
:10031000002200232260636043464A4600251A609B
:10032000142004F043FF01F0E1F922686368801AA9
:100330009941002902D11E4B984203D92268636873
:100340001A43E5D13378002BEAD04B4633703A6834
:100350007B681A43E4D03A687B681649281C0092EF
:10036000019302F080F8009A019B051C00211248BD
:1003700001F006FD02F0ACF8104902F074F8291CF7
:1003800002F05AF80E49051C02F09CF8002800D033
:100390000B4D281C02F0BEF843461860C0E7C0466B
:1003A000801F0020480C002051240120500C002008
:1003B00060E316003333333F008793039A99993EE5
:1003C00000E0AB45F0B5D6464F464646C0B584B0D2
:1003D00001F08CF9214B06009846214B0F009A46FC
:1003E000204B00259946204C2EE0204B984231D8D6
:1003F000002D21D04346FA2118684B464901584345
:1004000001F058FC6930FF304346050052461B6836
:100410001021684603F0A6FC2900A06820F058FBD4
:100420002900206926F054FC6946E06928F0D6FCD2
:10043000E06909F09BF8012505201FF0B7FD19F0D0
:1004400051FF052004F0B2FE01F050F9801BB941C4
:100450000029CAD002205EF00FF8CBE7801F0020F1
:1004600090EE05107C0B0000A80D0020BFC62D00EB
:1004700010B582B003F0A4FD022004F091F8022030
:1004800003F096FF15F068F9A02180200FF08EF898
:100490001E4904000FF08AFA0023009380230022F3
:1004A0001B495B0120000FF0E5F95DF0FFFF0E2016
:1004B00000F03EFAD02380221B06D2019A6201216D
:1004C00000220E2000F0ACF9012204210E20114B75
:1004D00000F0B8F9104B8022019301230F490093DB
:1004E000520100230E4804F0E9FC0E4B80220193D8
:1004F00002230D490093D20000230C4804F0DEFCD7
:1005000004F04EFD0A4800F031FAC04681020010A6
:10051000740F0020B1020010CC21002094EE0510D1
:10052000C503001064220020A0EE0510F5020010A3
:10053000ACEE0510D023F0B5DE464E464546574694
:100540001B061A68E0B5A64B91008846595853001F
:100550009B18A44A1B0183B09B189B46002601915F
:10056000002939D0A04B0F279A465A46F308083382
:100570009B009D580123340099460836002D22D057
:10058000390029402D0900291AD0534642469A586D
:100590002300E240203BDB1713404A4613420DD1B3
:1005A000072208002240920090400200E3088F4892
:1005B0003C339B001A502000019B9847002D02D02D
:1005C0000134B442DCD3202ECFD103B0F0BCBB4603
:1005D000B246A946A046F0BD0F23834A0192CC083B
:1005E000220058460F000832920012580837002A9D
:1005F00000D1CDE0180010408446100913421AD0F3
:100600004546019E7559AA4620256D42A946894452
:100610004D46ED17A9465546CD402E004D46354076
:100620000126354204D16646704D3C34A400665123
:10063000002800D1ACE01C000440A446140A034288
:1006400019D0481C81464046019D4E462858050059
:100650000800F5401F38C01728400125284207D15F
:1006600065462D01F0082E003C30604D800046515B
:10067000002C00D18CE0180020408446100B23424F
:1006800011D08C1CA1464446019D4E462C59250094
:100690000C00F5401E3CE4172C4001252C4200D1F3
:1006A00081E0002874D01C000440A446140C0342CE
:1006B00010D0C81C81464046019D4E462858050072
:1006C0000800F5401D38C01728400125284273D086
:1006D000002C5DD0180020408146100D23420ED022
:1006E0000C1DA4464546404C64596546EC40250027
:1006F0000C001C3CE40F2C4267D0002848D01C00A2
:100700000440A446140E034217D0481D81464546B6
:10071000354840594D46E840050008001B38C00FD9
:10072000284208D1654648462D052E00C0082F4DA9
:100730003C3080004651002C2AD0180020408446CE
:10074000120F234229D0454627488C1D8246405926
:10075000E040050008001A38C00F284206D1E00822
:100760006446224D3C302406800044510731002A63
:100770000ED05046444604590800CC402038C00FE3
:10078000204205D1C90819483C31120789000A5096
:10079000202F00D119E7390021E7002AF8D01248AC
:1007A00007318246E5E765462D02F4082E003C3409
:1007B0000E4DA400665174E765462D03F0082E0027
:1007C0003C300A4D8000465182E74D4664462D0478
:1007D0002E00E408054D3C34A40066518DE7C04668
:1007E000400F0020004101405C22002000400140F9
:1007F00010B54024074A83009A181268C00054407C
:10080000C0222240044C1B191A60044BC0184160DE
:1008100010BDC04604C0014004D00140004001406A
:10082000064B8000C3181B68C90092000A435A4057
:100830000C231340024A80180360704704C0014033
:1008400004D00140F0B5C40846469846A3004F4680
:10085000994607230340D0259B00D64699402D0694
:10086000C0B517000E002A68002F1AD12B4B3C345C
:10087000A400E15053009B181B01294A4B449B18CC
:1008800019602C68274FA4003B59002B25D0434604
:10089000002B38D043463B51E0BCBA46B146A8468F
:1008A000F0BD204F93009A46FB58002B1FD04346C3
:1008B000002B2DD053464146F950184B3C34A40030
:1008C000E65053009B181B01174A4B449B1801210B
:1008D0000D201E6000F0CEF8DEE74346002BDBD093
:1008E00000220D2011493B5100F000F9D4E74346A6
:1008F000002BE2D052460D20BB500C49002200F0E4
:10090000F5F82A68D9E70D20084900F0CBF9C1E7CE
:100910000D20064900F0C6F92A68CBE700400140E7
:1009200000710140400F00200061014035050010BA
:100930000123D0228340120693629361084A830008
:100940009A1811684022514080320A400549C0007F
:100950005B181A60044BC018052343607047C046FB
:1009600004C0014004D00140004001400FB400B574
:10097000084883B003F070FB049B002B07D005A947
:100980001800019103F002FA034803F065FB01200F
:1009900003F014FAC8EE0510C4EE051010B50148B6
:1009A000FFF7E4FFD8EE051070B58C461600EFF3A4
:1009B000108472B60F490B68002BFCD0BFF35F8F19
:1009C0006346DB08C5180722C05C63461A40012352
:1009D00093401A000240034207D118432870BFF326
:1009E0005F8F0A6084F3108870BD61463000FFF7A6
:1009F000BDFFC0462C0100D0044A1078431CDBB276
:100A0000172B00D9102313707047C046A003002095
:100A10000021044B044ABFF35F8F02C39342FAD113
:100A20007047C046000100D0800100D0084B094A41
:100A30001360094A1360094A1360094A1360094A9E
:100A40001360094A1360094A1360094A136070472A
:100A50008080808000E400E004E400E008E400E03E
:100A60000CE400E010E400E014E400E018E400E02E
:100A70001CE400E01F2318401E3B8340002905D0E2
:100A8000C021044A49005350136070478022014935
:100A90008B50FAE700E100E010B5EFF3108C72B66E
:100AA0000F4A1368002BFCD0BFF35F8F0D4B103043
:100AB0009B6880001B580C4A934201D099420CD18C
:100AC000084B9B681950BFF35F8FBFF35F8F002205
:100AD000034B1A608CF3108810BD00F0B5FFC046C0
:100AE000240100D000ED00E0C1010010F0B5DE46A9
:100AF00057464E464546E0B58B4685B0EFF3108825
:100B000072B616005B4A1368002BFCD0B246BFF3E6
:100B10005F8F002558494D57002D00DAA8E06B0083
:100B2000564A01935B199B00D418A77910300F70B7
:100B300053498000896884460F58B91A2F2933D841
:100B4000012039008143CE79564500D86AE0A1469C
:100B50005646039307E05800C01880001018C47967
:100B6000B4424DD901000623CB56002BF3DA081D01
:100B70004C46B24681460293424B4E46043CA41B6F
:100B80002405414E640D34438C808D7101994919BF
:100B9000890052189380029B3C4993715346D3714C
:100BA0005B461160936017E039498F4260D1394943
:100BB0000127D15238490233D3180439CB1A324AAB
:100BC0001B055B0D13436380344BE671A380FF2349
:100BD000A3715B462743A3606246294B9B689F50E5
:100BE000BFF35F8FBFF35F8F0022224B1A6088F341
:100BF000108805B0F0BCBB46B246A946A046F0BD81
:100C0000B2460E1D4C46B14688880293039B4005B0
:100C1000001504334844D318C31A1B051A485B0D4A
:100C20000343AAE79E1CB14691444E460F001C4D5B
:100C3000BF1A7F417D432D0D164FA571D752164F18
:100C40000433043FD318BF1BCB1A3F05043B7E0D72
:100C50001B050D4F5B0D3E431F435346E3715B463F
:100C6000A3600A4BA7806680044327000B60B3E7AC
:100C700000F0EAFE240100D050240120A40300204B
:100C800000ED00E001BD000000E0FFFF01488047EB
:100C9000C101001000A1FFFFD403002001BDFFFF30
:100CA000AAAA0000F0B5DE4657464E464546E0B5D6
:100CB00083B0EFF3108972B65D4A1368002BFCD045
:100CC000BFF35F8F5B4B5C4E9A68030010339C0050
:100CD00012599846B2423BD08A424CD0574FBC463C
:100CE000D71B2F2F34D8564B1F271D680740AA4605
:100CF0000125BD4080270195DD51BFF35F8FEFF3E4
:100D00000585AB46002D38D101231D008540280004
:100D100055460540100098438768AA46B94208D155
:100D20007CE073009B199B0063449F68B9422DD0FF
:100D3000180006268657002EF3DAB9424CD05346E7
:100D4000002B1ED0C0213E4B01984900585018601E
:100D5000384B9B681A51BFF35F8FBFF35F8F002240
:100D6000334B1A6089F3108803B0F0BCBB46B2461F
:100D7000A946A046F0BD3200EAE7A845C4D000F07D
:100D800063FE80232E490198C850E1E70627DF570C
:100D9000002F22DB7900C81985002E006644B06858
:100DA0009860F079D871062030569871002826DBBB
:100DB0006046B688C01A7605361576198019000582
:100DC000204E400D30439880CB191F499B00087876
:100DD000634498710F70B2E703005946002910D19F
:100DE000FF318171194981801748654601789971F1
:100DF00017495B1B5B415943090D01709FE713487D
:100E0000E1E714491448C91A08394E02760D3043F7
:100E10009880124849080143D98090E70627C757B0
:100E20000300002FB6DA59460029EAD13200DBE789
:100E3000240100D000ED00E0C1010010A403002057
:100E400000E100E000E0FFFF5024012001BDFFFFB2
:100E5000AAAA0000DE03002000F0FFFF00F8FFFF59
:100E60000123034370B59C46EFF30581EFF3108532
:100E700072B6214A1368002BFCD0BFF35F8F1F4B63
:100E800004001F4AE41A64416243120D1D4C89009C
:100E9000A66852B2765866451CD006215956914232
:100EA0001CD012215956914222D01E2159569142EE
:100EB00020D02A2159560324914210D0124B197880
:100EC0001A708171BFF35F8F00220B4B1A6085F39C
:100ED000108870BDA3680D4C5C50EFE700246100E2
:100EE000091989005B18FF21997109499980E5E783
:100EF0000124F4E70224F2E7240100D0A403002037
:100F0000AAAA000000ED00E050240120C101001059
:100F100001BDFFFF024BC918890001607047C04640
:100F20004000003470B5114C114DAC420FD2FF2679
:100F30002368002B0CD0FFF75FFD01002000FFF7B6
:100F4000E9FFA680BFF35F8F0834AC42F0D370BDD9
:100F5000FFF752FD01002000FFF7DCFF2671BFF311
:100F60005F8F0834AC42E3D3F1E7C046C00A0020EB
:100F7000C80A00200A4B1968EFF3108072B60A689D
:100F8000002AFCD0BFF35F8F1B68BFF35F8F002286
:100F90001A6080F3108840BF002000217047C046CF
:100FA0006C230020F0B5DE4657464E464546E0B578
:100FB00085B0EFF3058303221A40B34B91005F58CD
:100FC000012393409B4602925A468846AF4B1A60D3
:100FD000AF4B03935B46AF4843630823FE5E002E8E
:100FE00037DABB881BB2002B00DBA4E0BB79002BF7
:100FF00000D0E5E00823F95E002920DB4B007A6988
:101000005B18DB00D3189D68DC686B1C00D104E121
:10101000A04801004144826A0B69AE1A9B1A9E42A5
:1010200015D30123026A029883401A420FD09948CF
:1010300000F054FB8C4202DCCCD18542CAD940BFBF
:1010400005B0F0BCBB46B246A946A046F0BD0D6156
:10105000EDE77A69730091469B19DB0099444B4692
:101060009C68DD6800F03AFB8D42BADC00D1F6E006
:10107000002D00DADBE04A464B4652691B69924676
:10108000039A934200D1CCE04A460821785E528808
:101090000004514610439847009001910099019A2D
:1010A0000B00134300D1C2E013000A00002B00DB49
:1010B000D9E020002900801A99414B469860D960F8
:1010C00000229B5E002B00DA8BE75D007C69EA184A
:1010D000D200A21800949468D268A2468A4200DD29
:1010E0007FE702D1844200D97BE70824A4463B81F4
:1010F000BC44009C00972F006546B4463E0006E0C5
:101100005E00F218D200A2189768D268BA468A42E6
:1011100007DC00D1B4E0F318DB00E518E35E002B38
:10112000EEDA66464A46009F13802E80BB881BB2CB
:10113000002B00DA5AE73A69EFF3108172B61368B0
:10114000002BFCD0BFF35F8F0123BE885B42BB80C6
:1011500036B23B69BFF35F8F00221A6081F31088BB
:10116000002E00DA42E73B0008333A0099467D69D9
:1011700073009B190824115FDB004846EB18002917
:1011800013DB9C680093A446DC6806E0A34240D0D1
:101190000023F95E3800002906DB4F007F18FF00AE
:1011A000EF19FB68A342F1DD009B068000201E5E64
:1011B0001980002EDCDA1700BB79002B00D119E76B
:1011C0000023BB710823F95E4B1C00D137E73D00BB
:1011D0000835AC467C6903E084464B1C00D109E726
:1011E0004B005B18DB00E0180A00E15E43881BB28D
:1011F000002BF1DA01256D42EE178560C6600825E7
:101200007B5F9342E9D0634619803B8903803A8132
:10121000E3E7BB686345BBD9C6E7631C00D0F7E6CC
:1012200005E7534650461B699847002823D14B4693
:101230001B883A693B81EFF3108372B6116800296D
:10124000FCD0BFF35F8F49467A880A803A697E8076
:10125000BFF35F8F0021116083F31088C1E68442E1
:1012600000D805E7BDE60B4800F038FA009B019C6A
:10127000C018614121E753460CCB009201930DE762
:10128000824500D847E74CE7D02100203C7005405C
:10129000A50F00100040054070B52D4C2569002DAC
:1012A00004D00A212B48FFF735FE70BD2A4E0321DA
:1012B000294800F009FAE660FFF79EFB274B03225E
:1012C000C018D02322701B061B6801216370244BB9
:1012D0008000A3600F23206102206380636949427C
:1012E000A18019800231198647311D835852183167
:1012F0005A5275325C39995218320131995218326A
:1013000001319952183201319952083518329D52E3
:101310000231183299521832013199521832013182
:1013200099521832013199521832013199521832BA
:10133000013199520B4B0C49DC6001303562FFF7EB
:10134000ABFB01210320FFF795FB084B1D60A8E7CD
:10135000F80300206C2300200040054040000034CA
:10136000FFFF1000D0210020A50F001038600540BD
:1013700070B582B00092019301000269EFF310840E
:1013800072B61368002BFCD0BFF35F8F0223C85ED8
:101390000D6900283FDB4A69430016001B18DB007B
:1013A000D218F35A4B80BFF35F8F00232B6084F376
:1013B0001088069B1361079B5361009B019C9360FF
:1013C000D460538801335B045B0C1D1C002B20D0C0
:1013D000ACB20304558023430D69EFF3108C72B651
:1013E0002C68002CFCD0BFF35F8F8C881480888021
:1013F0000A69BFF35F8F002010608CF310880A78B1
:1014000001309040CA68084952181060180002B0B4
:1014100070BD0125DCE7BFF35F8F00232B6084F3F1
:101420001088013BF2E7C0463C20000010B543891C
:101430000A1493421ADD53009B184269DB00D3184B
:101440000469EFF3108C72B62268002AFCD0BFF357
:101450005F8F5A88090494B2090C8A4208D0036944
:10146000BFF35F8F00221A608CF31088002010BD3C
:10147000094A22435A80012302698371BFF35F8FB7
:10148000002111608CF31088027804499340C268EF
:10149000012052181360EAE70080FFFF3C200000A3
:1014A000F0B5C64600B582B0040000F01FF9FA227C
:1014B00006000F00200000230021920000F09CFF96
:1014C0008019794104000D1E02DA01242E4D644278
:1014D00006267642F71736196F41AF4214D811D05D
:1014E00000F004F932003B00121A8B41002B15DC8E
:1014F000002B46D02000290000F002F902B080BC89
:10150000B846F0BDA642EBD90026002700F0EEF861
:1015100032003B00121A8B41002BE9DD00F0E6F8A7
:1015200032003B00121A8B41002B0ADB002301938F
:10153000164B3200009316483B00FFF719FF0130AD
:10154000D8D000233900B0469C46124A1248536A4C
:10155000994204D8966A4645CCD29942CAD10668C7
:10156000EFF3108772B63368002BFCD0BFF35F8FA8
:101570000368BFF35F8F66461E6087F3108820BF45
:10158000E5E7002AB6D0C9E7FFFFFF7F750F00101F
:10159000F8030020004005406C230020F0B5CE4643
:1015A000474680B504000D0085B0EFF305838946FA
:1015B000002B32D1404E336883422AD03F4FFB6824
:1015C0003A7898461800039200F088F8039A131DA1
:1015D00042469B009B5822001B1A9C462B00121A65
:1015E0008B411900002310008B4225DC22D020BF44
:1015F000334B586A48452BD3401B9A6A431E984187
:101600000023A2425B41184305B0C0BCB946B046B6
:10161000F0BD73688B42D1D1E9E7294900204B6ABC
:10162000AB42F1D38A6A5B1B591E8B41A2424041F7
:101630001843E9E78445DAD900F058F822002B0076
:10164000121A8B41002B05DA1D4A536A4B4529D2E9
:101650000020D9E7002301931A4B220000933800A1
:101660002B00FFF785FE0028EEDD154B30C65A6AC9
:101670004A4515D39B6AA34210D301003800FFF7F7
:10168000D5FE0F4A0020536A4B45BDD3926A5B1BBF
:10169000591E8B41A24240411843B5E74A45ECD15F
:1016A00020BFEAE70020926A5B1BA24240415A1E1B
:1016B00093411843A8E7C046F0030020F803002038
:1016C00000400540750F001010B5024A0248FFF7B0
:1016D0006BF910BDE8EE0510480F00200300416AC9
:1016E0000A00986A596A8A42FAD17047034B596ACC
:1016F0000A00986A596A9142FAD170470040054041
:10170000064A536A9942FCD807D1044B02E05A6A50
:10171000914202D19A6A9042F9D870470040054040
:10172000F8B5DE464E4645465746E0B505008B46C1
:1017300018000A99914600F0E5FA0A9B6C001E0217
:101740006419304BA400E418636880469E4200D9B7
:1017500066602F1FFBB29A46012B2FD9C02380222F
:10176000294FAD009B0179591201E3181A60002935
:101770001BD14B4622685B015340E022134080227C
:101780005201A21813605346012B2FD980238022C7
:101790009B01E31812011A60434666607B51F0BC5E
:1017A000BB46B246A946A046F8BD786900F0AAFA41
:1017B000013043001B18033BFDD2DAE75B46012BE7
:1017C000CCD1C02303229B01E3181A60023AA3681C
:1017D0001A42FCD04A46236852015A40E023134083
:1017E00080225201A218084F1360AD00584603230F
:1017F000216841400B40136001228240A3681A42D5
:10180000FCD0C3E7008000404C0F0020F0B5D64666
:101810004F464646440098462418324BA400E4182C
:1018200063688A469146C0B5FF2B02D880235B00CF
:101830006360061FF6B2012E2FD9C02380222A4FE3
:1018400085009B0179591201E3181A6000291BD108
:101850004B4622685B015340E02213408022520134
:10186000A2181360012E30D9802380229B01E31837
:1018700012011A6080235B00636043467B51E0BC29
:10188000BA46B146A846F0BD786900F03BFA01308F
:1018900043001B18033BFDD2DAE75346012BCCD1A2
:1018A000C02303229B01E3181A60023AA3681A427C
:1018B000FCD04A46236852015A40E023134080225C
:1018C0005201A218084F1360850050460323216877
:1018D00041400B40136001228240A3681A42FCD0B1
:1018E000C2E7C046008000404C0F0020014B800042
:1018F000C05870474C0F0020F0B5C646040000B534
:101900002348160098460D0000F0FCF90100300055
:1019100000F0F8F94346069A1B04120313439C4651
:1019200023680600002B22DB1A4B1B48E218531ECB
:101930009A4180235242120B9B011203D218174B7B
:101940001A60174B1A60130001688B43FBD12122E8
:10195000144B2560E318A6601A602268002AFCDA9E
:101960006246E26008221A6080BCB846F0BD3F23A0
:1019700022681340AB42D7D1A3681B051B0D8342DD
:10198000D2D1EE22E368D20213406345CCD1EBE71B
:10199000001BB7000040FDBF08C0004000E0004051
:1019A00000F00040043000008023024A9B000B43FB
:1019B000D362704700800540002310B50100988A6B
:1019C0001B8B984710BDC046162310B50100188820
:1019D0005B88984710BDC046F8B54746CE4680B5EF
:1019E0000F1E18D014239946043304000025012645
:1019F00098464B461888434621681B88984701C47F
:101A0000431E984101350640AF42F2D13000C0BCC0
:101A1000B946B046F8BD0126F8E7C046AA23064AF3
:101A20001B0113608D235B00D3600449044B1960D4
:101A30005368002BFCDA70470040024000B0FA0007
:101A4000006002407047C04610B50148FEF78EFFA7
:101A50000CEF051070B5074D074EB54209D20024B2
:101A6000013E761BB608013608CD01349847B442D2
:101A7000FAD170BD50EE05108CEE0510054B064AEC
:101A800006491A60064A074B1A6010000B68984313
:101A9000FBD1704700E00040BFCDFBFE08C0004016
:101AA000FE7F3C0000F00040044BDB6C002B03D1B8
:101AB0008022034BD2021A607047C04600001150CA
:101AC0004C201150044A054B1A60054A1368DB018B
:101AD0008033FBD17047C046FFFFFF0100F000409C
:101AE00008C000404022034B9A675A671A67DA66BB
:101AF0007047C04600F0014010B5FEF789FF10BDE9
:101B000070B52749274E284D761AB4082200302C8C
:101B100000D930222800920000F08AFD2F2C3BD8FB
:101B200023002A3B214A052B1BD93020AE1971070F
:101B3000001B2600CB0F002902DAA1006A50661CA8
:101B4000C01AE3189B004108EB18C900C9181A60B5
:101B50005A6008338B42FAD1012303421CD09843C8
:101B60008419A300EA50631C2F2C15D09B00EA5067
:101B7000A31C2E2C10D09B00EA50E31C2D2C0BD064
:101B80009B00EA50231D2C2C06D09B00EA50631DBD
:101B90002B2C01D09B00EA50054B9D6070BDC046C8
:101BA00000010010C001001000000020C101001061
:101BB00000ED00E0002310B5294C82B0A367FFF7C9
:101BC0002DFF0122274B1A60636C012BFCD10322ED
:101BD000254B1A60224A936B012BFCD101330093F1
:101BE0000121224A22480433FFF786FE0523012102
:101BF0000093204A2048FFF77FFE002202210420A4
:101C00001E4BFFF703FE0022012105201C4BFFF7AE
:101C1000FDFD0022002107201A4BFFF7F7FD0022EF
:101C200000210820174BFFF7F1FD8023DB00009314
:101C3000002200210920134BFFF772FD0022104BF8
:101C400000210620FFF7E2FD0420FFF74FFE0E49BA
:101C500000F058F801000020FFF7A6FE02B010BD0A
:101C6000008000403CB0004030B00040002F685978
:101C700000800240008C864700C00240001BB70075
:101C800040597307006CDC0240420F0001480421F8
:101C9000014B184710040020D9190010014B5B6854
:101CA0001847000010040020014B9B6818470000F3
:101CB00010040020124A936F9B0815D29066D166DB
:101CC000002905D0FFE7FFE7FFE7516F106F70476E
:101CD00004B580210906C2175140002800D0C8432E
:101CE0005DF086F8002104BDF0B5146E556E576F97
:101CF000166FFFF7E3FF1466556657671667F0BD6A
:101D0000000000D0114A936F9B0813D210665166F1
:101D1000002905D0FFE7FFE7FFE7516F106F70471D
:101D200004B5002801D00020C0435DF061F8002117
:101D300004BDC046F0B5146E556E576F166FFFF7B1
:101D4000E5FF1466556657671667F0BD000000D0C2
:101D500094464A4A926F9208624601D228E0C046F1
:101D6000F0B5464E346E756E776F366F00F020F822
:101D70009446424A14665566576716676246F0BD38
:101D800094463E4A926F9208624601D254E0C046A1
:101D9000F0B53A4E346E756E776F366F00F04CF8D2
:101DA0009446364A14665566576716676246F0BD14
:101DB000002B24DB11D000293EDA00B5C943404294
:101DC00000D1013100F038F8C943404200D101315F
:101DD000DB43524200D1013300BD002AEBD1002881
:101DE00001D1002905D00020C90FC90701D1C04386
:101DF000410800B55DF00CF80022002300BD00B5DD
:101E000000290ADBDB43524200D1013300F014F811
:101E1000C943404200D1013100BDC943404200D115
:101E20000131DB43524200D1013300F005F8DB43BE
:101E3000524200D1013300BD002923D1002B18D11B
:101E4000002A0CD0BC460D4F38667A66002100236C
:101E5000FFE7FFE7FFE77A6F386F674670470028B4
:101E600001D00748010000B55CF0D2FF002200233A
:101E700000BD02000B00002000217047000000D0D0
:101E8000FFFFFFFF002B00D0BFE0130C28D1002A7A
:101E9000E7D080B4114F39667A66FFE7FFE730B4C8
:101EA000040C7B6F396F1B0423433B667A66FFE7A4
:101EB000FFE7FFE7C04684B27B6F3D6F1B042343FF
:101EC0003B667A66FFE7FFE7C04600232C042D0C33
:101ED0007A6F386F00196941B0BC7047000000D0BC
:101EE000F0B594460025140E01D112020835140FE6
:101EF00001D112010435940F01D192000235D40FA3
:101F000001D152000135D40B0134254F7C66254C9C
:101F10003C660E0C93B2FFE7FFE7FFE73C6F6643BA
:101F2000360C7703BE467343DF0B5B04C01AB9411E
:101F3000130C7343DB18C91ACE086643360CB6443B
:101F400093B273431F0F1B01C01AB941130C7343A3
:101F50001F0B1B05C01AB941860D8F023E43664315
:101F6000360C092D24DB520A7243801A7703460A85
:101F70006643360C16235B1BDE40DF40BF19644608
:101F80006643821B7046043506330100D940A840E1
:101F9000C01900D30131A24206D20023F0BD0000D7
:101FA000000000D0FFFFFFFF121B0130F3D3F1E769
:101FB00009277F1BFE406446A2B27243801A00D2FA
:101FC0000139220C7243130C1204821A99410B003E
:101FD0007046043513370100F940A840801900D33A
:101FE0000131002B02D1A2420AD2F0BD013000D350
:101FF0000131121BFAD2013BF8D1A24200D2F0BD4E
:10200000013000D30131121BF7E7F0B51C0C00D0F2
:1020100080E00CB400251C0A04D11B02160E3343C9
:10202000120208351C0B04D11B01160F3343120199
:1020300004359C0B04D19B00960F3343920002356C
:10204000DC0B02D192185B4101351C0097186441EA
:102050000134464F7C66464C3C660E0CFFE7FFE7BA
:10206000FFE7C0463C6F6643360C7703BE4697B227
:102070007743C01B00D20139C01B00D201399FB287
:102080007743C91BC91B170C77437E04FF0B801BCA
:10209000B941CE086643360C0C2D33DBB644120B27
:1020A0001F053A431B0B97B27743C01B00D201397F
:1020B0009FB27743C91B170C77433E043F0C801B2C
:1020C000B941860D8F023E43664329277F1BFE40A0
:1020D0000C3D7746AF40BF1930BCA2B2ABB27243E1
:1020E0007343801A9941220C7243130C1204801A14
:1020F000994102000B000137001BA941F9D2781E5B
:102100000021F0BD0C277F1BFE4077467F0BAF40C0
:10211000FF19E0E700245D1C07D0144F7D66396687
:10212000FFE7FFE7FFE7FFE73C6F95B29EB265432D
:102130006643401BB141150C1E0C654366433604D3
:102140002F0C3E432D04401BB141994204D20200A2
:102150000B0020000021F0BD01D19042F7D3801A7E
:10216000994101349942F2D3F6E70000000000D013
:10217000FFFFFFFF48404140484018B4134B5B68E5
:10218000019308BD18B4114B1B68019308BD944618
:102190000F4A926F920805D2624618B40B4BDB6867
:1021A000019308BD0A4AF0B5146E556E576F166F4D
:1021B0006246FFF7F2FF064A1466556657671667D0
:1021C000F0BD18B4014B9B68019308BD580C00206A
:1021D000000000D0FFB550404240504059404B40B5
:1021E000594000E0FFB5154F4C00640D03D0BC42D0
:1021F00004D10C0314D80020090D09055C00640DFE
:1022000003D0BC4204D11C030AD800221B0D1B05BD
:1022100001264B4009D44B4003D58B4200D182426A
:10222000FFBD9942FCD19042FFBD0B43DB18034335
:102230001343F5D0C9434918FFBD0000FF07000054
:1022400000B5FFF7CFFF804100BDC04600B5FFF7E6
:10225000C9FF01D9002000BD012000BD00B5FFF776
:10226000B9FF01D9002000BD012000BD00B5FFF776
:10227000B1FF804100BD012040054A00121804D87A
:102280005A00121801D80020704701207047000042
:102290000021002805D17047C1174840401AFAD0E4
:1022A000C90713B5064B1B6898470CBC441CA240D9
:1022B0001005120B0349091B09051943114310BDF1
:1022C000682200201F04000010B54C00620D80231E
:1022D000D218DB00D21A5B057E2A10DD9E3A13DA93
:1022E000CC170903490819435242D1406400013414
:1022F0001532202A05DAD0400843604310BD002083
:1023000010BD0846604310BDC80FC018013810BD8D
:1023100018B4024B5B6A019308BD0000580C002002
:1023200010B50148FEF722FB18EF0510132370B516
:102330001D78012D19D014DD1D48FFF745FB06005F
:102340001C48FFF741FB1C4C80223100200000F0AC
:102350006FF9022D06D01948FFF72EFB184B1860B5
:1023600070BD154C174BA364F5E7174B124C236057
:102370006360A360E36023616361A361E36123623F
:102380006362A362E36223636363A363E36323641F
:102390006364A364E36423656365A365E3652366FF
:1023A0006366A366E36623676367A367E367D9E7AA
:1023B0005344000053460000580C00204C330000EA
:1023C00068220020CD2300102123001007B56046AD
:1023D00001880A0A0230DF2AFAD1C9B2820804D37E
:1023E000028840880004104300E00068014A505011
:1023F000039007BD580C002051434343C9188C4635
:10240000110C83B24B4310B4040C614392B280B2FE
:10241000504362431C041B0C001910BC59411304A7
:10242000120CC018514161447047000048404140BF
:1024300048400E4B5B6818470C4B1B6818470C4A0A
:10244000936F9B0802D2094BDB681847F0B5146EF6
:10245000556E576F166FFFF7F6FF054A14665566FF
:1024600057671667F0BD014B9B6818476C22002028
:10247000000000D007B548404140484001E0C04658
:1024800007B54200120E03D0FF2A03D1420218D82A
:10249000C00DC0054A00120E03D0FF2A03D14A0224
:1024A0000FD8C90DC9050122414005D4414001D5CD
:1024B000814207BD884207BD0143491801D0C0438E
:1024C000001807BD00B5FFF7D5FF804100BD000033
:1024D000C10FC90700D54042002817D0F44603B405
:1024E0000B4B1B68984706BC81409E3840428031A8
:1024F00007D20B0607D04900490AC005104308431C
:1025000060470130F8E7490A8902F5E770470000A3
:102510006822002041000A0E80231B067E2A0BDD64
:102520009E3A0BDAC1174002400818435242D0408D
:10253000490001314843704700207047C00FC01860
:1025400001387047C0420DD300B54000400800215B
:1025500000F00EF8002801D4404200BD80200006A3
:1025600000BD0000014BDB69184700006C22002011
:10257000014B5B6A184700006C22002010B501482F
:10258000FEF7F4F9C4EE0510132310B51C781148BA
:10259000FFF71AFA012C0BD004DD010080220E484F
:1025A00000F046F80D48FFF707FA0D4B186010BD14
:1025B000094C01005422200000F03AF822002000CB
:1025C000084980320368002B00D10160043090423A
:1025D000F8D1E7E7534600006C2200204C3300009E
:1025E000682200207D25001010B504005BF07EFFFE
:1025F000002804D0034B04199C4200D810BD0248A7
:10260000FEF7B4F90000042030EF051010B55BF0C0
:1026100077FF10BD01480421014B1847200400201A
:10262000D9190010014B1B68184700002004002036
:10263000014B5B6818470000200400209A4200D23A
:10264000885470477047C046F8B5DE4657464E4638
:102650004546E0B599460D9B0700884693469B0783
:1026600028D00B9B002B3CD016000B9C0A9D3619E2
:10267000321B013C4B464146285DB847002CF7D140
:1026800035000D9B9B070ED55B46EC1A0C9BA342B5
:1026900009D91E002A004B46414620200134B84784
:1026A0000135B442F6D32800F0BCBB46B246A94679
:1026B000A046F8BD0B9B0C9A934214D213005D46C2
:1026C0000C000B9A9E1A76192A004B460135210000
:1026D0002020B847B542F7D10B9BA046002BC4D1B0
:1026E000E1E71500CDE75E46002BBED15D46DAE797
:1026F000F0B54F46D6464646C0B584B09C460EABB4
:102700001F78129B9146BA460D9C109E119D9B0707
:102710004CD4002D41D1B44248D20123129F1F4016
:10272000B8460C9B5F1E302303E001343B55A642A4
:1027300001D9202CF9D14346002B00D187E00C9B16
:102740005F1E3023A54204D830E001343B55AC4233
:102750002CD0202CF9D1129BDB060DD5129B5B05EA
:1027600057D4A64267D0A54265D00F9B102B53D0FB
:10277000022B5BD0202C36D12023129C01930C9B82
:102780004A460093039463460295FFF75DFF04B049
:10279000E0BCBA46B146A846F0BD0123129A1340E8
:1027A0009846012313422DD1B442BAD3129BDB06C3
:1027B0001ED5129B5B05D8D4002CD2D10F9B102BB9
:1027C00060D00F9B022B71D0302301240C9A137020
:1027D0005346002B11D1129B5B0740D52B260C9A38
:1027E000631C1655C9E72300013430260C9AD654D1
:1027F000202CC1D05346002BEDD02D260C9A631C03
:102800001655BAE7002F34D0013DB44200D288E714
:1028100095E70F9B102BAFD1129B9B063CD5202C2C
:10282000AAD058230C9A13550134A3E7202CA3D027
:102830002300013407E0631E012CBFD00F9A102A39
:1028400036D0022AD1D162260C9AD65492E7129B36
:10285000DB06CDD5129B5B0500D482E785E7129A93
:102860002300160700D488E720260C9A013316555A
:1028700083E70C2313405F1EBB41ED1AB44200D224
:102880004FE75CE7129B9B060ED478230C9A022438
:102890001370302353709BE7202C00D16CE7782312
:1028A0000C9A1355013465E75823EFE76033EDE7E1
:1028B0000C9AA61EB618129A920602D558223270A9
:1028C00093E77822327090E710B5002800D110BD50
:1028D00001F078FBFBE7C046F0B54E46DE465746B2
:1028E0004546E0B595B083468946924698461E9A7D
:1028F0001F9B10001900209EFFF7BDFC002800D090
:10290000D2E11E981F990122C44B5242FFF798FC56
:10291000002800D001E11E981F990122C04B5242AD
:10292000FFF7A4FC002800D0D6E01E981F990022D3
:10293000BC4BFFF79BFC002800D0B5E01E981F9908
:102940000022B94BFFF77CFC002800D0ACE01E98B9
:102950001F9900220023FFF773FC002800D0D1E06C
:1029600000230B93229B5B0500D406260024302312
:1029700006E006AA013417321355013E202C01D07F
:10298000092EF6D81E981F99FFF79EFCA74BF20060
:102990009B180CCB050008920993FFF77DFC020001
:1029A0000B001E981F99FFF7E8FB089A099BFFF799
:1029B00008FC06900791FFF7ABFC0700FFF768FCE7
:1029C00002000B0006980799FFF7D7FB0022984BEF
:1029D00006900791FFF74AFC002800D1E9E0013793
:1029E0003800FFF755FC02000B0008980999FFF723
:1029F0002DFC002801D000270135002E00D1B7E0C2
:102A0000069513E0172306AA9B180A213800013403
:102A10001D19FFF777F93031297038000A21013E7E
:102A2000FFF770F9092F00D8E1E00700202CE9D169
:102A3000069D20240CAB0693172706ABFF180DE06C
:102A400028000A21FFF736F90134303128003955C2
:102A50000A21FFF72FF9051E00D1B7E0202CEFD196
:102A60000323229A1340012B17D1219B002B14D052
:102A70000B9B002B00D1E3E0219B013B2193202BFA
:102A80000BD93023219A06E006A9013417310B55E2
:102A9000944200D3A0E0202CF6D1229B0194039312
:102AA000219B0293069B21E0229B52460493219B8B
:102AB0004946039358461E9B1F9C0296009301941F
:102AC000434600F043F90400200015B0F0BCBB46BB
:102AD000B246A946A046F0BD229B5B070FD4032255
:102AE000544B2299019203912199029100935246ED
:102AF000434649465846FFF7A7FD0400E4E7042291
:102B00004D4BEEE71E9A1F9B00200021FFF735FB7F
:102B100001231E901F910B9324E70223229A54460F
:102B20001A40229B06929B0700D1ACE02600434D41
:102B300008942F1F3200E87843464946013DD847A4
:102B40000136BD42F6D1089C069B0434002BBBD055
:102B50005746219AE31B9A42B6D9150022004346F4
:102B6000494620200134D847E31BAB42F6D3ABE7FC
:102B70002800FFF791FB02000B001E981F99FFF73A
:102B8000FCFA2B4B002206000F00FFF759FB0CABA1
:102B90000693002800D04FE7002230003900244B74
:102BA000FFF764FB002800D046E7012301359D4371
:102BB00042E70022069807991D4BFFF741FB0028CA
:102BC00000D01AE7002F59D1013716E70323229AC4
:102BD0001340012B00D1A6E0202C00D15DE70B9B18
:102BE000002B3AD02D23069A1355013455E7069D44
:102BF000202C00D11DE73023361906E006AA013447
:102C000017321355202C00D113E7A642F6D12E23FC
:102C10000CAA0134069293550EE7C046FFFFEFFF62
:102C2000FFFFEF7F65CDCD4165CDCDC148FA0510E1
:102C30000000E03F94EF05108CEF05109CEF0510AD
:102C40000C23229A134257D0219B013B2193A3428C
:102C500000D916E7202C00D11FE7229B5B0704D583
:102C60002B23069A1355013417E7229B1B0700D428
:102C700013E72023069A135501340EE7FB0700D40F
:102C8000BBE60137B9E6219B042B00D84EE7554639
:102C90004F46043CE4182A00434601353900202001
:102CA000D847AC42F7D141E70227229B55461F4047
:102CB0009B0726D006975F46234EEC1C2A00B0786F
:102CC000434649460135B847013EAC42F6D1069F1E
:102CD000002F00D1F8E65746219AE31B9A4200D80C
:102CE000F2E6150022004346494620200134D84729
:102CF000E31BAB42F6D3E7E6219BA34200D9C0E633
:102D0000CBE6219B032BD5D9069754464F46033D6E
:102D1000ED1822004346013439002020D847A5424F
:102D2000F7D1069FC6E7219B002B00D154E70B9BF0
:102D3000002B85D0219B013B21939C4200D2A0E631
:102D4000202C00D04EE7A8E698EF0510F0B54546D8
:102D5000DE4657464E46E0B59BB0249C259D8246F4
:102D600088469346994622002B0020002900FFF751
:102D700082FA002800D0C1E00122200029007C4B0B
:102D80005242FFF773FA002800D0B7E0012220007A
:102D90002900784B5242FFF753FA002800D0ADE0EB
:102DA0000022002320002900FFF74AFA002800D063
:102DB000BBE108940995089809998023289ADB00BB
:102DC0001A400F928022289E1201164032000E9661
:102DD000289E0F000A901E4200D0A4E00B0003437F
:102DE00000D0CBE0002A00D012E232000633269356
:102DF000022313400C930223134200D00AE2279BC4
:102E0000042B00D215E200270426043B0E93002277
:102E1000002320002900FFF713FA002800D0C8E1A2
:102E2000554B289A134004930E9B0393269B0293C1
:102E3000089B099C0093019441464B465A465046D4
:102E4000FFF74AFD02002020289B0025034059423D
:102E50004B415B421840531C089341464B4645305A
:102E6000D047FB17FC185C40FB0F1F270A93731E0B
:102E70000E930AABFF1806E020000A21FEF742FF7E
:102E80000400202D08D00A212000FEF73BFF013569
:102E900030317955092CEFD8052306930E9B564601
:102EA0000593002304930A3303930A9B414602933C
:102EB00012AB009330004B46089A0195FFF718FCBF
:102EC0000C9B002B28D05F46279BC41BA34223D911
:102ED00082461D003A194B46414620200134B04736
:102EE000A542F7D850465946279C421A0132002382
:102EF000944200D395E1013018180DE0289B00940E
:102F000001950493279B0393269B02934B465A46B5
:102F100041465046FFF7E0FC1BB0F0BCBB46B24652
:102F2000A946A046F0BD01432AD10E9B3200002BDA
:102F300000D15DE70027269B0026BB4200DD82E131
:102F40000022002320002900FFF77AF9002800D092
:102F50004BE1289B084A02961A408023DB0013436A
:102F60000493279B0393089B099C00930194CDE74E
:102F7000FFFFEF7FFFFFEFFFFFF7FFFF0623269323
:102F8000B24B7800400DC018FFF786F9B04AB14B3C
:102F9000FFF717F9B04AB14BFFF7F4F83F03B04B16
:102FA0003F0B3B430C900D9100220A981900AD4B4A
:102FB000FFF7E3F8AC4AAD4BFFF703F902000B0053
:102FC0000C980D99FFF7DEF8FFF77EF90700FFF781
:102FD00063F9A74AA74B0A900B91FFF7F2F800227A
:102FE000A54BFFF7CFF8FFF76FF9A44A06000A9840
:102FF0000B99A34BFFF7E5F80A900B913000FFF710
:103000004BF9A04AA04BFFF7DCF802000B000A982E
:103010000B99FFF7B2F802000B000A900B91FFF733
:10302000D0F80C900D910A980B9902000B00FFF755
:10303000A9F80022109011910C980D99934BFFF76D
:10304000A6F80022924BFFF79DF802000B000C98A7
:103050000D99FFF79CF800228E4BFFF793F80200C2
:103060000B000C980D99FFF792F80A9A0B9B0C90A5
:103070000D9180210020C905FFF77FF802000B00A9
:103080000C980D99FFF77EF802000B00109811992B
:10309000FFF77DF80022724BFFF774F87E4B002299
:1030A000F6183305FFF78DF802000B000A900B911C
:1030B00008980999FFF7C4F8002808D00A980B99D6
:1030C0000022734BFFF763F80A900B91013F0A99B6
:1030D0000B9A0B0011003A006332C62A12D8022262
:1030E0002898042610400E9A0C90002A26D1279B7F
:1030F000042B05D9002800D0A1E0279B043B0E93A8
:10310000042642E00222289810400E9A0C90002AD1
:1031100013D1279B052B00D889E0002800D084E03C
:10312000279B0526053B0E9332E080231B069C4619
:10313000AC446346089409933DE605260B4300D151
:10314000F9E608980999554A554BFFF787F8002882
:1031500008D0089809990022524BFFF771F800280F
:1031600000D0E8E6269B002B34D00F9B002B31D0FB
:10317000269B013B2693279BB34204D90C9B002B33
:1031800059D002230C9300230E93002F00D13EE66A
:103190000A9A0B9B08980999FEF7F9FF00220890FC
:1031A0000991002320002900FFF74AF8002800D1E8
:1031B00036E6089C099D289A80203B4B0006134068
:1031C000220004930E9B0393269B02932B180092DC
:1031D000019331E6279BB342D5D90C9B002B2AD013
:1031E00000230E9302330C93CFE7289B2E4A8020B6
:1031F000089C099D1A408023DB001343220004939E
:10320000279B000603932B180092019302967DE6FC
:10321000052695E600230E930233002704260C931F
:10322000F5E54B1E1B191B1A65E602230C930526B8
:10323000AEE70423E7E5279B9B1B0E93A5E702233C
:1032400004260C93A1E7DB1B5E1E79E601FCFFFF61
:10325000FB799F501344D33FB3C8608B288AC63F85
:103260000000F03F0000F83F61436F63A787D23F43
:1032700071A379094F930A400000E03F1655B5BB92
:10328000B16B0240EF39FAFE422EE63F00002C40BF
:103290000000244000001840FF0300002D431CEBF9
:1032A000E2361A3F80842E41FFF7FFFFF0B5574604
:1032B000DE464E464546E0B5A3B01F002C9B924625
:1032C0000C93C94AC94B8B460B901A60002900D158
:1032D000BFE1002338789946002800D1C1E1C44BF2
:1032E0004C460993C34B0E935B460A9308E02200B9
:1032F00053460A990B9DA84701343878002876D0A8
:1033000001372528F3D110239B46083B9946043BFF
:103310009846033B002602259C463878791C03001A
:10332000203BDBB2102B03D8099A9B00D3589F4651
:103330000300303B092B36D900252A2800D1A7E00D
:1033400000230D932E283FD00300683BDBB2122BE5
:103350001BD80E9A9B00D3589F4663460F001E430E
:10336000DBE70F002E43D8E743460F001E43D4E7A8
:103370005B460F001E43D0E74B460F001E43CCE7D1
:10338000802378785B001E4301310F00672845D801
:103390002428ACD90300253BDBB2422BA7D89649A1
:1033A0009B00CB589F460025AB005D196D002D1882
:1033B00008780F000300303B303D0131092BF3D971
:1033C00000230D932E28BFD13022802052429046F8
:1033D000C000064378780B0080444246092A00D892
:1033E00051E12A2800D15EE10F000131ACE70A9BD0
:1033F000A1469B46CA4503D801235B4253449946E4
:1034000053464A46594600200B9DA847200023B04A
:10341000F0BCBB46B246A946A046F0BD0300693BDE
:10342000DBB20F2B00D962E7012199408846734A2D
:1034300011408B46110042460A4200D013E10A2B8C
:103440002FD0072B00D052E70C9D01CD002800D1D2
:1034500034E121231E43B0461F260D9A12ABF61805
:10346000A14694465946340002E0000920290AD0BA
:103470000F26064032003732092E00D8073A0131B4
:1034800062540F28F1D863464C468B460D9322E1D7
:103490000C9B20CB002D52DB78780C930F00013170
:1034A0004EE70C9B0D9904CB90469B46002900D11A
:1034B00028E1434618784144002801D100F029FC56
:1034C0000D9A94460A0004E059780133002900D18E
:1034D00095E19A42F8D163460D934346D31A0F9370
:1034E000730500D46CE10F9B0D9A934200D90F92A3
:1034F00002231A0032400C92334200D191E20C9325
:103500000D9BB9461E1943461B1BA84622001F00EF
:103510000B9D08E0541C53460A99A847385D0028C3
:1035200000D163E122009642F4D145464F46340073
:103530000C9B002B00D097E15B460C93DDE602224A
:10354000787816430F006D420C930131F8E67878D5
:103550006C2800D159E180235B001E43013114E740
:1035600080239B0078781E4301310EE77878682825
:1035700000D150E1802301311E4306E7672800D1C6
:10358000C2E0472800D134E1452800D134E10721C9
:103590000C9B0D9A07338B431900049603950292F6
:1035A0000CC90B98009201930C91220053460A9982
:1035B000FFF7CCFB0400A0E6462800D1A8E00721D5
:1035C0000C9B0D9A07338B431900049603950292C6
:1035D0000CC90B98009201930C91220053460A9952
:1035E000FFF77AF9040088E6AD320010881F00204A
:1035F000ACF80510F0F805103CF9051041900000FA
:103600002200534625200A990B9DA847013474E6F1
:103610000C9B04339B46631C9846B60700D4FFE01E
:103620000C9B220018780A9953460B9EB0476419E8
:10363000012D00D849E245460B9EB8460A9F2A0054
:103640005346013539002020B047A542F7D14746FF
:1036500072E7DB4B38780B9300239946002800D0A3
:103660003DE60024C6E66F2855D000D8BCE2102302
:10367000782800D19EE09E430A239C4600230F93A6
:103680000A339B464DE000218A0052185200013354
:103690001118187830390200303A092AF4D90D91FE
:1036A0001F00591C50E60C9BB87804CB0237D1435D
:1036B000C9170A400D920C93791C45E6102330007F
:1036C000984311331843802380463000DB001840B4
:1036D0001E4200D1C0E643460693082305930D9B86
:1036E0002200049310230393002302935B4601936B
:1036F0001AAB00930A9953460B98FEF7F9FF0C9505
:103700000400FAE50139D4E680231B011E433EE79D
:1037100020231E4353E708239C4600230F930833BE
:103720009B4680233000DB0018401E4200D11AE186
:103730000D233100994380230A009B001A409146D3
:10374000194200D0C3E180230A005B001A40904672
:103750000C9A04320F92194200D08FE24B0600D52A
:1037600097E10B0600D4E5E20C9B1B8899464B467B
:10377000002B00D005E210339943002800D100E26D
:10378000002398460D9B069104935B460393002308
:10379000059502934346D9E0582808D0622878D18D
:1037A00002239C4600230F9302339B46B9E7202354
:1037B0001E43103B9C4600230F9310339B46B0E7FB
:1037C00002231A0032400C92334200D105E20C93DE
:1037D0004346B9460B9E0A9FA8461D1B220053462E
:1037E00039000134B047285D0028F7D145464F46DF
:1037F0009EE680231B011E4320231E43C7E662462C
:103800000D9242469B1A0F936AE6C0239B00B8783C
:103810001E43F91CB9E5C023B8781E43F91CB4E572
:10382000012D00D84AE1631E9946A9444B465246F1
:103830002600A146BA461C001700A8460B9D320080
:103840003B00013620200A99A847A642F7D13B0049
:1038500057469A464C460C9B320018780A995346B4
:103860000B9D4444A84767E6A0460F9B9D4200D8A5
:1038700062E62C190B9E4546B8460A9FE41A2A00B8
:103880005346013539002020B047A542F7D14746BD
:1038900052E680233200DB001A4090461E4200D1DF
:1038A000F3E011218E43B4469846802362469B0084
:1038B0001A40934662461A4259D180235B001A404F
:1038C00091460C9A04320F9262461A4200D0A0E14F
:1038D00063465B0600D5D4E063461B0600D412E2C3
:1038E0000C9B00229B5ED8171918414089B2DA0F51
:1038F0000C92002B00D187E188461F2612ABBB46F5
:103900001495F71845464E46E046A14606E02800C5
:103910000A21FEF7F7F90500202E08D00A21280019
:10392000FEF7F0F901363031B955092DEFD84C4684
:10393000C446B1465F46149D634606930D9B0595AC
:1039400004930A2303930C9B02934B4601931AABF7
:10395000220000930A9953460B98FEF7C9FE0F9B6D
:1039600004000C93C9E40C2331009943E3E60822D8
:10397000072191460C9B07338B4399444A460ACB57
:1039800008000C92DA0F9346184300D085E000231C
:1039900099464346002B2FD1002200231092119309
:1039A00000231F26994612ABF6185B461495BB46BA
:1039B000E04637000F934E46A146109C119D05E04E
:1039C0004526001004000D00202E0CD00A220023F2
:1039D00020002900FEF7D4F901363032BA55002D07
:1039E000F0D1092CEED80F9B109411955F464C46F0
:1039F000C446B1469B46149D634606930D9B0595B0
:103A000004930A2303935B4602934B4601931AAB3C
:103A1000220000930A9953460B98FEF769FE0400B2
:103A20006BE40F9B9D4200D896E18023DB000C9352
:103A30000F9B2E19F61A43460F930D9BA8469946E5
:103A40005346BA461F000B9D22003B000134202044
:103A50000A99A847B442F7D10F9B454698464B4672
:103A60000D933B0057469A4643461878002800D1EC
:103A700062E56B1C0F930C9B002B00D1A8E6002382
:103A80003DE50C9B1B78190031E710239E43B4469B
:103A90000BE70C9B1B78994669E6DA171292139292
:103AA0004A401092129813990A005A401192109AA3
:103AB000119B121A8B411092119371E70C9B2200FB
:103AC00018780A9953460B9CA047444634E50822CF
:103AD000072690460C9B0733B343984442460C920A
:103AE0001A685B68149208931300089A134305D16F
:103AF0001033994300239846002838D161208B0663
:103B000000D5412000231F2698465A4612ABF618CE
:103B1000030018920F9A0A3BB1461695179419970D
:103B20004446664690469B46149F089D159103E0C7
:103B300007000D00202C13D032000023380029008C
:103B4000FEF71EF95B46D2B2D318092A01D813003A
:103B500030334A4601341355A845E9D1BE42E7D96E
:103B6000189BA0469B461599169D179C199F0D9B67
:103B7000069104935B460393002305950293434605
:103B800044E761208B0600D541201F2612ABF218B6
:103B900003000A3B0C934B464646A146A8461C0030
:103BA0005D461491BB46170002E00400202E0DD0A4
:103BB00029002000FEF7A6F80C9BCB18092901D894
:103BC0000B0030330136BB55AC42EED25F464C465B
:103BD000AB4614994546B046D4E50F9B9D4200D9AB
:103BE00026E701330F93F3E5102332009A439446FE
:103BF000692800D0A2E080233200DB001A40904602
:103C00001E4200D151E64CE64346002B00D093E61D
:103C100073E60C9B1B68DA0F002B70D0D9175B186A
:103C20004B4098461F2612ABF618A14614955C46E9
:103C30004546BB46E04637000C9206E028000A21C4
:103C4000FEF760F80500202C08D00A212800FEF7B6
:103C500059F8013430313955092DEFD85F46C44643
:103C6000A3464C46149D0C9A634606930D9B0595FE
:103C700004930A23029203935B4667E60C9B1B683E
:103C80009846002B03D11033994300282DD1612091
:103C90008B0600D541201F2612ABF61803000A3B05
:103CA0004A460C93149143463100A846A1465E460D
:103CB0001400BB461D000F0002E00500202C0DD0B3
:103CC00031002800FEF71EF80C9BCB18092901D8FB
:103CD0000B00303301343B55B542EED223005F4632
:103CE0004C464546B346994614990D9B069104935C
:103CF0005B4603930023059502934B4626E6434615
:103D0000002BB1D18EE70C9B1B68D81719184140C6
:103D1000EDE580233200DB001A400F921E420FD0E7
:103D20000230020032400F92304219D00023A046E8
:103D30000F939AE50C9B1B68994618E516009BE4C7
:103D400002231A0032400C92334200D08CE5002D41
:103D500000D06DE6FFF7F0FB01330F93FFF7D0FBC8
:103D60000C93F4E784460CB400B585B006AB0A00AA
:103D700002CB0548039300930B006146FFF796FAC8
:103D800005B008BC02B018473D26001010B5094A1E
:103D90000300146884B0002C08D00122009106486A
:103DA000524203A9A047012004B010BD00F054F90D
:103DB0000020F9E7881F0020C928001000BEFDE799
:103DC0007047C046094A1368002B06D008491818E6
:103DD000884208D8106018007047064B044918182C
:103DE00013608842F6D901235B42F4E7841F002068
:103DF000000004205424012010B5FFF7DFFFC04667
:103E000070B5FDF727FE074D074EB54209D20024D5
:103E1000013E761BB608013608CD01349847B442FE
:103E2000FAD170BD8CEE051090EE0510030010B5B0
:103E3000080011001B68984710BDC046F8B5437DC7
:103E400007000D001600002B38D0002A1ADD0B7871
:103E50000A2B18D00020012E09D0012421006B5C10
:103E600001340A2B1AD0B442F8D1864203DD311A4C
:103E70003B6828189847AD19013D2B780D3B5A42F5
:103E800053413B75F8BD037D002BE3D102210E4861
:103E90003B689847012EEED00120DEE76B1E5B5C8D
:103EA0000D2BE0D0884203DA091A3B68281898479E
:103EB000054802213B6898472000D4E703681100B9
:103EC00028009847DEE7C04698FA0510F0B5464648
:103ED000D6464F46C0B582B090461C0006000D0085
:103EE000FDF704FC00232F4A12184B41002B02DA85
:103EF00001222D4B52422D4908008A465AF080FF7C
:103F000081466B1C03D130005AF0F0FD0500002CF7
:103F100027D0274F274B1C68002C18D04346002B76
:103F200021D1254B984602E02469002C0FD023684C
:103F3000002BF9D043461B68002B01D09C42F3D1E3
:103F400020002A003100B8472469002CEFD14B46ED
:103F5000002B23D1280002B0E0BCBA46B146A846E7
:103F6000F0BD164FD6E7144B984602E02469002CAA
:103F7000EDD02368002BF9D043461B68002B01D0FD
:103F8000A342F3D12A0031002000B8476B460A2231
:103F90002000DA71D91D093AB847E7E750465AF0D0
:103FA00047FFD7E740420F00FFFFFF7FC00A002016
:103FB0003D3E0010741F00207C1F00202D3E00108D
:103FC00000207047F0B5CE46474680B583B06B46BB
:103FD0000600DD1D2870FDF789FB0023194A121821
:103FE0004B41002B02DA0122174B524217490800BD
:103FF00089465AF005FF164B80461C68002C14D0E9
:10400000144F02E02469002C0FD02368002BF9D054
:104010003B68002B01D09C42F4D1200001222900F2
:10402000FFF70CFF2469002CEFD14346002B05D18C
:10403000300003B0C0BCB946B046F0BD48465AF0A7
:10404000F7FEF5E740420F00FFFFFF7FC00A0020A8
:10405000741F00207C1F002070B504005AF046FD3C
:1040600001230100050001222000FFF72FFF084B6C
:104070001C68002C06D06368002B05D09847246983
:10408000002CF8D1280070BD2469002CF3D1F9E789
:10409000741F0020F0B5454680463C4B4E464344D5
:1040A0005A1E9341DE4657468022E0B55B421B0C08
:1040B00092021B049B18364A83B01360354A894626
:1040C000354913601D000A689543FBD10620FDF7B2
:1040D0000DFC43465A6802231A4000922F4A80265C
:1040E000424413604B468246D90D580201920B00A0
:1040F00002000224760006E0924506D3023412182C
:104100004B41B44201D0002BF6D080272602361B4B
:104110007F0002E0361B012F36D031005046BB46EF
:10412000013FFDF7EFFD8145F4D2594661433D0261
:1041300043461C611B68FF226B40802512026D0103
:1041400013404544164A2B60009B424413600220F2
:104150004346019C5B68206044462668072466400D
:10416000C83434402C600324034013600D4B434497
:104170001C6010605046FDF7C5FD03B0F0BCBB46A7
:10418000B246A946A046F0BD2100D1E70000FCBF21
:1041900000E0004000F0004008C000400430000093
:1041A000042000002420000010B5EFF3108C72B63C
:1041B0000A4B9A688300D058814205D0084A904241
:1041C0000AD3084A904207D2044A9268D150BFF3FA
:1041D0005F8F8CF3108810BDFDF736FC00ED00E01A
:1041E000C0010010D401001070B5204C2049206897
:1041F000FFF750FF022123681E485A681818016013
:1042000018680A40CD3181438020012540011818EB
:104210000160194912205B181A600121FCF7E8FAC5
:1042200001211320FCF7E4FA144C2088FCF780FBF2
:104230002A002388D0249A40114E240630886262D6
:104240006261FCF775FB2A0033880E4E9A4000230A
:10425000F05E62626261431C06D0FCF769FB0022DB
:10426000B35E9D406562656170BDC0463804002044
:1042700080F0FA0204300000042000003404002022
:104280003204002030040020F0B5DE4657464E468A
:104290004546E0B5037887B0002B77D0013B1D0081
:1042A0003E4BD02701933E4B441C02933D4B3F06AF
:1042B0009B46012398460133994603E0013DEDB248
:1042C000FF2D63D04046A21C0199039262782378A7
:1042D00000920A8844469040B86104A8C3710298CD
:1042E0004E4603889C40BC615C4620684C46426850
:1042F00022402D4C03191E608024C7260368B24655
:10430000734064010836011933400B60274B7F244A
:10431000C3181A6004ABD91D01225AF091FD02980E
:10432000009A0388404698407861584614404A46AF
:1043300000681D49436813404218494611605146C0
:1043400002684A4080214901164042181660174E03
:104350008219039E1360310022005AF071FD40461D
:10436000019B34191B8898406B461B7878615BB2BF
:10437000002BA3DA2078661CFF2800D1F530013D20
:10438000EDB2FDF78DF83400FF2D9BD107B0F0BCE6
:10439000BB46B246A946A046F0BDC0463404002044
:1043A0003204002038040020043000000420000003
:1043B00000230321F0B585B002AA93710A006B4B6C
:1043C00002401A706A4B04241B781D00A543012D7E
:1043D0000DD068490020095E022A24D0032A0BD19F
:1043E000022B00D0ABE0602302AA937187E0800724
:1043F00013D4604801800321012A00D176E0022B0A
:1044000000D198E0042B00D1A7E0C82202A8827155
:10441000012B12D18020802211E056490D8001210C
:10442000022A00D078E0022B07D0042B00D19AE0BA
:10443000082202A88271012BECD0A02080224E4BD2
:1044400018804E4B1A804E4A4E4B12881A804E4BA3
:104450001980012422004D4BD02500931B88210098
:104460009A4036232D06AA6102AAD371484A494EC2
:1044700013880227994030680192A9614649426831
:104480004318C7211F6003683A404B4008310B4076
:104490008021490141180B60404BC3181A6002ABE0
:1044A000D91D01225AF0CCFC2000019A3A49138808
:1044B000984068613068CF264218C721436817606A
:1044C00002683B404A40802149011640421816606C
:1044D000324A02A982181360063101225AF0B0FC58
:1044E000009B1B889C406C6105B0F0BD022B1ED068
:1044F000042B2CD0A82202A88271012B14D0A0205A
:1045000080221E4B18801C4B1A801D4A1E4B12889D
:104510001A801C4B19809CE7032A00D06CE76822A4
:1045200002A88271012BEAD180208022E9E7A02332
:1045300002AA9371E3E7BE3302AA93717DE7042BCD
:10454000EDD102AA5C339371A0205022D9E702AAD0
:104550009C339371A0205022D3E702AABC339371FD
:10456000A02050226BE7A020502268E752240120AF
:104570005324012048240120462401204A240120FC
:10458000442401204C2401204E2401203404002026
:104590003204002038040020043000000420000011
:1045A000F0B5012585B00400FFF71EFE2A006A4E13
:1045B000D02733883F069A40684BBA6100930022A7
:1045C0009B5E5A1C0AD02A009A400520BA61FCF76B
:1045D00067FF009B00229B5E9D407D616048FFF766
:1045E00053FE002C00D193E0012C00D1A2E0052C59
:1045F0000FD0042C26D05B48FFF746FE5A48FFF741
:1046000043FE022C30D0594B00201C70FFF7D0FE27
:1046100016E08022564B57481A80574B1A80FFF7F6
:1046200033FE0222554B50481A80554B01321A80F6
:10463000FFF72AFE01224D4B02201A70FFF7B8FE49
:1046400005B0F0BD50224A4B4E481A804A4B5032BA
:104650001A80FFF719FE1822484B43481A8000229F
:10466000474B1A80FFF710FE0125C02302AA937161
:104670002A003388D0279A4036233F06BA6102AA1F
:10468000D3712A00404B022100931B889A40BA61E3
:104690003E4A3F4B10680192C31842681960036894
:1046A0000A40C5314B4008310B4080214901411877
:1046B0000B60384BC3181A6002ABD91D01225AF0A7
:1046C000BFFB2800009B02211B88019A9840304BB9
:1046D00078611068C3184268196003680A40C531E0
:1046E0004B4008310B408021490141180B60294B98
:1046F000C3181A6002AB991D01225AF0A1FB33883E
:1047000000209D40194B7D611C70FFF751FE97E71B
:104710002148FFF7B9FD0222184B13481A80184BA5
:10472000013A1A80FFF7B0FD104B00201C70FFF714
:104730003FFE85E780220E4B0E481A800E4B1A80F2
:10474000FFF7A2FD02220D4B07481A800C4B0132E5
:104750001A80FFF799FD56E734040020300400204A
:1047600008FB0510E8FA05109CFA051053240120F7
:1047700046240120D8FA05104A24012044240120AF
:1047800048240120C8FA0510320400203804002013
:104790000430000004200000F8FA0510F0B5CE4601
:1047A00047465C4C80B5248887B000195A4C0126D6
:1047B000248880B2091989B2CB18013B09040B4344
:1047C0001BBA05932A238218013A0004024312BA45
:1047D000049202AAD3713200504B022401931B8829
:1047E0004F499A401300D0221206936191464D4AD8
:1047F000C7271068CF2543188021904642681C6067
:10480000036849017B402B4041180B60464B224016
:10481000C31802A91A60073101225AF011FB3200B5
:10482000019B3F491B889A4013004A465361424608
:1048300010684318802142681C60036849017B406E
:104840002B4041180B60384B2240C3181A6004A952
:1048500004225AF0F5FA2B2302AAD3713200019BED
:104860002F491B889A4013004A46936142461068BC
:104870004318802142681C60036849017B402B403B
:1048800041180B60284B2240C31802A91A60073157
:1048900001225AF0D5FA3200019B21491B889A4027
:1048A00013004A465361424610684318802142680B
:1048B0001C60036849017B402B4041180B601A4B78
:1048C0002240C3181A6005A904225AF0B9FA2C2311
:1048D00002A8C371019B48461B8811499E4086610E
:1048E000404600684218802143681460026849010C
:1048F0007A401540421815600B4A23408218136015
:1049000002AB0122D91D5AF09BFA07B0C0BCB946D0
:10491000B046F0BD4C2401204E240120320400207A
:10492000043000003804002004200000F0B5012409
:104930002600184F1D003B88C6469E403300D026F7
:10494000360600B5B3612B009046FFF727FF210024
:10495000114B02221B889940104B71611868104955
:10496000436841180A6001681340CD328A438021B0
:10497000490141180A600B494218136042460699E2
:104980006A435AF04DFA3B889C40746180BCB8463B
:10499000F0BDC0463404002032040020380400205A
:1049A0000430000004200000F0B5C64600B5040045
:1049B00001F03AFA364A374E136801331360336810
:1049C000002B34D0344BE26A98461B68002B28D069
:1049D000324D33490B6801330B606364314B196806
:1049E000914200D21A6093009B189B00E9184A6814
:1049F000A26090680700E060201D78609060EA582F
:104A000061610132EA5001F01BFA43461B68002B3A
:104A100004D03368DA6AE36A9A4211D380BCB8469C
:104A2000F0BD3368DB6A9342D2D83460D0E734609B
:104A30001368012B07D0184BE26A9846174DC8E758
:104A400001F0E6F9EAE7154D2F00380001F08AFA87
:104A5000154B1437BB42F8D1144B9846180001F09F
:104A600081FA134F380001F07DFA124801F07AFA0A
:104A7000114801F077FA114801F074FA4246104BE0
:104A80001A60104BE26A1F60034B9846A1E7C046CC
:104A900078230020E421002008240120F8210020B0
:104AA00084230020882300205C220020B4230120DE
:104AB000C8230120F4230120202401200C240120FC
:104AC000EC210020F0210020F8B54746CE46040036
:104AD000264B80B51E68264B264D1B6889461F0055
:104AE000254B1B6828689846043001F071FA631C56
:104AF00018D02B6834195C60A64208D92968404652
:104B0000043101F04BFAC0BCB946B046F8BD296883
:104B10003800043101F042FA184B1A68A242F2D967
:104B20001C60F0E74B46002B0CD12A68731E5360C3
:104B30009E42E3D829683800043101F02FFA0F4B68
:104B40001B68E0E70E4B29685A688A6090682968FC
:104B5000C8602968043141602968043191602A687D
:104B600053611A6801321A60CDE7C046342401202F
:104B7000EC210020E4210020F0210020E823012086
:104B80000C240120F8B5CE464746950080B58046F6
:104B900028000E00994601F0B7F8071E00D187E003
:104BA000782001F0B1F8041E00D17EE078220021C7
:104BB000FDF738FD2A00A52138002763FDF732FDF7
:104BC000236B043D5D1907239D43002E4BD03422F7
:104BD0003378A354002B43D073780132A354002BB5
:104BE0003ED0B3780132A354002B39D0F378013290
:104BF000A354002B34D033790132A354002B2FD08F
:104C000073790132A354002B2AD0B3790132A35413
:104C1000002B25D0F3790132A354002B20D0337A16
:104C20000132A354002B1BD0737A0132A354002B02
:104C300016D0B37A0132A354002B11D0F37A01328B
:104C4000A354002B0CD0337B0132A354002B07D08C
:104C5000737B0132A354002B02D04223B27BE25477
:104C600043230022E254089E042E1CD8201DE66235
:104C7000E66401F083F92000183001F07FF9052384
:104C80009B1BA3614A46414628002461646201F0EF
:104C9000AFF8099B2060002B00D01C602000C0BC36
:104CA000B946B046F8BD0426E0E7380001F038F810
:104CB0000024F3E7F0B5C646124B00B59846124DF6
:104CC000124F134E14E001F0AFF8FB68DC68201DB2
:104CD00001F07EF93368013B33602B68013B2B60A8
:104CE00001F0AEF8206B01F01BF8200001F018F87D
:104CF0002B68002BE7D143461B68012BF8D901F044
:104D000087F8F5E7F82100207C23002020240120EB
:104D100078230020F0B55746DE464E4645465E4BAA
:104D2000E0B51F6883B001371F60002F66D05B4974
:104D30000B689F4277D35A4B98461B681B68002B21
:104D400000D1A3E000239C46564B45469A46564B5D
:104D5000564C9946634600934B468C46B9460193A0
:104D600038E01068013810609A6A002A0FD0D969BB
:104D7000186A8860D969416018005168183081420A
:104D800000D175E000211068996201381060019926
:104D9000D86A0A68904200D9086047468200121813
:104DA0009200A118486898608668DE607760876026
:104DB000A05859610130A05052461068DA6AC36A9F
:104DC00093429B41009A5B421A432B6800921B68F6
:104DD000002B55D02B68DB68DB685A6891454AD3B5
:104DE0009968D8685A698860996841605068191D47
:104DF00088468842B5D1D8685060B2E7284B2C4A23
:104E000019681068186011602A490A6801320A603E
:104E10001A681268002A25D1012320495B420B60E1
:104E20000B689F4287D200239C461E4B1F4C9A461C
:104E3000534601201B68204AD96A12688B005B1810
:104E40009B00E3589842804113005A1E9341404210
:104E500018436346184303B0F0BCBB46B246A946AC
:104E6000A046F0BD1B680D49DB681B680B605FE75F
:104E7000186A506086E76146009B0A609C46D7E747
:104E80006146944601235B420B60D1E79C46054B8B
:104E9000064C9A46F6E7C04634240120E823012058
:104EA000EC210020E421002088230020F8210020AC
:104EB000F0210020EC2301204024012010B582B015
:104EC000059C0194049C0094FFF75CFE002804D02C
:104ED000FFF76AFD012002B010BD01204042FAE751
:104EE000F8B5040000F0A0FF254E002C42D0201D94
:104EF00001F06EF8A36A271D002B03D020001830A4
:104F000001F066F81F4A204D1368013313603368BF
:104F1000A34221D02B681D4A1368013B13601C4B30
:104F20001A681268002A13D01B68DB681A68194BCC
:104F30001A6000F085FF206B00F0F2FE200000F008
:104F4000EFFE2B68002B02D03368A34214D0F8BDCB
:104F5000104B013A1A60ECE72B68002BDBD03900CC
:104F60000D4801F00FF80D4A13680133136000F08B
:104F700067FFE6E73468BAE700F04AFFE7E7C046B4
:104F8000E42100208423002008240120782300202D
:104F9000EC210020E8230120202401207C23002094
:104FA00010B5002486B01022002102A8FDF73AFBBC
:104FB000114B80220293114B11480193009400235E
:104FC00002A9FFF7DFFD002805D0FFF7EDFC00F098
:104FD00055FE012803D00B4B1B6806B010BD72B6FE
:104FE0000122094B52421A60084B1860084B1C60A2
:104FF00000F064FFEFE7C04649444C45E023012040
:10500000B54C001044FB0510E823012008240120C2
:1050100034240120024A1368013313607047C046EC
:1050200080230020F8B5DE46454657464E46E0B59B
:1050300000F0FAFE534D2B68013B2B602B68002BD0
:1050400000D082E0504B1B68002B7ED04F4F3B6856
:10505000002B00D192E04E4BAB4618004D4B4E4C0E
:1050600099464E4B9A46FB68DB68DE69196A9A6A74
:10507000B160DE694E601900566818318E4200D169
:1050800075E0002199621168013911609E68D96844
:105090005A69B1609E684E6051681E1DB14263D06E
:1050A000116801391160D96A0268914200D9016022
:1050B0008A0052189200A1188C46496899608D6840
:1050C000DD606E608E6061465961A1580131A1506A
:1050D0004A461168DA6ACB6A9A4240D9534601229D
:1050E0001A603B68002BBED12D4B5D461A681268D2
:1050F000002A3FD01B68DB681A682A4B1A602A4EC8
:105100003468002C17D0330001272E001D0008E062
:10511000FFF700FE002801D053461F60013C002C21
:1051200008D03368002BF3D02B68013C01332B608F
:10513000002CF6D12C6053461B68002B05D0154B74
:1051400001241B6800F064FE00E0002400F078FEFB
:105150002000F0BCBB46B246A946A046F8BD3B685D
:10516000002B00D07FE7BFE7D968516098E7196A44
:10517000516086E70B4B013A1A60C0E7074B9A462D
:10518000BDE7C0468023002078230020F4230120BF
:1051900088230020E4210020F82100204024012061
:1051A000EC210020E8230120F0230120F0B5C646C1
:1051B000040000B500281DD0154A136801331360A0
:1051C000144B154D1E68154BA4191B689846144BBB
:1051D0001F682868043000F0FBFE2B6829685C60BB
:1051E0000431A6420BD9380000F0D8FEFFF71AFFB1
:1051F000002801D100F00CFE80BCB846F0BD40464E
:1052000000F0CCFE074B1A689442EFD21C60EDE729
:105210008023002034240120E4210020EC21002000
:10522000F0210020E8230120014B18687047C04698
:1052300034240120064B10B51B68002B02D1FFF768
:1052400069FD10BD034A0020136801331360F8E7BD
:1052500080230020F0230120234B30B51B68002B56
:1052600003D00122214B1A6030BD204A204C13602C
:10527000236820499C4662469B009A1892008A58EF
:10528000002A2BD163465A1E9300981880000858B4
:10529000002811D163469A1E930098188000085880
:1052A000002809D16346DA1E930098188000085838
:1052B000002801D1013A93009B189B00C81884462E
:1052C0006546406808334068C9186860884207D05E
:1052D000094BC168196022601B68C5E76246EBE7AD
:1052E000E8686860F4E7C04680230020402401207D
:1052F00088230020F8210020E4210020F0B5C646D4
:105300000D001E4C00B52168183100F047FE1C4B03
:105310001E681C4B1B681F001B4B1B6820689846AF
:10532000043000F055FE6B1C15D023682168AD19C0
:105330005D600431AE4205D9404600F02FFE80BCCE
:10534000B846F0BD380000F029FE104B1A689542AF
:10535000F5D21D60F3E70E4B21685A688A609068A9
:105360002168C8602168043141602168043191607E
:10537000226853611A6801321A60E0E7E4210020D4
:1053800034240120EC210020F0210020E82301201A
:105390000C240120F8B54746CE462A4C436888467F
:1053A000216880B5CB619D6821680D622168183144
:1053B0006960216818319960236898620368013335
:1053C0000360214B002A1ED01B68204B1B68204B1A
:1053D0001B682068043000F0FBFD1E4B21685A68F2
:1053E0008A6090682168C860216804314160216842
:1053F00004319160226853611A6801321A60C0BC9E
:10540000B946B046F8BD1E68104B1B689946104B54
:105410001F682068043000F0DBFD43469D192368B7
:1054200021685D600431AE4208D8484600F0B6FD00
:10543000094B1A689542E2D21D60E0E7380000F09F
:10544000ADFDDCE7E421002034240120EC21002024
:10545000F02100200C240120E8230120C36870B54E
:10546000DB68D869196A9A6A8160D869486018004F
:1054700051681830814245D0002199621168013984
:105480001160274A1268002A2ED19868D9685A6993
:10549000816098684860191D8C465168614534D018
:1054A0001168013911601F4AD96A1068814227D8F2
:1054B00066468A001C4852189200841861689960F8
:1054C0008D68DD606E608E6081585C610131815055
:1054D000164A00201168DA6ACB6A9A4203D901227F
:1054E000134B01301A6070BD124A5168D9618C6843
:1054F0001C626060886011689A6201311160E7E7A0
:105500001160D5E7196A5160B6E7D9685160116832
:1055100001391160034AD96A10688142C8D9EFE79E
:105520008023002088230020F8210020E42100208F
:1055300040240120F4230120034B1B680360034B2C
:105540001B6843607047C046EC23012034240120CF
:10555000F8B50D00040000F067FC114A2B681168D3
:10556000581C1AD00F4E2768B44636686068B74298
:1055700008D0884206D8002301242B6000F060FC8C
:105580002000F8BD0E1AB342F5D95B1A1B182B6028
:1055900063461B682360136863600024EEE7C0461F
:1055A00034240120EC2301200122014B1A607047B2
:1055B00040240120014B18687047C046E4210020B8
:1055C000F8B5041E22D0204DC26A2B68DB6A9A42CD
:1055D00015D28369002B04DB2B68D96A05235B1A7B
:1055E000836193009B18194A9B001600D3186269C7
:1055F0009A420DD02B680120DB6AE36205E02B683C
:10560000C06CDB6A984280414042F8BD0020FCE754
:10561000201D00F0DDFC2B68271DDA6A0C4BE262CE
:1056200019688A4200D91A6093009B189B00F118F0
:105630004A68A2609068E06047609760F2586161D4
:1056400001320120F250E0E7E4210020F82100209F
:1056500088230020F8B5041E08D0036DC16AC26C0F
:10566000013B0365914201D0002B01D00020F8BD21
:10567000071D043000F0ACFC0523E26C9B1AA3610B
:105680000B4BE26219688A4200D91A6093000949FB
:105690009B189B00C8184268A2609568E5606F601F
:1056A0009760CA58606101320120CA50DFE7C046E6
:1056B00088230020F821002070B5041E08D0C36C98
:1056C0008B4206D3E26A9A4202D0216D012905D0AD
:1056D00070BDE26A0B009A42F7D1F9E7A169E36273
:1056E000002902DB0521CB1AA36193009B18104A05
:1056F0009B001500D31862699A42E9D1201D00F081
:1057000067FC0C4BE26A1968261D8A4200D91A60B0
:1057100093009B189B00E9184A68A2609068E060BB
:1057200046609660EA5861610132EA50D0E7C046AF
:10573000F821002088230020034B1868002802D09D
:10574000036D013303657047E4210020F8B50400C0
:105750004746CE46254D1A342B68A600F35880B52F
:10576000884607009146002B01D1002A1CD100F089
:105770005BFB2B68A400E658002E05D04346002BA7
:105780000ED000222B68E25000232868C019743024
:10579000037000F055FB3000C0BCB946B046F8BD00
:1057A0002B68721EE250EFE7114A13680133136051
:1057B00000F03AFB2B68F358002B04D000F040FBBC
:1057C000FFF730FCD3E701222B68DB1974331A7022
:1057D00000F036FB01214846FFF776F9FFF722FC7F
:1057E0000028C4D100F014FBC1E7C046E42100202A
:1057F00080230020F8B51E0004000D00170000F003
:1058000013FB069B002B05D01A002B001A339B00BC
:105810001B59136002226319743319781A70C9B2C4
:10582000032E14D00FD8012E41D0022E04D1AD008A
:105830006519AB6E0133AB6601290DD0012400F070
:10584000FFFA2000F8BD042EF6D1022935D01A3512
:10585000AD002F510129F1D1A168E26863698A6026
:10586000A168201D51605A68824228D01A68013A06
:105870001A60144BE26A19688A4200D91A609300D0
:1058800011499B189B00CD186A68A2609668E66073
:1058900070609060CA5865610132CA500B4B1B683A
:1058A000DA6AE36A9A42C9D200F0B2FAC6E7AD00FA
:1058B0006519AB6E3B43AB66BEE70024BFE7E26809
:1058C0005A60D3E788230020F8210020E42100203B
:1058D000F0B557464546DE464E46E0B5D24FD34A70
:1058E000B84643469246D24A8BB0019228221B68A2
:1058F00093461D68CF4CD04F002D67D1FFF78AFB30
:10590000FFF792FC3B688146834200D9F6E053469C
:105910001B6838601A6853425A414B462068E91A9E
:1059200001F020F9FFF77EFB002800D13AE11022B8
:10593000002106A8FCF776FE3D000022206806A99B
:1059400000F092FD00283BD0069B002B75DB089EE3
:10595000002EF2D07369002B02D0301D00F038FB0E
:10596000FFF762FC2B68070098426FD3069B2F60FD
:10597000092BE2D8019A9B00D3589F465B46F05C06
:1059800001235A460343B3540799B26936618B1811
:105990007360BB4200D9A6E0791A8A4236D8410723
:1059A00000D502E1012398435B46F0543000336A8E
:1059B00098470022206806A900F056FD0028C3D1B0
:1059C00043461B682F001D68002D97D0DB681D68BB
:1059D000FFF720FBFFF728FC3B688146984200D286
:1059E0008CE03860854200D801E1002295E75B46F3
:1059F0000122F35C13435A46B354079B3661DA190C
:105A0000B3617260BA4273D8002B96D05346311DF1
:105A1000186800F0C3FA90E75B460122F35C9343F9
:105A20005A46B35489E75B46F35C9A0700D4B5E065
:105A3000012293435A46B3547FE7079B099908987C
:105A40009847069B002B00DA77E780E743461B6800
:105A50001A68002A40D004220296914603950494C5
:105A600005900BE0012293435A46A354236A200079
:105A7000984743461B681A68002A29D0DB68DC680F
:105A80001E68271D380000F0A3FA5B464A46E35C17
:105A90001A42E7D0A3692461F518F64365609E4277
:105AA00009D3EE43236A20009847A3692461ED18C7
:105AB0006560B342F5D953463900186800F06EFAB4
:105AC000236A2000984743461B681A68002AD5D1EC
:105AD000029E039D049C059F5246414612680A603F
