:020000041000EA
:1000000000B5324B212058609868022188439860DF
:10001000D860186158612E4B002199600221596106
:100020000121F02299502B49196001219960352056
:1000300000F044F80222904214D00621196600F024
:1000400034F8196E01211966002018661A6600F04E
:100050002CF8196E196E196E052000F02FF8012189
:100060000842F9D1002199601B49196000215960AB
:100070001A491B48016001219960EB211966A021F2
:10008000196600F012F800219960164914480160C1
:100090000121996001BC002800D000471248134993
:1000A000086003C880F30888084703B5996A0420EC
:1000B0000142FBD001200142F8D103BD02B5186610
:1000C0001866FFF7F2FF186E186E02BD00000240BE
:1000D000000000180000070000035F00212200005C
:1000E000F4000018222000A00001001008ED00E03C
:1000F00000000000000000000000000074B24E7A12
:1001000000200420F7010010CB010010CD010010E9
:10011000C9010010C9010010C9010010C901001077
:10012000C9010010C9010010C9010010DD44001010
:10013000C9010010C901001071440010554500109C
:10014000C1010010C1010010C1010010C101001067
:10015000C1010010C1010010C1010010C101001057
:10016000C1010010C1010010C1010010C101001047
:10017000C1010010C1010010C1010010C101001037
:10018000C1010010C1010010C1010010C101001027
:10019000C1010010C1010010C1010010C101001017
:1001A000C1010010C1010010C1010010C101001007
:1001B000C1010010C1010010C1010010C1010010F7
:1001C000EFF30580103800BE00BE00BE00BE00BECA
:1001D00000BE00BEF2EB8871C8DE0610E8DE061035
:1001E0003802001090A31AE700201E49086006C8D4
:1001F00081F3088810471C480068002801D00020BF
:10020000F3E70DA40ECC002902D000F012F8F9E7B4
:100210001649174A002000E001C19142FCD115495E
:100220008847154988471549884700BEFDE701C939
:1002300001C29A42FBD37047E8DE0610C0000020DE
:10024000C80A0020F0E80610000004200000042086
:10025000F0E8061000100420001004200000000048
:100260007047000008ED00E0000000D0C80A002040
:100270004C240120ED24001049040010E524001056
:1002800030B594460C00E368A2686446050008880F
:1002900089880133013283B05B1A121A9BB292B281
:1002A000009402F0B9FE280005F07CFB03B030BDDD
:1002B00070B501F007FA02000B0014001D00094997
:1002C0008C4603C9241A8D412000291E02D1064CF8
:1002D000A04206D9054C03C461460CC10122044B5F
:1002E0001A7070BD480C002070170000500C0020E0
:1002F00049240120F0B54746CE46294B80B59846A3
:10030000002300259946274C274E284F83B00AE04A
:10031000002200232260636043464A4600251A609B
:10032000142003F0B9FA01F0CDF922686368801A4D
:100330009941002902D11E4B984203D92268636873
:100340001A43E5D13378002BEAD04B4633703A6834
:100350007B681A43E4D03A687B681649281C0092EF
:10036000019301F096FF009A019B051C00211248A1
:1003700001F0F2FC01F0C2FF104901F08AFF291CD4
:1003800001F070FF0E49051C01F0B2FF002800D0FB
:100390000B4D281C01F0D4FF43461860C0E7C0464F
:1003A000781F0020480C002049240120500C002018
:1003B00060E316003333333F008793039A99993EE5
:1003C00000E0AB45F8B5CE46474680B501F07AF976
:1003D000194B04009946194B0D0000269846184FFA
:1003E00020E0184B984223D8002E13D04B46FA2118
:1003F000186843464901584301F048FC6930FF3012
:100400000600B868310014F049FE310078691AF02E
:1004100045FF0126052014F0AFF80EF049FA05203B
:1004200003F03AFA01F04EF9001BA9410029D8D097
:1004300002205CF0E7FAD9E7781F00207C0B00006F
:10044000A80D0020BFC62D0010B582B002F02EF915
:10045000022002F01BFC022002F020FB09F00EFE3D
:10046000A021802005F086F81E49040005F082FADC
:1004700000230093802300221B495B01200005F02C
:10048000DDF95CF0D9FA0E2000F03EFAD02380228C
:100490001B06D2019A62012100220E2000F0ACF965
:1004A000012204210E20114B00F0B8F9104B8022DC
:1004B000019301230F490093520100230E4803F0DA
:1004C00073F80E4B8022019302230D490093D20052
:1004D00000230C4803F068F803F0D8F80A4800F04D
:1004E00031FAC046810200106C0F0020B1020010EA
:1004F000C421002020D40510C50300105C22002078
:100500002CD40510F502001038D40510D023F0B516
:10051000DE464E46454657461B061A68E0B5A64BD2
:1005200091008846595853009B18A44A1B0183B078
:100530009B189B4600260191002939D0A04B0F271C
:100540009A465A46F30808339B009D58012334000D
:1005500099460836002D22D0390029402D0900295E
:100560001AD0534642469A582300E240203BDB17FC
:1005700013404A4613420DD1072208002240920040
:1005800090400200E3088F483C339B001A50200043
:10059000019B9847002D02D00134B442DCD3202EB9
:1005A000CFD103B0F0BCBB46B246A946A046F0BDD1
:1005B0000F23834A0192CC08220058460F000832CC
:1005C000920012580837002A00D1CDE018001040E0
:1005D0008446100913421AD04546019E7559AA4611
:1005E00020256D42A94689444D46ED17A94655463A
:1005F000CD402E004D4635400126354204D1664699
:10060000704D3C34A4006651002800D1ACE01C00C1
:100610000440A446140A034219D0481C81464046AF
:10062000019D4E46285805000800F5401F38C017A8
:1006300028400125284207D165462D01F0082E00EB
:100640003C30604D80004651002C00D18CE01800F9
:1006500020408446100B234211D08C1CA1464446F6
:10066000019D4E462C5925000C00F5401E3CE41718
:100670002C4001252C4200D181E0002874D01C00C0
:100680000440A446140C034210D0C81C81464046C6
:10069000019D4E46285805000800F5401D38C0173A
:1006A00028400125284273D0002C5DD0180020403E
:1006B0008146100D23420ED00C1DA4464546404CE9
:1006C00064596546EC4025000C001C3CE40F2C42AC
:1006D00067D0002848D01C000440A446140E0342F2
:1006E00017D0481D81464546354840594D46E8409B
:1006F000050008001B38C00F284208D1654648464F
:100700002D052E00C0082F4D3C3080004651002C96
:100710002AD0180020408446120F234229D0454693
:1007200027488C1D82464059E040050008001A38D1
:10073000C00F284206D1E0086446224D3C30240612
:10074000800044510731002A0ED0504644460459D7
:100750000800CC402038C00F204205D1C9081948F4
:100760003C31120789000A50202F00D119E73900C7
:1007700021E7002AF8D0124807318246E5E76546AE
:100780002D02F4082E003C340E4DA400665174E78F
:1007900065462D03F0082E003C300A4D800046517E
:1007A00082E74D4664462D042E00E408054D3C3496
:1007B000A40066518DE7C046380F0020004101407B
:1007C000542200200040014010B54024074A830015
:1007D0009A181268C0005440C0222240044C1B19D1
:1007E0001A60044BC018416010BDC04604C00140EF
:1007F00004D0014000400140064B8000C3181B6834
:10080000C90092000A435A400C231340024A801840
:100810000360704704C0014004D00140F0B5C40833
:1008200046469846A3004F46994607230340D025E5
:100830009B00D64699402D06C0B517000E002A68C9
:10084000002F1AD12B4B3C34A400E15053009B18CD
:100850001B01294A4B449B1819602C68274FA400A0
:100860003B59002B25D04346002B38D043463B5103
:10087000E0BCBA46B146A846F0BD204F93009A4668
:10088000FB58002B1FD04346002B2DD0534641462A
:10089000F950184B3C34A400E65053009B181B0140
:1008A000174A4B449B1801210D201E6000F0CEF822
:1008B000DEE74346002BDBD000220D2011493B51DF
:1008C00000F000F9D4E74346002BE2D052460D2059
:1008D000BB500C49002200F0F5F82A68D9E70D203A
:1008E000084900F0CBF9C1E70D20064900F0C6F930
:1008F0002A68CBE70040014000710140380F00201A
:10090000006101400D0500100123D0228340120632
:1009100093629361084A83009A18116840225140FB
:1009200080320A400549C0005B181A60044BC018A9
:10093000052343607047C04604C0014004D0014015
:10094000004001400FB400B5084883B001F0FAFE42
:10095000049B002B07D005A91800019101F08CFD24
:10096000034801F0EFFE012001F09EFD54D4051074
:1009700050D4051010B50148FFF7E4FF64D405100A
:1009800070B58C461600EFF3108472B60F490B68F1
:10099000002BFCD0BFF35F8F6346DB08C51807222E
:1009A000C05C63461A40012393401A000240034290
:1009B00007D118432870BFF35F8F0A6084F3108853
:1009C00070BD61463000FFF7BDFFC0462C0100D06E
:1009D000044A1078431CDBB2172B00D91023137084
:1009E0007047C046A00300200021044B044ABFF317
:1009F0005F8F02C39342FAD17047C046000100D016
:100A0000800100D0084B094A1360094A1360094A63
:100A10001360094A1360094A1360094A1360094ABE
:100A20001360094A136070478080808000E400E012
:100A300004E400E008E400E00CE400E010E400E07E
:100A400014E400E018E400E01CE400E01F23184078
:100A50001E3B8340002905D0C021044A4900535061
:100A600013607047802201498B50FAE700E100E0F3
:100A700010B5EFF3108C72B60F4A1368002BFCD040
:100A8000BFF35F8F0D4B10309B6880001B580C4AE2
:100A9000934201D099420CD1084B9B681950BFF387
:100AA0005F8FBFF35F8F0022034B1A608CF31088B7
:100AB00010BD00F0B5FFC046240100D000ED00E0FD
:100AC000C1010010F0B5DE4657464E464546E0B53A
:100AD0008B4685B0EFF3108872B616005B4A136838
:100AE000002BFCD0B246BFF35F8F002558494D570D
:100AF000002D00DAA8E06B00564A01935B199B00B9
:100B0000D418A77910300F70534980008968844643
:100B10000F58B91A2F2933D8012039008143CE79D3
:100B2000564500D86AE0A1465646039307E05800B0
:100B3000C01880001018C479B4424DD901000623B2
:100B4000CB56002BF3DA081D4C46B2468146029381
:100B5000424B4E46043CA41B2405414E640D3443D5
:100B60008C808D7101994919890052189380029BDC
:100B70003C4993715346D3715B461160936017E013
:100B800039498F4260D139490127D152384902335E
:100B9000D3180439CB1A324A1B055B0D134363800B
:100BA000344BE671A380FF23A3715B462743A36008
:100BB0006246294B9B689F50BFF35F8FBFF35F8FE7
:100BC0000022224B1A6088F3108805B0F0BCBB46A7
:100BD000B246A946A046F0BDB2460E1D4C46B146EF
:100BE00088880293039B4005001504334844D318BA
:100BF000C31A1B051A485B0D0343AAE79E1CB146A6
:100C000091444E460F001C4DBF1A7F417D432D0D70
:100C1000164FA571D752164F0433043FD318BF1B8C
:100C2000CB1A3F05043B7E0D1B050D4F5B0D3E436C
:100C30001F435346E3715B46A3600A4BA78066805F
:100C4000044327000B60B3E700F0EAFE240100D064
:100C500048240120A403002000ED00E001BD0000B5
:100C600000E0FFFF01488047C101001000A1FFFF25
:100C7000D403002001BDFFFFAAAA0000F0B5DE46A4
:100C800057464E464546E0B583B0EFF3108972B63D
:100C90005D4A1368002BFCD0BFF35F8F5B4B5C4E4B
:100CA0009A68030010339C0012599846B2423BD018
:100CB0008A424CD0574FBC46D71B2F2F34D8564BA7
:100CC0001F271D680740AA460125BD4080270195C2
:100CD000DD51BFF35F8FEFF30585AB46002D38D1B3
:100CE00001231D008540280055460540100098430B
:100CF0008768AA46B94208D17CE073009B199B0023
:100D000063449F68B9422DD0180006268657002EEE
:100D1000F3DAB9424CD05346002B1ED0C0213E4BD3
:100D20000198490058501860384B9B681A51BFF31E
:100D30005F8FBFF35F8F0022334B1A6089F31088F7
:100D400003B0F0BCBB46B246A946A046F0BD320097
:100D5000EAE7A845C4D000F063FE80232E4901983D
:100D6000C850E1E70627DF57002F22DB7900C819BA
:100D700085002E006644B0689860F079D87106202E
:100D800030569871002826DB6046B688C01A760572
:100D90003615761980190005204E400D3043988095
:100DA000CB191F499B000878634498710F70B2E714
:100DB00003005946002910D1FF3181711949818002
:100DC000174865460178997117495B1B5B41594388
:100DD000090D01709FE71348E1E714491448C91A47
:100DE00008394E02760D3043988012484908014375
:100DF000D98090E70627C7570300002FB6DA594677
:100E00000029EAD13200DBE7240100D000ED00E048
:100E1000C1010010A403002000E100E000E0FFFF9A
:100E20004824012001BDFFFFAAAA0000DE03002024
:100E300000F0FFFF00F8FFFF0123034370B59C465D
:100E4000EFF30581EFF3108572B6214A1368002B8A
:100E5000FCD0BFF35F8F1F4B04001F4AE41A6441AC
:100E60006243120D1D4C8900A66852B27658664541
:100E70001CD00621595691421CD01221595691423C
:100E800022D01E215956914220D02A21595603249E
:100E9000914210D0124B19781A708171BFF35F8F95
:100EA00000220B4B1A6085F3108870BDA3680D4CAF
:100EB0005C50EFE700246100091989005B18FF21ED
:100EC000997109499980E5E70124F4E70224F2E7E2
:100ED000240100D0A4030020AAAA000000ED00E035
:100EE00048240120C101001001BDFFFF024BC918B9
:100EF000890001607047C0464000003470B5114C55
:100F0000114DAC420FD2FF262368002B0CD0FFF707
:100F10005FFD01002000FFF7E9FFA680BFF35F8FB0
:100F20000834AC42F0D370BDFFF752FD0100200041
:100F3000FFF7DCFF2671BFF35F8F0834AC42E3D3C9
:100F4000F1E7C046C00A0020C80A00200A4B196811
:100F5000EFF3108072B60A68002AFCD0BFF35F8FEF
:100F60001B68BFF35F8F00221A6080F3108840BFB8
:100F7000002000217047C04664230020F0B5DE4603
:100F800057464E464546E0B585B0EFF3058303224C
:100F90001A40B34B91005F58012393409B46029245
:100FA0005A468846AF4B1A60AF4B03935B46AF4837
:100FB00043630823FE5E002E37DABB881BB2002B8A
:100FC00000DBA4E0BB79002B00D0E5E00823F95E4C
:100FD000002920DB4B007A695B18DB00D3189D6881
:100FE000DC686B1C00D104E1A04801004144826A26
:100FF0000B69AE1A9B1A9E4215D30123026A02980E
:1010000083401A420FD0994800F054FB8C4202DC16
:10101000CCD18542CAD940BF05B0F0BCBB46B24670
:10102000A946A046F0BD0D61EDE77A6973009146CF
:101030009B19DB0099444B469C68DD6800F03AFB45
:101040008D42BADC00D1F6E0002D00DADBE04A4642
:101050004B4652691B699246039A934200D1CCE0F9
:101060004A460821785E528800045146104398474A
:10107000009001910099019A0B00134300D1C2E046
:1010800013000A00002B00DBD9E020002900801AA1
:1010900099414B469860D96000229B5E002B00DA94
:1010A0008BE75D007C69EA18D200A218009494686E
:1010B000D268A2468A4200DD7FE702D1844200D98D
:1010C0007BE70824A4463B81BC44009C00972F008A
:1010D0006546B4463E0006E05E00F218D200A21853
:1010E0009768D268BA468A4207DC00D1B4E0F318A8
:1010F000DB00E518E35E002BEEDA66464A46009F09
:1011000013802E80BB881BB2002B00DA5AE73A69A5
:10111000EFF3108172B61368002BFCD0BFF35F8F22
:101120000123BE885B42BB8036B23B69BFF35F8F51
:1011300000221A6081F31088002E00DA42E73B009B
:1011400008333A0099467D6973009B190824115FA2
:10115000DB004846EB18002913DB9C680093A4468B
:10116000DC6806E0A34240D00023F95E3800002985
:1011700006DB4F007F18FF00EF19FB68A342F1DD8B
:10118000009B068000201E5E1980002EDCDA17000E
:10119000BB79002B00D119E70023BB710823F95E4E
:1011A0004B1C00D137E73D000835AC467C6903E0B5
:1011B00084464B1C00D109E74B005B18DB00E018AC
:1011C0000A00E15E43881BB2002BF1DA01256D4273
:1011D000EE178560C66008257B5F9342E9D06346C1
:1011E00019803B8903803A81E3E7BB686345BBD93B
:1011F000C6E7631C00D0F7E605E7534650461B6977
:101200009847002823D14B461B883A693B81EFF36E
:10121000108372B611680029FCD0BFF35F8F494676
:101220007A880A803A697E80BFF35F8F002111605F
:1012300083F31088C1E6844200D805E7BDE60B4879
:1012400000F038FA009B019CC018614121E7534629
:101250000CCB009201930DE7824500D847E74CE79D
:10126000C82100203C7005407D0F00100040054063
:1012700070B52D4C2569002D04D00A212B48FFF7AD
:1012800035FE70BD2A4E0321294800F009FAE660B8
:10129000FFF79EFB274B0322C018D02322701B06AA
:1012A0001B6801216370244B8000A3600F23206121
:1012B0000220638063694942A18019800231198646
:1012C00047311D83585218315A5275325C39995240
:1012D00018320131995218320131995218320131C4
:1012E0009952083518329D520231183299521832EB
:1012F0000131995218320131995218320131995203
:101300001832013199521832013199520B4B0C4964
:10131000DC6001303562FFF7ABFB01210320FFF7F2
:1013200095FB084B1D60A8E7F8030020642300200C
:101330000040054040000034FFFF1000C82100209D
:101340007D0F00103860054070B582B000920193A7
:1013500001000269EFF3108472B61368002BFCD011
:10136000BFF35F8F0223C85E0D6900283FDB4A6927
:10137000430016001B18DB00D218F35A4B80BFF352
:101380005F8F00232B6084F31088069B1361079BFB
:101390005361009B019C9360D460538801335B04CC
:1013A0005B0C1D1C002B20D0ACB2030455802343E2
:1013B0000D69EFF3108C72B62C68002CFCD0BFF3D3
:1013C0005F8F8C88148088800A69BFF35F8F00204C
:1013D00010608CF310880A7801309040CA68084980
:1013E00052181060180002B070BD0125DCE7BFF391
:1013F0005F8F00232B6084F31088013BF2E7C04627
:101400003C20000010B543890A1493421ADD5300B2
:101410009B184269DB00D3180469EFF3108C72B695
:101420002268002AFCD0BFF35F8F5A88090494B267
:10143000090C8A4208D00369BFF35F8F00221A604B
:101440008CF31088002010BD094A22435A800123E2
:1014500002698371BFF35F8F002111608CF31088E4
:10146000027804499340C268012052181360EAE7E9
:101470000080FFFF3C200000F0B5C64600B582B0FA
:10148000040000F01FF9FA2206000F0020000023DC
:101490000021920000F0C6FE8019794104000D1E63
:1014A00002DA01242E4D644206267642F7173619D9
:1014B0006F41AF4214D811D000F004F932003B0064
:1014C000121A8B41002B15DC002B46D0200029007E
:1014D00000F002F902B080BCB846F0BDA642EBD9DC
:1014E0000026002700F0EEF832003B00121A8B4174
:1014F000002BE9DD00F0E6F832003B00121A8B41C8
:10150000002B0ADB00230193164B32000093164890
:101510003B00FFF719FF0130D8D000233900B04657
:101520009C46124A1248536A994204D8966A464524
:10153000CCD29942CAD10668EFF3108772B63368ED
:10154000002BFCD0BFF35F8F0368BFF35F8F66464D
:101550001E6087F3108820BFE5E7002AB6D0C9E7F0
:10156000FFFFFF7F4D0F0010F803002000400540F3
:1015700064230020F0B5CE46474680B504000D0038
:1015800085B0EFF305838946002B32D1404E336896
:1015900083422AD03F4FFB683A789846180003925E
:1015A00000F088F8039A131D42469B009B582200C6
:1015B0001B1A9C462B00121A8B41190000231000A5
:1015C0008B4225DC22D020BF334B586A48452BD3B1
:1015D000401B9A6A431E98410023A2425B41184374
:1015E00005B0C0BCB946B046F0BD73688B42D1D1DE
:1015F000E9E7294900204B6AAB42F1D38A6A5B1BB9
:10160000591E8B41A24240411843E9E78445DAD98B
:1016100000F058F822002B00121A8B41002B05DA3B
:101620001D4A536A4B4529D20020D9E70023019374
:101630001A4B2200009338002B00FFF785FE00288C
:10164000EEDD154B30C65A6A4A4515D39B6AA34254
:1016500010D301003800FFF7D5FE0F4A0020536A6F
:101660004B45BDD3926A5B1B591E8B41A242404140
:101670001843B5E74A45ECD120BFEAE70020926A5B
:101680005B1BA24240415A1E93411843A8E7C04643
:10169000F0030020F8030020004005404D0F00102B
:1016A00010B5024A0248FFF76BF910BD74D405105B
:1016B000400F00200300416A0A00986A596A8A4272
:1016C000FAD17047034B596A0A00986A596A9142E5
:1016D000FAD1704700400540064A536A9942FCD847
:1016E00007D1044B02E05A6A914202D19A6A9042B1
:1016F000F9D8704700400540F8B5DE464E464546ED
:101700005746E0B505008B4618000A99914600F04F
:10171000E5FA0A9B6C001E026419304BA400E41821
:10172000636880469E4200D966602F1FFBB29A46CE
:10173000012B2FD9C0238022294FAD009B0179595D
:101740001201E3181A6000291BD14B4622685B0185
:101750005340E022134080225201A21813605346E6
:10176000012B2FD9802380229B01E31812011A60DC
:10177000434666607B51F0BCBB46B246A946A046D4
:10178000F8BD786900F0AAFA013043001B18033B4A
:10179000FDD2DAE75B46012BCCD1C02303229B01AB
:1017A000E3181A60023AA3681A42FCD04A4623683A
:1017B00052015A40E023134080225201A218084FE0
:1017C0001360AD0058460323216841400B4013606D
:1017D00001228240A3681A42FCD0C3E70080004087
:1017E000440F0020F0B5D6464F4646464400984682
:1017F0002418324BA400E41863688A469146C0B5A9
:10180000FF2B02D880235B006360061FF6B2012E17
:101810002FD9C02380222A4F85009B0179591201BC
:10182000E3181A6000291BD14B4622685B01534024
:10183000E022134080225201A2181360012E30D9F9
:10184000802380229B01E31812011A6080235B0031
:10185000636043467B51E0BCBA46B146A846F0BD42
:10186000786900F03BFA013043001B18033BFDD2BE
:10187000DAE75346012BCCD1C02303229B01E318A6
:101880001A60023AA3681A42FCD04A462368520101
:101890005A40E023134080225201A218084F1360DF
:1018A000850050460323216841400B40136001220C
:1018B0008240A3681A42FCD0C2E7C04600800040C4
:1018C000440F0020014B8000C0587047440F002097
:1018D000F0B5C646040000B52348160098460D0032
:1018E00000F0FCF90100300000F0F8F94346069AD8
:1018F0001B04120313439C4623680600002B22DBC3
:101900001A4B1B48E218531E9A4180235242120B75
:101910009B011203D218174B1A60174B1A60130061
:1019200001688B43FBD12122144B2560E318A6608C
:101930001A602268002AFCDA6246E26008221A6015
:1019400080BCB846F0BD3F2322681340AB42D7D1DC
:10195000A3681B051B0D8342D2D1EE22E368D2029D
:1019600013406345CCD1EBE7001BB7000040FDBF3F
:1019700008C0004000E0004000F0004004300000DB
:101980008023024A9B000B43D362704700800540CE
:10199000002310B50100988A1B8B984710BDC046E4
:1019A000162310B5010018885B88984710BDC04603
:1019B000F8B54746CE4680B50F1E18D01423994679
:1019C000043304000025012698464B4618884346F8
:1019D00021681B88984701C4431E98410135064081
:1019E000AF42F2D13000C0BCB946B046F8BD0126C6
:1019F000F8E7C046AA23064A1B0113608D235B004B
:101A0000D3600449044B19605368002BFCDA70471B
:101A10000040024000B0FA00006002407047C0463B
:101A200010B50148FEF78EFF98D4051070B5074D2C
:101A3000074EB54209D20024013E761BB608013696
:101A400008CD01349847B442FAD170BDE0D30510F7
:101A50001CD40510054B064A06491A60064A074B76
:101A60001A6010000B689843FBD1704700E00040FB
:101A7000BFCDFBFE08C00040FE7F3C0000F00040F0
:101A8000044BDB6C002B03D18022034BD2021A6083
:101A90007047C046000011504C201150044A054BBD
:101AA0001A60054A1368DB018033FBD17047C046DA
:101AB000FFFFFF0100F0004008C000404022034B40
:101AC0009A675A671A67DA667047C04600F00140A5
:101AD00010B5FEF789FF10BD70B52749274E284D78
:101AE000761AB4082200302C00D930222800920047
:101AF00000F0B4FC2F2C3BD823002A3B214A052BB5
:101B00001BD93020AE197107001B2600CB0F00290E
:101B100002DAA1006A50661CC01AE3189B00410853
:101B2000EB18C900C9181A605A6008338B42FAD101
:101B3000012303421CD098438419A300EA50631C7C
:101B40002F2C15D09B00EA50A31C2E2C10D09B00EC
:101B5000EA50E31C2D2C0BD09B00EA50231D2C2CAB
:101B600006D09B00EA50631D2B2C01D09B00EA504D
:101B7000054B9D6070BDC04600010010C001001003
:101B800000000020C101001000ED00E0002310B5AE
:101B9000294C82B0A367FFF72DFF0122274B1A6063
:101BA000636C012BFCD10322254B1A60224A936BF4
:101BB000012BFCD1013300930121224A2248043336
:101BC000FFF786FE052301210093204A2048FFF7F6
:101BD0007FFE0022022104201E4BFFF703FE00229D
:101BE000012105201C4BFFF7FDFD002200210720ED
:101BF0001A4BFFF7F7FD002200210820174BFFF7D3
:101C0000F1FD8023DB000093002200210920134B0B
:101C1000FFF772FD0022104B00210620FFF7E2FDC6
:101C20000420FFF74FFE0E4900F058F80100002095
:101C3000FFF7A6FE02B010BD008000403CB000409F
:101C400030B00040002F685900800240008C864769
:101C500000C00240001BB70040597307006CDC0253
:101C600040420F0001480421014B18471004002096
:101C7000B1190010014B5B681847000010040020E8
:101C8000014B9B681847000010040020124A936F14
:101C90009B0815D29066D166002905D0FFE7FFE7C3
:101CA000FFE7516F106F704704B580210906C21716
:101CB0005140002800D0C8435BF08AFB002104BDDE
:101CC000F0B5146E556E576F166FFFF7E3FF14668D
:101CD000556657671667F0BD000000D0114A936F34
:101CE0009B0813D210665166002905D0FFE7FFE775
:101CF000FFE7516F106F704704B5002801D0002036
:101D0000C0435BF065FB002104BDC046F0B5146E16
:101D1000556E576F166FFFF7E5FF146655665767E8
:101D20001667F0BD000000D094464A4A926F9208B0
:101D3000624601D228E0C046F0B5464E346E756E5C
:101D4000776F366F00F020F89446424A1466556665
:101D5000576716676246F0BD94463E4A926F9208F6
:101D6000624601D254E0C046F0B53A4E346E756E0C
:101D7000776F366F00F04CF89446364A1466556615
:101D8000576716676246F0BD002B24DB11D000298F
:101D90003EDA00B5C943404200D1013100F038F8C5
:101DA000C943404200D10131DB43524200D10133EB
:101DB00000BD002AEBD1002801D1002905D0002068
:101DC000C90FC90701D1C043410800B55BF0D0FA83
:101DD0000022002300BD00B500290ADBDB4352428C
:101DE00000D1013300F014F8C943404200D1013161
:101DF00000BDC943404200D10131DB43524200D112
:101E0000013300F005F8DB43524200D1013300BD3D
:101E1000002923D1002B18D1002A0CD0BC460D4F2D
:101E200038667A6600210023FFE7FFE7FFE77A6F55
:101E3000386F67467047002801D00748010000B599
:101E40005BF096FA0022002300BD02000B00002088
:101E500000217047000000D0FFFFFFFF002B00D0E3
:101E6000BFE0130C28D1002AE7D080B4114F3966A7
:101E70007A66FFE7FFE730B4040C7B6F396F1B0411
:101E800023433B667A66FFE7FFE7FFE7C04684B27D
:101E90007B6F3D6F1B0423433B667A66FFE7FFE7DA
:101EA000C04600232C042D0C7A6F386F001969414D
:101EB000B0BC7047000000D0F0B594460025140E69
:101EC00001D112020835140F01D112010435940F0B
:101ED00001D192000235D40F01D152000135D40B4B
:101EE0000134254F7C66254C3C660E0C93B2FFE70F
:101EF000FFE7FFE73C6F6643360C7703BE4673434C
:101F0000DF0B5B04C01AB941130C7343DB18C91A09
:101F1000CE086643360CB64493B273431F0F1B01C1
:101F2000C01AB941130C73431F0B1B05C01AB941EA
:101F3000860D8F023E436643360C092D24DB520A80
:101F40007243801A7703460A6643360C16235B1BDE
:101F5000DE40DF40BF1964466643821B704604358D
:101F600006330100D940A840C01900D30131A24274
:101F700006D20023F0BD0000000000D0FFFFFFFFED
:101F8000121B0130F3D3F1E709277F1BFE406446A3
:101F9000A2B27243801A00D20139220C7243130C90
:101FA0001204821A99410B00704604351337010060
:101FB000F940A840801900D30131002B02D1A24280
:101FC0000AD2F0BD013000D30131121BFAD2013B1D
:101FD000F8D1A24200D2F0BD013000D30131121B72
:101FE000F7E7F0B51C0C00D080E00CB400251C0A0B
:101FF00004D11B02160E3343120208351C0B04D108
:102000001B01160F3343120104359C0B04D19B00B6
:10201000960F334392000235DC0B02D192185B41DC
:1020200001351C00971864410134464F7C66464CCC
:102030003C660E0CFFE7FFE7FFE7C0463C6F6643D8
:10204000360C7703BE4697B27743C01B00D20139E6
:10205000C01B00D201399FB27743C91BC91B170CA3
:1020600077437E04FF0B801BB941CE086643360CD4
:102070000C2D33DBB644120B1F053A431B0B97B2F2
:102080007743C01B00D201399FB27743C91B170C9D
:1020900077433E043F0C801BB941860D8F023E43BF
:1020A000664329277F1BFE400C3D7746AF40BF1992
:1020B00030BCA2B2ABB272437343801A9941220C76
:1020C0007243130C1204801A994102000B0001376D
:1020D000001BA941F9D2781E0021F0BD0C277F1BFF
:1020E000FE4077467F0BAF40FF19E0E700245D1C00
:1020F00007D0144F7D663966FFE7FFE7FFE7FFE78C
:102100003C6F95B29EB265436643401BB141150CCE
:102110001E0C6543664336042F0C3E432D04401BC2
:10212000B141994204D202000B0020000021F0BD11
:1021300001D19042F7D3801A994101349942F2D3E8
:10214000F6E70000000000D0FFFFFFFF10B50148D8
:10215000FEF7F8FBA4D40510132370B51D78012DEC
:1021600019D014DD1D48FFF71BFC06001C48FFF7C3
:1021700017FC1C4C80223100200000F06FF9022D6A
:1021800006D01948FFF704FC184B186070BD154CB9
:10219000174BA364F5E7174B124C23606360A360F1
:1021A000E36023616361A361E36123626362A3620D
:1021B000E36223636363A363E36323646364A364ED
:1021C000E36423656365A365E36523666366A366CD
:1021D000E36623676367A367E367D9E753440000B7
:1021E00053460000580C00204C33000060220020B1
:1021F000F92100104D21001007B5604601880A0A38
:102200000230DF2AFAD1C9B2820804D3028840889A
:102210000004104300E00068014A5050039007BDDD
:10222000580C002051434343C9188C46110C83B20B
:102230004B4310B4040C614392B280B250436243EA
:102240001C041B0C001910BC59411304120CC018BB
:1022500051416144704700004840414048400E4BA6
:102260005B6818470C4B1B6818470C4A936F9B0818
:1022700002D2094BDB681847F0B5146E556E576FE4
:10228000166FFFF7F6FF054A14665566576716671F
:10229000F0BD014B9B68184764220020000000D06D
:1022A00007B548404140484001E0C04607B54200FC
:1022B000120E03D0FF2A03D1420218D8C00DC00568
:1022C0004A00120E03D0FF2A03D14A020FD8C90DCB
:1022D000C9050122414005D4414001D5814207BDD5
:1022E000884207BD0143491801D0C043001807BD0B
:1022F00000B5FFF7D5FF804100BD0000C10FC90741
:1023000000D54042002817D0F44603B40B4B1B689D
:10231000984706BC81409E384042803107D20B0668
:1023200007D04900490AC0051043084360470130FF
:10233000F8E7490A8902F5E77047000060220020AB
:1023400041000A0E80231B067E2A0BDD9E3A0BDA23
:10235000C1174002400818435242D04049000131A1
:102360004843704700207047C00FC01801387047BD
:10237000C0420DD300B540004008002100F00EF827
:10238000002801D4404200BD8020000600BD0000AE
:10239000014BDB691847000064220020014B5B6A97
:1023A000184700006422002010B50148FEF7CAFA61
:1023B00050D40510132310B51C781148FFF7F0FA1C
:1023C000012C0BD004DD010080220E4800F046F8FD
:1023D0000D48FFF7DDFA0D4B186010BD094C0100E8
:1023E0005422200000F03AF82200200008498032F0
:1023F0000368002B00D1016004309042F8D1E7E778
:1024000053460000642200204C330000602200206C
:10241000A923001010B504005AF02EFB002804D0A8
:10242000034B04199C4200D810BD0248FEF78AFAFB
:1024300000000420BCD4051010B55AF027FB10BDD5
:1024400001480421014B184720040020B119001055
:10245000014B1B681847000020040020014B5B68FB
:10246000184700002004002010B5002800D110BD3E
:1024700000F01EF9FBE7C04610B5094A03001468D6
:1024800084B0002C08D0012200910648524203A9D2
:10249000A047012004B010BD00F054F90020F9E776
:1024A000801F00206924001000BEFDE77047C04671
:1024B000094A1368002B06D008491818884208D822
:1024C000106018007047064B0449181813608842C2
:1024D000F6D901235B42F4E77C1F002000000420B2
:1024E0004C24012010B5FFF7DFFFC04670B5FFF7A1
:1024F0009DFA074D074EB54209D20024013E761BD6
:10250000B608013608CD01349847B442FAD170BDFF
:102510001CD4051020D40510030010B508001100CC
:102520001B68984710BDC046F8B5437D07000D00F5
:102530001600002B38D0002A1ADD0B780A2B18D091
:102540000020012E09D0012421006B5C01340A2BEC
:102550001AD0B442F8D1864203DD311A3B682818FC
:102560009847AD19013D2B780D3B5A4253413B75BD
:10257000F8BD037D002BE3D102210E483B6898474C
:10258000012EEED00120DEE76B1E5B5C0D2BE0D050
:10259000884203DA091A3B6828189847054802213F
:1025A0003B6898472000D4E703681100280098474B
:1025B000DEE7C04624DE0510F0B54646D6464F4657
:1025C000C0B582B090461C0006000D00FFF77AF8F7
:1025D00000232F4A12184B41002B02DA01222D4B07
:1025E00052422D4908008A465AF0E2FE81466B1C91
:1025F00003D130005AF040FD0500002C27D0274FB2
:10260000274B1C68002C18D04346002B21D1254BAA
:10261000984602E02469002C0FD02368002BF9D0E3
:1026200043461B68002B01D09C42F3D120002A00B6
:102630003100B8472469002CEFD14B46002B23D141
:10264000280002B0E0BCBA46B146A846F0BD164F1D
:10265000D6E7144B984602E02469002CEDD023689D
:10266000002BF9D043461B68002B01D0A342F3D1C5
:102670002A0031002000B8476B460A222000DA7198
:10268000D91D093AB847E7E750465AF069FED7E73F
:1026900040420F00FFFFFF7FC00A002029250010E5
:1026A0006C1F0020741F00201925001000207047A7
:1026B000F0B5CE46474680B583B06B460600DD1DBB
:1026C0002870FEF7FFFF0023194A12184B41002B18
:1026D00002DA0122174B52421749080089465AF084
:1026E00067FE164B80461C68002C14D0144F02E085
:1026F0002469002C0FD02368002BF9D03B68002BF5
:1027000001D09C42F4D1200001222900FFF70CFFE8
:102710002469002CEFD14346002B05D1300003B0D3
:10272000C0BCB946B046F0BD48465AF019FEF5E7C0
:1027300040420F00FFFFFF7FC00A00206C1F0020F7
:10274000741F002070B504005AF096FC01230100AC
:10275000050001222000FFF72FFF084B1C68002C0A
:1027600006D06368002B05D098472469002CF8D167
:10277000280070BD2469002CF3D1F9E76C1F0020FC
:10278000F0B5454680463C4B4E4643445A1E934165
:10279000DE4657468022E0B55B421B0C92021B04CA
:1027A0009B18364A83B01360354A89463549136011
:1027B0001D000A689543FBD10620FFF783F84346C6
:1027C0005A6802231A4000922F4A8026424413601E
:1027D0004B468246D90D580201920B00020002249A
:1027E000760006E0924506D3023412184B41B442FB
:1027F00001D0002BF6D080272602361B7F0002E096
:10280000361B012F36D031005046BB46013FFFF743
:1028100065FA8145F4D2594661433D0243461C6145
:102820001B68FF226B40802512026D011340454456
:10283000164A2B60009B4244136002204346019CD1
:102840005B6820604446266807246640C8343440EC
:102850002C600324034013600D4B43441C60106044
:102860005046FFF73BFA03B0F0BCBB46B246A94660
:10287000A046F0BD2100D1E70000FCBF00E0004011
:1028800000F0004008C000400430000004200000B8
:102890002420000010B5EFF3108C72B60A4B9A6832
:1028A0008300D058814205D0084A90420AD3084A92
:1028B000904207D2044A9268D150BFF35F8F8CF3E5
:1028C000108810BDFFF7ACF800ED00E0C00100106B
:1028D000D401001070B5204C20492068FFF750FF4C
:1028E000022123681E485A681818016018680A40B7
:1028F000CD3181438020012540011818016019491C
:1029000012205B181A600121FDF75EFF01211320E0
:10291000FDF75AFF144C2088FDF7F6FF2A002388A4
:10292000D0249A40114E2406308862626261FDF71D
:10293000EBFF2A0033880E4E9A400023F05E62625D
:102940006261431C06D0FDF7DFFF0022B35E9D40AD
:102950006562656170BDC0463804002080F0FA02EF
:102960000430000004200000340400203204002061
:1029700030040020F0B5DE4657464E464546E0B5E9
:10298000037887B0002B77D0013B1D003E4BD0274A
:1029900001933E4B441C02933D4B3F069B46012353
:1029A00098460133994603E0013DEDB2FF2D63D017
:1029B0004046A21C019903926278237800920A880B
:1029C00044469040B86104A8C37102984E460388FB
:1029D0009C40BC615C4620684C46426822402D4CBD
:1029E00003191E608024C7260368B2467340640141
:1029F0000836011933400B60274B7F24C3181A6037
:102A000004ABD91D01225AF0DBFC0298009A03881E
:102A1000404698407861584614404A4600681D492F
:102A200043681340421849461160514602684A40C3
:102A300080214901164042181660174E8219039EE4
:102A40001360310022005AF0BBFC4046019B341950
:102A50001B8898406B461B7878615BB2002BA3DA29
:102A60002078661CFF2800D1F530013DEDB2FEF75D
:102A700003FD3400FF2D9BD107B0F0BCBB46B2462E
:102A8000A946A046F0BDC046340400203204002010
:102A9000380400200430000004200000002303213B
:102AA000F0B585B002AA93710A006B4B02401A7010
:102AB0006A4B04241B781D00A543012D0DD06849E5
:102AC0000020095E022A24D0032A0BD1022B00D059
:102AD000ABE0602302AA937187E0800713D46048BB
:102AE00001800321012A00D176E0022B00D198E079
:102AF000042B00D1A7E0C82202A88271012B12D1B9
:102B00008020802211E056490D800121022A00D048
:102B100078E0022B07D0042B00D19AE0082202A80B
:102B20008271012BECD0A02080224E4B18804E4B9E
:102B30001A804E4A4E4B12881A804E4B198001243F
:102B400022004D4BD02500931B8821009A4036234C
:102B50002D06AA6102AAD371484A494E138802275A
:102B6000994030680192A961464942684318C721DB
:102B70001F6003683A404B4008310B4080214901F7
:102B800041180B60404BC3181A6002ABD91D0122DB
:102B90005AF016FC2000019A3A491388984068615F
:102BA0003068CF264218C7214368176002683B404F
:102BB0004A4080214901164042181660324A02A953
:102BC00082181360063101225AF0FAFB009B1B8821
:102BD0009C406C6105B0F0BD022B1ED0042B2CD0A4
:102BE000A82202A88271012B14D0A02080221E4BA3
:102BF00018801C4B1A801D4A1E4B12881A801C4BD1
:102C000019809CE7032A00D06CE7682202A8827131
:102C1000012BEAD180208022E9E7A02302AA937148
:102C2000E3E7BE3302AA93717DE7042BEDD102AA3C
:102C30005C339371A0205022D9E702AA9C33937190
:102C4000A0205022D3E702AABC339371A0205022C7
:102C50006BE7A020502268E74A2401204B24012082
:102C6000402401203E240120422401203C24012054
:102C70004424012046240120340400203204002092
:102C8000380400200430000004200000F0B50125C5
:102C900085B00400FFF71EFE2A006A4ED027338855
:102CA0003F069A40684BBA61009300229B5E5A1C13
:102CB0000AD02A009A400520BA61FEF7DDFB009B8E
:102CC00000229B5E9D407D616048FFF753FE002C13
:102CD00000D193E0012C00D1A2E0052C0FD0042CF0
:102CE00026D05B48FFF746FE5A48FFF743FE022C0A
:102CF00030D0594B00201C70FFF7D0FE16E0802228
:102D0000564B57481A80574B1A80FFF733FE022262
:102D1000554B50481A80554B01321A80FFF72AFE56
:102D200001224D4B02201A70FFF7B8FE05B0F0BD2E
:102D300050224A4B4E481A804A4B50321A80FFF7B5
:102D400019FE1822484B43481A800022474B1A802C
:102D5000FFF710FE0125C02302AA93712A003388D1
:102D6000D0279A4036233F06BA6102AAD3712A00BF
:102D7000404B022100931B889A40BA613E4A3F4B68
:102D800010680192C3184268196003680A40C5318F
:102D90004B4008310B408021490141180B60384BF2
:102DA000C3181A6002ABD91D01225AF009FB280092
:102DB000009B02211B88019A9840304B7861106873
:102DC000C3184268196003680A40C5314B40083196
:102DD0000B408021490141180B60294BC3181A6030
:102DE00002AB991D01225AF0EBFA338800209D4076
:102DF000194B7D611C70FFF751FE97E72148FFF7E3
:102E0000B9FD0222184B13481A80184B013A1A8058
:102E1000FFF7B0FD104B00201C70FFF73FFE85E769
:102E200080220E4B0E481A800E4B1A80FFF7A2FD2F
:102E300002220D4B07481A800C4B01321A80FFF713
:102E400099FD56E7340400203004002094DE05107C
:102E500074DE051028DE05104B2401203E240120DD
:102E600064DE0510422401203C240120402401207E
:102E700054DE051032040020380400200430000025
:102E80000420000084DE0510F0B5CE4647465C4CB9
:102E900080B5248887B000195A4C0126248880B256
:102EA000091989B2CB18013B09040B431BBA0593DE
:102EB0002A238218013A0004024312BA049202AA99
:102EC000D3713200504B022401931B884F499A4022
:102ED0001300D0221206936191464D4AC72710680D
:102EE000CF2543188021904642681C600368490141
:102EF0007B402B4041180B60464B2240C31802A96F
:102F00001A60073101225AF05BFA3200019B3F49F7
:102F10001B889A4013004A46536142461068431882
:102F2000802142681C60036849017B402B404118A6
:102F30000B60384B2240C3181A6004A904225AF0CF
:102F40003FFA2B2302AAD3713200019B2F491B8821
:102F50009A4013004A469361424610684318802104
:102F600042681C60036849017B402B4041180B609C
:102F7000284B2240C31802A91A60073101225AF0D7
:102F80001FFA3200019B21491B889A4013004A46D0
:102F90005361424610684318802142681C600368F0
:102FA00049017B402B4041180B601A4B2240C3184B
:102FB0001A6005A904225AF003FA2C2302A8C3714F
:102FC000019B48461B8811499E4086614046006827
:102FD0004218802143681460026849017A40154014
:102FE000421815600B4A23408218136002AB01227D
:102FF000D91D5AF0E5F907B0C0BCB946B046F0BDDE
:103000004424012046240120320400200430000022
:103010003804002004200000F0B501242600184FD9
:103020001D003B88C6469E403300D026360600B5BC
:10303000B3612B009046FFF727FF2100114B0222BE
:103040001B889940104B71611868104943684118FA
:103050000A6001681340CD328A438021490141183A
:103060000A600B4942181360424606996A435AF0B7
:1030700087F93B889C40746180BCB846F0BDC0466F
:103080003404002032040020380400200430000002
:1030900004200000F0B5C64600B5040001F03CFA7B
:1030A000364A374E1368013313603368002B34D02F
:1030B000344BE26A98461B68002B28D0324D3349C6
:1030C0000B6801330B606364314B1968914200D285
:1030D0001A6093009B189B00E9184A68A2609068E8
:1030E0000700E060201D78609060EA58616101325D
:1030F000EA5001F01DFA43461B68002B04D03368E8
:10310000DA6AE36A9A4211D380BCB846F0BD3368EC
:10311000DB6A9342D2D83460D0E734601368012B65
:1031200007D0184BE26A9846174DC8E701F0E8F956
:10313000EAE7154D2F00380001F08CFA154B1437D3
:10314000BB42F8D1144B9846180001F083FA134F94
:10315000380001F07FFA124801F07CFA114801F0C2
:1031600079FA114801F076FA4246104B1A60104B7A
:10317000E26A1F60034B9846A1E7C0467023002017
:10318000DC21002000240120F02100207C230020ED
:103190008023002054220020AC230120C0230120E2
:1031A000EC2301201824012004240120E421002024
:1031B000E8210020F8B54746CE460400264B80B5EE
:1031C0001E68264B264D1B6889461F00254B1B6831
:1031D00028689846043001F073FA631C18D02B68F5
:1031E00034195C60A64208D929684046043101F0D0
:1031F0004DFAC0BCB946B046F8BD29683800043164
:1032000001F044FA184B1A68A242F2D91C60F0E7A8
:103210004B46002B0CD12A68731E53609E42E3D8A4
:1032200029683800043101F031FA0F4B1B68E0E7E0
:103230000E4B29685A688A6090682968C8602968B6
:10324000043141602968043191602A6853611A6829
:1032500001321A60CDE7C0462C240120E421002071
:10326000DC210020E8210020E023012004240120AB
:10327000F8B5CE464746950080B5804628000E003A
:10328000994601F0B7F8071E00D187E0782001F0D9
:10329000B1F8041E00D17EE078220021FFF7D8F8B3
:1032A0002A00A52138002763FFF7D2F8236B043DDD
:1032B0005D1907239D43002E4BD034223378A3544D
:1032C000002B43D073780132A354002B3ED0B37847
:1032D0000132A354002B39D0F3780132A354002BD0
:1032E00034D033790132A354002B2FD073790132BB
:1032F000A354002B2AD0B3790132A354002B25D03C
:10330000F3790132A354002B20D0337A0132A35435
:10331000002B1BD0737A0132A354002B16D0B37A42
:103320000132A354002B11D0F37A0132A354002BA5
:103330000CD0337B0132A354002B07D0737B0132B6
:10334000A354002B02D04223B27BE2544323002239
:10335000E254089E042E1CD8201DE662E66401F0AB
:1033600085F92000183001F081F905239B1BA3612A
:103370004A46414628002461646201F0B1F8099B85
:103380002060002B00D01C602000C0BCB946B046B5
:10339000F8BD0426E0E7380001F038F80024F3E730
:1033A000F0B5C646124B00B59846124D124F134E5B
:1033B00014E001F0B1F8FB68DC68201D01F080F931
:1033C0003368013B33602B68013B2B6001F0B0F8A0
:1033D000206B01F01BF8200001F018F82B68002B7F
:1033E000E7D143461B68012BF8D901F089F8F5E7CE
:1033F000F0210020742300201824012070230020D5
:10340000F0B55746DE464E4645465E4BE0B51F6872
:1034100083B001371F60002F66D05B490B689F4265
:1034200077D35A4B98461B681B68002B00D1A3E04A
:1034300000239C46564B45469A46564B564C994659
:10344000634600934B468C46B946019338E01068BA
:10345000013810609A6A002A0FD0D969186A88600A
:10346000D9694160180051681830814200D175E077
:10347000002110689962013810600199D86A0A68C1
:10348000904200D908604746820012189200A118A5
:10349000486898608668DE6077608760A0585961E8
:1034A0000130A05052461068DA6AC36A93429B41C9
:1034B000009A5B421A432B6800921B68002B55D080
:1034C0002B68DB68DB685A6891454AD39968D868ED
:1034D0005A698860996841605068191D8846884219
:1034E000B5D1D8685060B2E7284B2C4A19681068EB
:1034F000186011602A490A6801320A601A68126865
:10350000002A25D1012320495B420B600B689F42B2
:1035100087D200239C461E4B1F4C9A4653460120DF
:103520001B68204AD96A12688B005B189B00E3581D
:103530009842804113005A1E93414042184363460B
:10354000184303B0F0BCBB46B246A946A046F0BD46
:103550001B680D49DB681B680B605FE7186A5060E9
:1035600086E76146009B0A609C46D7E76146944621
:1035700001235B420B60D1E79C46054B064C9A4603
:10358000F6E7C0462C240120E0230120E42100209E
:10359000DC21002080230020F0210020E8210020F1
:1035A000E42301203824012010B582B0059C019449
:1035B000049C0094FFF75CFE002804D0FFF76AFD2E
:1035C000012002B010BD01204042FAE7F8B5040026
:1035D00000F0A2FF254E002C42D0201D01F070F813
:1035E000A36A271D002B03D02000183001F068F8D3
:1035F0001F4A204D1368013313603368A34221D062
:103600002B681D4A1368013B13601C4B1A68126833
:10361000002A13D01B68DB681A68194B1A6000F087
:1036200087FF206B00F0F2FE200000F0EFFE2B6819
:10363000002B02D03368A34214D0F8BD104B013ADE
:103640001A60ECE72B68002BDBD039000D4801F045
:1036500011F80D4A13680133136000F069FFE6E7C3
:103660003468BAE700F04CFFE7E7C046DC210020F1
:103670007C2300200024012070230020E42100206E
:10368000E0230120182401207423002010B5002419
:1036900086B01022002102A8FEF7DAFE114B80222C
:1036A0000293114B114801930094002302A9FFF7E4
:1036B000DFFD002805D0FFF7EDFC00F055FE0128E6
:1036C00003D00B4B1B6806B010BD72B60122094B2C
:1036D00052421A60084B1860084B1C6000F066FFED
:1036E000EFE7C04649444C45D8230120A1330010E0
:1036F000D0DE0510E0230120002401202C2401202D
:10370000024A1368013313607047C04678230020D3
:10371000F8B5DE46454657464E46E0B500F0FCFE9D
:10372000534D2B68013B2B602B68002B00D082E0AF
:10373000504B1B68002B7ED04F4F3B68002B00D1B5
:1037400092E04E4BAB4618004D4B4E4C99464E4BBB
:103750009A46FB68DB68DE69196A9A6AB160DE69BD
:103760004E601900566818318E4200D175E0002174
:1037700099621168013911609E68D9685A69B1600F
:103780009E684E6051681E1DB14263D011680139B8
:103790001160D96A0268914200D901608A0052180A
:1037A0009200A1188C46496899608D68DD606E6052
:1037B0008E6061465961A1580131A1504A46116895
:1037C000DA6ACB6A9A4240D9534601221A603B68B2
:1037D000002BBED12D4B5D461A681268002A3FD0DF
:1037E0001B68DB681A682A4B1A602A4E3468002C62
:1037F00017D0330001272E001D0008E0FFF700FE60
:10380000002801D053461F60013C002C08D03368CB
:10381000002BF3D02B68013C01332B60002CF6D138
:103820002C6053461B68002B05D0154B01241B68E8
:1038300000F066FE00E0002400F07AFE2000F0BCFC
:10384000BB46B246A946A046F8BD3B68002B00D057
:103850007FE7BFE7D968516098E7196A516086E74A
:103860000B4B013A1A60C0E7074B9A46BDE7C046CA
:103870007823002070230020EC23012080230020E7
:10388000DC210020F021002038240120E421002048
:10389000E0230120E8230120F0B5C646040000B56E
:1038A00000281DD0154A136801331360144B154DC1
:1038B0001E68154BA4191B689846144B1F6828688E
:1038C000043000F0FDFE2B6829685C600431A642DC
:1038D0000BD9380000F0DAFEFFF71AFF002801D1FB
:1038E00000F00EFE80BCB846F0BD404600F0CEFEB3
:1038F000074B1A689442EFD21C60EDE77823002052
:103900002C240120DC210020E4210020E8210020DB
:10391000E0230120014B18687047C0462C24012089
:10392000064B10B51B68002B02D1FFF769FD10BDD7
:10393000034A0020136801331360F8E7782300205E
:10394000E8230120234B30B51B68002B03D0012254
:10395000214B1A6030BD204A204C13602368204957
:103960009C4662469B009A1892008A58002A2BD1E6
:1039700063465A1E9300981880000858002811D1F9
:1039800063469A1E9300981880000858002809D1B1
:103990006346DA1E9300981880000858002801D169
:1039A000013A93009B189B00C818844665464068FE
:1039B00008334068C9186860884207D0094BC1685D
:1039C000196022601B68C5E76246EBE7E86868603B
:1039D000F4E7C0467823002038240120802300200B
:1039E000F0210020DC210020F0B5C6460D001E4C61
:1039F00000B52168183100F049FE1C4B1E681C4BB5
:103A00001B681F001B4B1B6820689846043000F0A1
:103A100057FE6B1C15D023682168AD195D60043119
:103A2000AE4205D9404600F031FE80BCB846F0BD3C
:103A3000380000F02BFE104B1A689542F5D21D603D
:103A4000F3E70E4B21685A688A6090682168C86065
:103A5000216804314160216804319160226853611A
:103A60001A6801321A60E0E7DC2100202C240120D2
:103A7000E4210020E8210020E0230120042401208B
:103A8000F8B54746CE462A4C43688846216880B53B
:103A9000CB619D6821680D622168183169602168D9
:103AA0001831996023689862036801330360214BE1
:103AB000002A1ED01B68204B1B68204B1B68206807
:103AC000043000F0FDFD1E4B21685A688A60906842
:103AD0002168C86021680431416021680431916027
:103AE000226853611A6801321A60C0BCB946B046F8
:103AF000F8BD1E68104B1B689946104B1F68206864
:103B0000043000F0DDFD43469D19236821685D60A7
:103B10000431AE4208D8484600F0B8FD094B1A6897
:103B20009542E2D21D60E0E7380000F0AFFDDCE72F
:103B3000DC2100202C240120E4210020E8210020A9
:103B400004240120E0230120C36870B5DB68D86934
:103B5000196A9A6A8160D8694860180051681830FB
:103B6000814245D000219962116801391160274ACC
:103B70001268002A2ED19868D9685A6981609868BD
:103B80004860191D8C465168614534D0116801396F
:103B900011601F4AD96A1068814227D866468A0098
:103BA0001C48521892008418616899608D68DD6025
:103BB0006E608E6081585C6101318150164A002030
:103BC0001168DA6ACB6A9A4203D90122134B013099
:103BD0001A6070BD124A5168D9618C681C626060BD
:103BE000886011689A6201311160E7E71160D5E7DA
:103BF000196A5160B6E7D9685160116801391160DE
:103C0000034AD96A10688142C8D9EFE778230020B7
:103C100080230020F0210020DC2100203824012016
:103C2000EC230120034B1B680360034B1B684360BC
:103C30007047C046E42301202C240120F8B50D0074
:103C4000040000F069FC114A2B681168581C1AD056
:103C50000F4E2768B44636686068B74208D088427D
:103C600006D8002301242B6000F062FC2000F8BD80
:103C70000E1AB342F5D95B1A1B182B6063461B68FA
:103C80002360136863600024EEE7C0462C24012003
:103C9000E42301200122014B1A60704738240120DF
:103CA000014B18687047C046DC210020F8B5041E9F
:103CB00022D0204DC26A2B68DB6A9A4215D28369F2
:103CC000002B04DB2B68D96A05235B1A8361930000
:103CD0009B18194A9B001600D31862699A420DD0AE
:103CE0002B680120DB6AE36205E02B68C06CDB6AAD
:103CF000984280414042F8BD0020FCE7201D00F0C2
:103D0000DFFC2B68271DDA6A0C4BE26219688A42D5
:103D100000D91A6093009B189B00F1184A68A260B2
:103D20009068E06047609760F2586161013201205D
:103D3000F250E0E7DC210020F02100208023002069
:103D4000F8B5041E08D0036DC16AC26C013B03655F
:103D5000914201D0002B01D00020F8BD071D043096
:103D600000F0AEFC0523E26C9B1AA3610B4BE262F0
:103D700019688A4200D91A60930009499B189B0070
:103D8000C8184268A2609568E5606F609760CA587D
:103D9000606101320120CA50DFE7C0468023002065
:103DA000F021002070B5041E08D0C36C8B4206D3EE
:103DB000E26A9A4202D0216D012905D070BDE26A03
:103DC0000B009A42F7D1F9E7A169E362002902DB0F
:103DD0000521CB1AA36193009B18104A9B00150084
:103DE000D31862699A42E9D1201D00F069FC0C4B9E
:103DF000E26A1968261D8A4200D91A6093009B184E
:103E00009B00E9184A68A2609068E060466096608E
:103E1000EA5861610132EA50D0E7C046F021002043
:103E200080230020034B1868002802D0036D013363
:103E300003657047DC210020F8B504004746CE46F4
:103E4000254D1A342B68A600F35880B58846070024
:103E50009146002B01D1002A1CD100F05DFB2B689C
:103E6000A400E658002E05D04346002B0ED00022B9
:103E70002B68E25000232868C0197430037000F0EA
:103E800057FB3000C0BCB946B046F8BD2B68721E67
:103E9000E250EFE7114A13680133136000F03CFB76
:103EA0002B68F358002B04D000F042FBFFF730FCE6
:103EB000D3E701222B68DB1974331A7000F038FB4A
:103EC00001214846FFF776F9FFF722FC0028C4D10C
:103ED00000F016FBC1E7C046DC210020782300205B
:103EE000F8B51E0004000D00170000F015FB069B3E
:103EF000002B05D01A002B001A339B001B591360AE
:103F000002226319743319781A70C9B2032E14D0BF
:103F10000FD8012E41D0022E04D1AD006519AB6E31
:103F20000133AB6601290DD0012400F001FB200014
:103F3000F8BD042EF6D1022935D01A35AD002F5127
:103F40000129F1D1A168E26863698A60A168201D36
:103F500051605A68824228D01A68013A1A60144B9C
:103F6000E26A19688A4200D91A60930011499B18C5
:103F70009B00CD186A68A2609668E66070609060E9
:103F8000CA5865610132CA500B4B1B68DA6AE36A92
:103F90009A42C9D200F0B4FAC6E7AD006519AB6E1B
:103FA0003B43AB66BEE70024BFE7E2685A60D3E755
:103FB00080230020F0210020DC210020F0B55746AE
:103FC0004546DE464E46E0B5D24FD34AB846434654
:103FD0009246D24A8BB0019228221B6893461D68F4
:103FE000CF4CD04F002D67D1FFF78AFBFFF792FC33
:103FF0003B688146834200D9F6E053461B6838602F
:104000001A6853425A414B462068E91A01F022F9D6
:10401000FFF77EFB002800D13AE11022002106A81C
:10402000FEF716FA3D000022206806A900F094FD74
:1040300000283BD0069B002B75DB089E002EF2D09B
:104040007369002B02D0301D00F03AFBFFF762FCD1
:104050002B68070098426FD3069B2F60092BE2D88C
:10406000019A9B00D3589F465B46F05C01235A4659
:104070000343B3540799B26936618B187360BB422E
:1040800000D9A6E0791A8A4236D8410700D502E164
:10409000012398435B46F0543000336A984700226E
:1040A000206806A900F058FD0028C3D143461B68CC
:1040B0002F001D68002D97D0DB681D68FFF720FBDF
:1040C000FFF728FC3B688146984200D28CE03860BC
:1040D000854200D801E1002295E75B460122F35CAE
:1040E00013435A46B354079B3661DA19B3617260C1
:1040F000BA4273D8002B96D05346311D186800F091
:10410000C5FA90E75B460122F35C93435A46B354E9
:1041100089E75B46F35C9A0700D4B5E0012293433C
:104120005A46B3547FE7079B099908989847069B1E
:10413000002B00DA77E780E743461B681A68002AFD
:1041400040D00422029691460395049405900BE01A
:10415000012293435A46A354236A200098474346BA
:104160001B681A68002A29D0DB68DC681E68271DD6
:10417000380000F0A5FA5B464A46E35C1A42E7D0F5
:10418000A3692461F518F64365609E4209D3EE43A6
:10419000236A20009847A3692461ED186560B34243
:1041A000F5D953463900186800F070FA236A2000E8
:1041B000984743461B681A68002AD5D1029E039D82
:1041C000049C059F5246414612680A60524613609D
:1041D00042E7B94202D9994200D856E74346311D19
:1041E000186800F053FA1EE743461B681A68002A55
:1041F0003FD04A460397A14602920BE00122934327
:104200005A46AB542B6A2800984743461B681A68E5
:10421000002A2AD0DB68DD681F682C1D200000F012
:104220004FFA5B460422EB5C1A42E7D0AB692D6182
:10423000FE18FF436E609F420AD33700FF432B6A8C
:1042400028009847AB692D61F6186E60BB42F4D91F
:1042500053462100186800F019FA2B6A2800984785
:1042600043461B681A68002AD4D1029A4C469146EC
:10427000039F5246414612680A60524613604B46FD
:104280003B60FFF745FAC8E6300000F0BFF8CAE629
:1042900000F036F9C1E6A1463C0007E0E31A9A4275
:1042A00014D8336A300098473B00B269D71877605A
:1042B0003661BC42F2D29C4201D2BB42F1D94346A4
:1042C000311D18684C4600F0E1F9E5E65346311D12
:1042D00018684C4600F0DAF9DEE6FFF719FA4346B3
:1042E0001B68DB68DE68331D1800029300F0E8F9F4
:1042F0005B46F35C5A0707D4012293435A46B354F2
:104300003000336A984788E622002B004C469146DD
:1043100011E0C046E0210020EC210020D4DE051091
:1043200030240120DC230120E31A9A4214D8336A96
:10433000300098472B00B26936619D187560A54220
:10434000F2D9A34201D9AB42F1D943460299186888
:104350004C4600F09BF9D3E75346029918684C4647
:1043600000F094F9CCE7C04670B582B000F0D4F804
:10437000174C2368002B12D000F0DAF823680020D5
:10438000002B0AD0134B8022019303231249009380
:10439000124800235200FFF707F902B070BD104E1B
:1043A000300000F057F90F4D280000F053F90E4B84
:1043B00000221E600D4B10210A201D6000F090F9B4
:1043C00020600028D8D00A4900F090FED4E7C0460B
:1043D000302401203424012020D50510BD3F0010D9
:1043E0008423012098230120E0210020EC210020DB
:1043F00018D5051010B50400FFF782F92000FEF76C
:1044000009F80400FFF784F9200010BD10B5041E60
:1044100006D0FFF775F92000FEF70EF8FFF778F9E0
:1044200010BDC046000000000000000000000000B9
:104430000B4A13681868203080F30988022080F343
:104440001488BFF36F8F3FBCAE4608BC04BC62B695
:104450001847C046C046C046C046C046C046C046D3
:10446000DC2100200000000000000000000000002F
:10447000EFF30980164B1A6820381060F0C04446EC
:104480004D4656465F46F0C00D221207146E556E1B
:10449000566F176F3038F0C008B572B6FFF752FA92
:1044A00062B60CBC116808681030F0C8A046A94676
:1044B000B246BB4680F309880D2212073038F0C897
:1044C0001466556656671767F0C81847C046C04659
:1044D000DC21002010B5FCF74DFAC0467047C046FD
:1044E00010B58024031F64041C60043B1960034959
:1044F000043B1960143B40381A6010BDD5440010CD
:104500008022044B52051A60BFF34F8FBFF36F8FA9
:104510007047C04604ED00E072B6044A13680133E8
:104520001360BFF34F8FBFF36F8F70476C23002072
:10453000034A1368013B1360002B00D162B6704739
:104540006C230020EFF3108072B6704780F3108860
:104550007047C04610B5FFF7F5FF0400FFF7E0F91C
:10456000002803D08022034B52051A602000FFF779
:10457000EDFF10BD04ED00E0002310B5084A094C22
:10458000052023601360FDF79DF9FA218900FDF7EE
:10459000A5FB054B013818600723236010BDC046FA
:1045A00018E000E010E000E014E000E0FF22134B10
:1045B0001204196810B50A431A60FF22196812061E
:1045C0000A431A600E490E20FEF764F90D490F20C8
:1045D000FEF760F90C490B20FEF75CF9FFF7CCFF02
:1045E00000220A4B1A60D0221206094B12681A7078
:1045F000FFF71EFFFFF7A6F9FCF7BCF920ED00E07E
:104600007144001055450010DD4400106C2300205B
:104610003C04002010B5FCF7DBF9054A054B801877
:104620008000186000F00AF8034B186010BDC04607
:1046300040000034D8210020D423012010B51C20D4
:10464000FFF7D8FE041E03D0002308C000F002F8D4
:10465000200010BD0300083301224360C3600361E2
:1046600000235242826003607047C046002303610A
:104670007047C04643689A684B608A605160996091
:1046800003680861013303607047C04630B5050018
:104690002B0008680C000833421C0DD019005B6821
:1046A0001A688242FAD963609C602B68A16001336A
:1046B0004C6025612B6030BD29694B68F3E7C0462B
:1046C0000369416882688A6051605968814205D0F7
:1046D0000022026118680138186070475A60F7E7D5
:1046E000F8B505000E001700002840D0030C0A0C96
:1046F000002B41D1002A2FD13000684303005133F1
:1047000035D85030FFF776FE041E30D00300002E5F
:1047100030D12360E5632664FFF7FEFE216CE36B76
:1047200022684B43D018A06000205B1A6260D21848
:10473000E260FF234422A0632000A3540132A3546B
:104740001030FFF787FF20002430FFF783FFFFF7CB
:10475000EFFE4C23E7540BE0131CA9B2B2B24A435C
:1047600080B29BB24343120C9B181B0CC4D0002494
:104770002000F8BD5033CCE7002AF8D1081CECE744
:10478000F0B5CE464746050080B585B09846019203
:104790008946FFF7C1FEAA6BEB6B9A427BD3424678
:1047A0000023022A00D1EBE02E002436019A002AD1
:1047B00000D1FAE0002B00D1DEE0FFF7B9FEFEF7F2
:1047C0009FFFFFF7A9FE4422AB5C5BB2013301D12E
:1047D0000023AB544522AB5C5BB2013301D1002313
:1047E000AB54FFF7A5FE01A902A8FFF727FA00289E
:1047F00000D0DEE0FFF790FEAA6BEB6B9A426DD023
:10480000FFF796FEFFF788FE4523EC5C64B2002CB0
:1048100004DC11E0013CE4B2002C0DD06B6A002BEB
:104820000AD03000FFF790F90028F3D0013CE4B241
:10483000FFF730FA002CF1D14523FF22EA54FFF7AD
:1048400077FEFFF769FE44232F00EC5C103764B25B
:10485000002C04DC11E0013CE4B2002C0DD02B69EB
:10486000002B0AD03800FFF76FF90028F3D0013C85
:10487000E4B2FFF70FFA002CF1D14423FF22EA54EF
:10488000FFF756FEFEF744FFFFF746FEAA6BE96B03
:10489000012391428AD92A6CAC6B002A00D173E0C3
:1048A0004346002B00D0F1E049466868FDF7D6FD8D
:1048B0006B682A6CA9689B186B606A6A01348B422A
:1048C00001D32B686B60AC63002A65D1FFF730FE23
:1048D000012005B0C0BCB946B046F0BD2F0010376E
:1048E000FFF726FE38000199FFF77EF8FFF714FE68
:1048F0004523EC5C64B2002C04DC11E0013CE4B222
:10490000002C0DD06B6A002B0AD03000FFF71CF989
:104910000028F3D0013CE4B2FFF7BCF9002CF1D140
:104920004523FF22EA54FFF703FEFFF7F5FD44237A
:10493000EC5C64B2002C04DC11E0013CE4B2002C1D
:104940000DD02B69002B0AD03800FFF7FDF80028A6
:10495000F3D0013CE4B2FFF79DF9002CF1D14423E0
:10496000FF22EA54FFF7E4FDFEF7D2FE002800D054
:104970008AE7FFF7C5FD87E702A8FFF753F91CE7B1
:104980002A6CAC6B002A5AD12E680134002E72D0EA
:104990006B6AAC63002B99D028002430FFF7D4F861
:1049A000002893D0FFF7ACFD90E7FFF7C1FD002092
:1049B0008FE7FFF7B1FD45232E00EC5C243664B28F
:1049C000002C04DC11E0013CE4B2002C0DD06B6A39
:1049D000002B0AD03000FFF7B7F80028F3D0013CD5
:1049E000E4B2FFF757F9002CF1D14523FF22EA5436
:1049F000FFF79EFDFFF790FD44232E00EC5C103680
:104A000064B2002C04DC11E0013CE4B2002C0DD0B7
:104A10002B69002B0AD03000FFF796F80028F3D05E
:104A2000013CE4B2FFF736F9002CF1D14423FF2218
:104A3000EA54FFF77DFDFEF76BFE002049E749468B
:104A4000E868FDF70BFDEB682A6C29689B1AEB60A0
:104A50008B4202D2AB689B1AEB606B6A002C04D0CD
:104A6000AC63002B00D131E796E70122AA63002B4B
:104A700000D12BE790E7A868FFF762F96B6AAE6098
:104A8000AC63002B88D100288CD11FE74946E86829
:104A9000FDF7E4FCEB682A6C29689B1AEB608B42FB
:104AA00005D342466B6A022AD8D00134D8E7AB68F6
:104AB0009B1AEB60F5E7C04670B506005020FFF783
:104AC00099FC041E2DD0002501230060C3630564FA
:104AD000FFF722FD216CE36B22684B43D0185B1A71
:104AE0006260D218E260FF234422A060A563A35451
:104AF0000132A354230010331800FFF7ABFD23004D
:104B000024331800FFF7A6FDFFF712FD4C23002207
:104B1000E654002100232000A5602560E560FFF732
:104B20002FFE200070BDC04670B504008568FFF7F9
:104B3000B7F80023854201D0180070BDE368013B3F
:104B4000E360002B01D00123F6E7002200212000C2
:104B5000FFF716FE0123EFE7F0B5CE464746050006
:104B600080B585B089460192FFF7D6FCAC6B002C6E
:104B700000D01DE1019B002B00D1C8E02E0002A84F
:104B8000FFF750F844272436FFF7D2FCFEF7B8FDB4
:104B9000FFF7C2FCEB5D5BB2013301D10023EB55A3
:104BA0004522AB5C5BB2013301D10023AB54FFF76C
:104BB000BFFC01A902A8FFF741F8002856D1FFF772
:104BC000ABFCAB6B002B00D0A9E0FFF7B1FC2423BA
:104BD0009846A84440460199FEF706FFFFF79CFC63
:104BE0004523EC5C64B2002C04DC11E0013CE4B22F
:104BF000002C0DD06B6A002B0AD04046FEF7A4FFB4
:104C00000028F3D0013CE4B2FFF744F8002CF1D1C6
:104C10004523FF22EA54FFF78BFCFFF77DFC44237A
:104C2000EC5C343B984664B2A844002C04DC11E0F0
:104C3000013CE4B2002C0DD02B69002B0AD0404679
:104C4000FEF782FF0028F3D0013CE4B2FFF722F820
:104C5000002CF1D14423FF22EA54FFF769FCFEF750
:104C600057FD00284AD1FFF74BFC47E0FFF754FC03
:104C70004523EC5C64B2002C04DC11E0013CE4B29E
:104C8000002C0DD06B6A002B0AD03000FEF75CFFC1
:104C90000028F3D0013CE4B2FEF7FCFF002CF1D178
:104CA0004523FF22EA54FFF743FCFFF735FC1023AE
:104CB0009846EC5DA84464B2002C04DC11E0013C91
:104CC000E4B2002C0DD02B69002B0AD04046FEF731
:104CD0003BFF0028F3D0013CE4B2FEF7DBFF002CE1
:104CE000F1D1FF23EB55FFF723FCFEF711FDFFF792
:104CF00013FCAB6B002B0AD0FFF71AFCFFF70CFC80
:104D0000AC6B002C54D1019B002B00D03CE7FFF78B
:104D10000FFC002005B0C0BCB946B046F0BDFFF79F
:104D200007FCFFF7F9FB4523EC5C213B984664B296
:104D3000A844002C04DC11E0013CE4B2002C0DD0AE
:104D40006B6A002B0AD04046FEF7FEFE0028F3D027
:104D5000013CE4B2FEF79EFF002CF1D14523FF2277
:104D6000EA54FFF7E5FBFFF7D7FB4423EC5C343B49
:104D7000984664B2A844002C04DC11E0013CE4B283
:104D8000002C0DD02B69002B0AD04046FEF7DCFE2C
:104D90000028F3D0013CE4B2FEF77CFF002CF1D1F7
:104DA0004423FF22EA54FFF7C3FBFEF7B1FCA5E75B
:104DB0002A6C002A08D0E968AB688918E960994232
:104DC0000BD24846FDF74AFB2B69013CAC63002B34
:104DD00006D1FFF7ADFB01209CE72968E960F0E709
:104DE00028001030FEF7B0FE0028F2D0FFF788FB55
:104DF000EFE7C046F0B5CE464746050080B585B022
:104E00000191FFF789FBAB6B002B00D040E1019BC8
:104E1000002B00D12BE102A8FEF704FF00232E0097
:104E2000994644272436FFF783FBFEF769FCFFF71A
:104E300073FBEB5D5BB2013301D10023EB554522DF
:104E4000AB5C5BB2013301D10023AB54FFF770FBC5
:104E500001A902A8FEF7F2FE00285AD1FFF75CFB79
:104E6000AB6B002B00D0B1E0FFF762FB2B68002B8F
:104E700000D104E124239846A84440460199FEF756
:104E8000B3FDFFF749FB4523EC5C64B2002C04DC66
:104E900011E0013CE4B2002C0DD06B6A002B0AD06B
:104EA0004046FEF751FE0028F3D0013CE4B2FEF785
:104EB000F1FE002CF1D14523FF22EA54FFF738FB25
:104EC000FFF72AFB4423EC5C64B2002C15DD343B75
:104ED0009846A84403E0013CE4B2002C0DD02B69B5
:104EE000002B0AD04046FEF72FFE0028F3D0013CED
:104EF000E4B2FEF7CFFE002CF1D14423FF22EA54A6
:104F0000FFF716FBFEF704FC002855D1FFF7F8FA6F
:104F100052E0FFF701FB4523EC5C64B2002C04DC9B
:104F200011E0013CE4B2002C0DD06B6A002B0AD0DA
:104F30003000FEF709FE0028F3D0013CE4B2FEF792
:104F4000A9FE002CF1D14523FF22EA54FFF7F0FA25
:104F5000FFF7E2FAEC5D64B2002C15DD10239846F1
:104F6000A84403E0013CE4B2002C0DD02B69002BD7
:104F70000AD04046FEF7E8FD0028F3D0013CE4B239
:104F8000FEF788FE002CF1D1FF23EB55FFF7D0FA96
:104F9000FEF7BEFBFFF7C0FAAB6B002B0AD1FFF7A1
:104FA000C7FA4B46002B5AD1002005B0C0BCB94609
:104FB000B046F0BDFFF7BCFAFFF7AEFAAB6B002BC3
:104FC00066D1019B002B00D02DE750E0FFF7B0FA2F
:104FD000FFF7A2FA4523EC5C64B2002C15DD213BFF
:104FE0009846A84403E0013CE4B2002C0DD06B6A63
:104FF000002B0AD04046FEF7A7FD0028F3D0013C65
:10500000E4B2FEF747FE002CF1D14523FF22EA541B
:10501000FFF78EFAFFF780FA4423EC5C64B2002CB1
:1050200015DD343B9846A84403E0013CE4B2002C73
:105030000DD02B69002B0AD04046FEF785FD0028D5
:10504000F3D0013CE4B2FEF725FE002CF1D144235D
:10505000FF22EA54FFF76CFAFEF75AFBACE7FFF7C2
:105060005BFA696A002905D1A868FEF79BFEFFF785
:105070005FFA99E705212B6B1B68C91AF4E7FFF764
:105080004BFAA868FEF712FE8146FFF751FAF1E6E7
:10509000013BAB632B68002B0FD02B69002B03D196
:1050A000FFF746FA012080E728001030FEF74CFD9C
:1050B0000028F5D0FFF724FAF2E7FEF7B3FEA86068
:1050C000EBE7C04670B5856804000E00FEF7E8FD0A
:1050D000854205D031002000FFF78CFE002803D068
:1050E0000120E3680133E36070BDC04610B50029BC
:1050F00043D0554B5A68904200D18EE01A68002A7E
:105100003CD0DA68904200D19CE09A68002A54D0E2
:105110005A69904200D193E01A69002A53D0DA69A3
:10512000904200D180E09A69002A52D05A6A904297
:1051300057D01A6A002A58D0DA6A904200D175E036
:105140009A6A002A57D05A6B904200D170E01A6BCD
:10515000002A56D0DA6B904200D16BE09A6B002A9D
:1051600055D05A6C904267D01A6C002A57D0DA6C2E
:10517000904263D09A6C002A30D010BDDA68904219
:1051800060D05A6990425BD01A00DC69A0424BD0D3
:105190005C6AA04225D0DC6AA04247D05C6BA0428A
:1051A00046D0DC6BA04245D05C6CA04244D0DC6CA5
:1051B000A04243D011605060DFE75A6990423FD06F
:1051C0001A000832E1E7DA6990422DD01A00103255
:1051D000DEE75A6A904204D01C4ADCE748331A00E2
:1051E000E8E70422D2009A18E4E7DA6A90421DD078
:1051F0001A002032D2E75A6B904219D01A00283296
:10520000CFE7DA6B904215D01A003032CCE75A6CF7
:10521000904211D01A003832C9E70022E2E7DA6C76
:1052200090420BD00A4AC5E70322DBE70522D9E703
:105230000622D7E70722D5E70822D3E70922D1E7DC
:105240000222CFE70122CDE7580D0020700D00208B
:10525000980D002070B5050016000C00FFF75CF9F2
:105260004422AB5C5BB2013301D10023AB54452235
:10527000AB5C5BB2013301D10023AB54FFF758F9AB
:10528000AB6B002B42D0FFF747F94523EC5C64B2CF
:10529000002C14DD2E00243603E0013CE4B2002C87
:1052A0000DD06B6A002B0AD03000FEF74DFC0028B1
:1052B000F3D0013CE4B2FEF7EDFC002CF1D1452324
:1052C000FF22EA54FFF734F9FFF726F94423EC5C98
:1052D00064B2002C14DD2E00103603E0013CE4B271
:1052E000002C0DD02B69002B0AD03000FEF72CFCCF
:1052F0000028F3D0013CE4B2FEF7CCFC002CF1D145
:105300004423FF22EA54FFF713F970BD280032004E
:1053100021002430FEF7B4FBB5E7C04670B50400A9
:1053200007F014F80500200007F00EF8392D00D022
:1053300070BDC2239B00C0580028F9D009F012FBB1
:10534000F6E7C04670B50500B226006829F084FA79
:10535000B600040000223021805922F01BFA0028F8
:1053600000D1A051B426B600A059002805D00022D3
:10537000312122F00FFA002818D1B4230022B721DE
:1053800001209B00E2508900635C83436354B52392
:105390009B00E2507021286828F0D0F9B2239B00CE
:1053A000E058002801D023F07FFF70BDB7239B0099
:1053B000E35C9B07E1D5A05929F046F9DDE7C0463B
:1053C00010B50400006829F047FAB222B4210300A6
:1053D000920080588900585020682F219850002250
:1053E00022F0D8F910BDC04610B50022C9B228F08D
:1053F000E9FE10BD10B523F0C5F810BD10B523F0BF
:10540000A5F810BD10B506F0A9FF0023036010BD7C
:10541000F0B585B00190002861D029F01DFA041E76
:105420005ED0B2239B00C0580390002800D16FE0EB
:105430004F492A2203AB0E0022F088FA01AB2A2240
:105440003100019822F082FA039B002B00D17EE00C
:10545000BA2292009446A444604622002E210700FE
:1054600006F03CFE002851D00398002806D0002208
:105470002E2122F08FF9002800D1039022002F2145
:105480003800019B06F02AFE00283FD00198002832
:1054900006D000222F2122F07DF900283AD1019078
:1054A000B22200239200A3500C32A350039B002B86
:1054B00017D022003121380006F010FE002825D038
:1054C000039800280DD00022312122F063F9002832
:1054D00007D103900198002806D1032014E0FEE7CD
:1054E000FEE70198002838D023F0DEFE3100019855
:1054F00022F056FA0398002834D0310022F050FAF6
:10550000019843425841400005B0F0BD0420FBE73C
:10551000174E93E7B225B5220021019BAD00920002
:105520006351A150002BC1D022003800303106F069
:10553000D5FD0028EAD001980028B7D000223021FC
:1055400022F028F90028B1D160510190AEE7BA23CA
:105550009B009C46A444674690E703980028CCD162
:105560000320D1E7019B0130002BCDD1B5E7C04628
:1055700005540010F0B5060085B07B480D0007F01B
:1055800081F9041E00D1E2E0C922002192000AF054
:10559000F3FB01235B42A360E3600023032223614A
:1055A00063618233A361E38F26605B0A5B0213436E
:1055B000E3871222402365605020AC27E2540BF0B1
:1055C0000DF9BF00E051002800D1C1E001F0FCF866
:1055D000AD239B00E358002B02D02000E1599847EF
:1055E000AC2300229B00E358013E013D5A619A61C1
:1055F000DE611D624032A15C0C3299549A234B3A11
:105600009B00E2500EF0C4FFC3239B00E050A03B80
:10561000E018102107F02EF9544D220021215448A2
:10562000AE69AC6109F058F9C2239B00E050002834
:1056300000D18EE00EF0E4FD002800D08AE00530B5
:1056400007F03EFE02AB187002040002000E120EBC
:10565000987000205A7007F033FE03AB18700204F4
:105660000002120E000E98705A70424B20000093F8
:10567000039A002302990CF0DDF8C1239B00E0504F
:10568000B327002020F0A4FBBF00E051002020F051
:105690009FFBB2239B00E050002020F099FBB12338
:1056A0009B00E050002020F093FBB0229200A0501D
:1056B000E05928F02FFBB1239B00E05828F02AFB8B
:1056C000B0229200A05828F025FBB1239B00E0589F
:1056D000022120F097FBB0229200A058022120F076
:1056E00091FB4023E05C06F06BF90022E3590028AF
:1056F00033D04821180028F021F8B3239B00E0584C
:10570000002125F02BFCB1239B00E058002125F05F
:1057100025FCB0239B00E058002125F01FFCB2239C
:105720009B00E05823F0C0FD002E1BD0BA239B0045
:1057300039221149E0180023AE6106F01BFDC22397
:105740009B00E05809F022F9200005B0F0BDFEE70B
:10575000FEE7FEE70EF062FD8FE7FF21180028F05C
:1057600009FDCAE72600E1E78C1F0020841F002006
:10577000A100031098DF05101D530010014B98691C
:105780007047C046841F002010B5002804D00100D7
:10579000034807F007F910BD014807F0FBF8FAE7E6
:1057A0008C1F002000280AD0C02305229B00C35C68
:1057B0001340012B01D0006870474068FCE7024BA2
:1057C00098690028F0D1F7E7841F002000280AD04C
:1057D000C02305229B00C35C1340012B01D040680D
:1057E00070470068FCE7024B98690028F0D1F7E7A2
:1057F000841F0020002801D000687047024B986980
:105800000028F9D1F9E7C046841F0020002801D004
:1058100040687047024B98690028F9D1F9E7C04603
:10582000841F0020002801D080697047024B9869CE
:105830000028F9D18220F8E7841F0020F0B55746F0
:105840004E464546DE46E0B589B0059312AB1B785F
:1058500004000D0016009A4600290DD000280CD037
:105860004023C35C076898460300002F03D05B68A1
:105870009B46002B0AD1FEE7FEE73D4B9B69002BC0
:10588000F9D040229A5C1F689046EEE74146280016
:1058900001F012FAA84200D0FEE7002E06D04146E1
:1058A000300001F009FAB04200D0FEE7414638006E
:1058B00001F0F6F953460690002B43D100283FD063
:1058C000059A90423DD801001000FCF707FA834684
:1058D0009E239B009C46A4446046059B069A390083
:1058E00002930195434600925A46079001F0B4FA9C
:1058F000A5200599800002910699251843462800A5
:10590000019600915A46390001F0A6FA731E9E4195
:1059100076423540002C1CD0079B2562E361A362D0
:1059200023003D225146995402223E3463781343AA
:10593000637009B0F0BCBB46B246A946A046F0BDB4
:10594000FEE7FEE75A4603005343059A9342BFD948
:10595000FEE7074B9B69002BE6D019000220079A4F
:105960001D62DA619A623E314A7882434A70D8E712
:10597000841F0020002801D0C1627047024B986943
:105980000028F9D1F9E7C046841F0020002802D082
:105990004023C05C7047024B98690028F8D1F9E7B2
:1059A000841F0020002343637047C046006A431EE3
:1059B0009841C0B27047C046002803D0B2239B0074
:1059C000C0587047024B98690028F7D1F9E7C046E4
:1059D000841F0020002803D0B4239B00C0587047C8
:1059E000024B98690028F7D1F9E7C046841F0020D0
:1059F000002803D0B1239B00C0587047024B986920
:105A00000028F7D1F9E7C046841F0020002803D002
:105A1000B0239B00C0587047024B98690028F7D10B
:105A2000F9E7C046841F0020002803D0B3239B0061
:105A3000C0587047024B98690028F7D1F9E7C04673
:105A4000841F0020F0B5DE464E4645465746E0B579
:105A5000B1B099463AAB1B7805009B468A46904602
:105A600028F0FAFEB2239B00C6580400B5424DD080
:105A7000B527BF00C059A84248D000284DD0B04239
:105A800000D197E0002105F06FF800220021E059D5
:105A900022F02CFD00227021E05927F04FFEB223A6
:105AA000B4229B00E358E65992003000A350FFF760
:105AB000AFFC04282AD0032800D113E1012800D12B
:105AC000F5E1002822D1B4239B00E05827E0D44917
:105AD00018A805F069F9C02305229B00E35C134078
