:020000041000EA
:1000000000B5324B212058609868022188439860DF
:10001000D860186158612E4B002199600221596106
:100020000121F02299502B49196001219960352056
:1000300000F044F80222904214D00621196600F024
:1000400034F8196E01211966002018661A6600F04E
:100050002CF8196E196E196E052000F02FF8012189
:100060000842F9D1002199601B49196000215960AB
:100070001A491B48016001219960EB211966A021F2
:10008000196600F012F800219960164914480160C1
:100090000121996001BC002800D000471248134993
:1000A000086003C880F30888084703B5996A0420EC
:1000B0000142FBD001200142F8D103BD02B5186610
:1000C0001866FFF7F2FF186E186E02BD00000240BE
:1000D000000000180000070000035F00212200005C
:1000E000F4000018222000A00001001008ED00E03C
:1000F00000000000000000000000000074B24E7A12
:1001000000200420F7010010CB010010CD010010E9
:10011000C9010010C9010010C9010010C901001077
:10012000C9010010C9010010C9010010BD3900103B
:10013000C9010010C901001051390010353A0010F2
:10014000C1010010C1010010C1010010C101001067
:10015000C1010010C1010010C1010010C101001057
:10016000C1010010C1010010C1010010C101001047
:10017000C1010010C1010010C1010010C101001037
:10018000C1010010C1010010C1010010C101001027
:10019000C1010010C1010010C1010010C101001017
:1001A000C1010010C1010010C1010010C101001007
:1001B000C1010010C1010010C1010010C1010010F7
:1001C000EFF30580103800BE00BE00BE00BE00BECA
:1001D00000BE00BEF2EB8871E4C9061004CA061026
:1001E0003802001090A31AE700201E49086006C8D4
:1001F00081F3088810471C480068002801D00020BF
:10020000F3E70DA40ECC002902D000F012F8F9E7B4
:100210001649174A002000E001C19142FCD115495E
:100220008847154988471549884700BEFDE701C939
:1002300001C29A42FBD3704704CA0610C0000020D6
:10024000800A0020C4D3061000000420000004200F
:10025000C4D3061000100420001004200000000089
:100260007047000008ED00E0000000D0800A002088
:10027000C8230120D1190010C5020010C9190010AF
:1002800030B594460C00E368A2686446050008880F
:1002900089880133013283B05B1A121A9BB292B281
:1002A000009402F02BF9280004F0ECFD03B030BDFF
:1002B00010B5052013F0D0FB0DF06AFD052002F00B
:1002C0005DFDF6E710B582B001F062FC022001F09E
:1002D0004FFF09F043F9A021802004F0BBFB0F4938
:1002E000040004F0B7FD00230093802300222000C7
:1002F0000B495B0104F012FD5BF02EFA094B8022E2
:10030000019301230849009352010023074802F09A
:10031000BDFB02F02DFC064800F042F881020010FF
:10032000F80E00204C21002040C20510B102001040
:100330004CC2051010B54024074A83009A18126871
:10034000C0005440C0222240044C1B191A60044BC8
:10035000C018416010BDC04604C0014004D0014037
:10036000004001400123D022834012069362936132
:10037000084A83009A1811684022514080320A408E
:100380000549C0005B181A60044BC0180523436080
:100390007047C04604C0014004D001400040014005
:1003A0000FB400B5084883B001F03EFC049B002B5D
:1003B00007D005A91800019101F0D0FA034801F017
:1003C00033FC012001F0E2FA68C2051064C2051096
:1003D00010B50148FFF7E4FF78C2051070B58C46F0
:1003E0001600EFF3108472B60F490B68002BFCD097
:1003F000BFF35F8F6346DB08C5180722C05C634606
:100400001A40012393401A000240034207D11843C7
:100410002870BFF35F8F0A6084F3108870BD614657
:100420003000FFF7BDFFC0462C0100D0044A107811
:10043000431CDBB2172B00D9102313707047C04642
:10044000A00300200021044B044ABFF35F8F02C3C6
:100450009342FAD17047C046000100D0800100D01D
:10046000084B094A1360094A1360094A1360094A94
:100470001360094A1360094A1360094A1360094A64
:10048000136070478080808000E400E004E400E0B6
:1004900008E400E00CE400E010E400E014E400E014
:1004A00018E400E01CE400E01F2318401E3B8340DA
:1004B000002905D0C021044A4900535013607047F9
:1004C000802201498B50FAE700E100E010B5EFF31C
:1004D000108C72B60F4A1368002BFCD0BFF35F8FED
:1004E0000D4B10309B6880001B580C4A934201D082
:1004F00099420CD1084B9B681950BFF35F8FBFF333
:100500005F8F0022034B1A608CF3108810BD00F03F
:10051000A1FDC046240100D000ED00E0C1010010A3
:10052000024BC918890001607047C0464000003482
:1005300070B5114C114DAC420FD2FF262368002B31
:100540000CD0FFF773FF01002000FFF7E9FFA68042
:10055000BFF35F8F0834AC42F0D370BDFFF766FF86
:1005600001002000FFF7DCFF2671BFF35F8F083426
:10057000AC42E3D3F1E7C046780A0020800A0020AD
:100580000A4B1968EFF3108072B60A68002AFCD093
:10059000BFF35F8F1B68BFF35F8F00221A6080F389
:1005A000108840BF002000217047C046E022002094
:1005B000F0B5DE4657464E464546E0B585B0EFF30A
:1005C000058303221A40B34B91005F5801239340E7
:1005D0009B4602925A468846AF4B1A60AF4B039334
:1005E0005B46AF4843630823FE5E002E37DABB88C4
:1005F0001BB2002B00DBA4E0BB79002B00D0E5E0B0
:100600000823F95E002920DB4B007A695B18DB00C8
:10061000D3189D68DC686B1C00D104E1A048010080
:100620004144826A0B69AE1A9B1A9E4215D301237C
:10063000026A029883401A420FD0994800F054FB96
:100640008C4202DCCCD18542CAD940BF05B0F0BC97
:10065000BB46B246A946A046F0BD0D61EDE77A69FA
:10066000730091469B19DB0099444B469C68DD68FA
:1006700000F03AFB8D42BADC00D1F6E0002D00DA42
:10068000DBE04A464B4652691B699246039A934205
:1006900000D1CCE04A460821785E528800045146D9
:1006A00010439847009001910099019A0B00134361
:1006B00000D1C2E013000A00002B00DBD9E02000CB
:1006C0002900801A99414B469860D96000229B5EB0
:1006D000002B00DA8BE75D007C69EA18D200A218D3
:1006E00000949468D268A2468A4200DD7FE702D176
:1006F000844200D97BE70824A4463B81BC44009C8B
:1007000000972F006546B4463E0006E05E00F218F2
:10071000D200A2189768D268BA468A4207DC00D194
:10072000B4E0F318DB00E518E35E002BEEDA664672
:100730004A46009F13802E80BB881BB2002B00DA34
:100740005AE73A69EFF3108172B61368002BFCD0B8
:10075000BFF35F8F0123BE885B42BB8036B23B692B
:10076000BFF35F8F00221A6081F31088002E00DA39
:1007700042E73B0008333A0099467D6973009B19B4
:100780000824115FDB004846EB18002913DB9C6846
:100790000093A446DC6806E0A34240D00023F95E43
:1007A0003800002906DB4F007F18FF00EF19FB68B7
:1007B000A342F1DD009B068000201E5E1980002E02
:1007C000DCDA1700BB79002B00D119E70023BB71DD
:1007D0000823F95E4B1C00D137E73D000835AC46D5
:1007E0007C6903E084464B1C00D109E74B005B1891
:1007F000DB00E0180A00E15E43881BB2002BF1DA4F
:1008000001256D42EE178560C66008257B5F934227
:10081000E9D0634619803B8903803A81E3E7BB68EE
:100820006345BBD9C6E7631C00D0F7E605E753462E
:1008300050461B699847002823D14B461B883A69CC
:100840003B81EFF3108372B611680029FCD0BFF32F
:100850005F8F49467A880A803A697E80BFF35F8F4E
:100860000021116083F31088C1E6844200D805E7B7
:10087000BDE60B4800F038FA009B019CC0186141AE
:1008800021E753460CCB009201930DE7824500D837
:1008900047E74CE7502100203C700540B1050010AF
:1008A0000040054070B52D4C2569002D04D00A216B
:1008B0002B48FFF735FE70BD2A4E0321294800F072
:1008C00009FAE660FFF7B2FD274B0322C018D023D8
:1008D00022701B061B6801216370244B8000A360FB
:1008E0000F2320610220638063694942A18019803F
:1008F0000231198647311D83585218315A527532C8
:100900005C39995218320131995218320131995299
:10091000183201319952083518329D52023118327D
:1009200099521832013199521832013199521832C4
:1009300001319952183201319952183201319952CC
:100940000B4B0C49DC6001303562FFF7BFFD012124
:100950000320FFF7A9FD084B1D60A8E7B0030020A6
:10096000E02200200040054040000034FFFF10005E
:1009700050210020B10500103860054070B582B0EC
:100980000092019301000269EFF3108472B61368BC
:10099000002BFCD0BFF35F8F0223C85E0D690028D7
:1009A0003FDB4A69430016001B18DB00D218F35ADC
:1009B0004B80BFF35F8F00232B6084F31088069B6E
:1009C0001361079B5361009B019C9360D460538823
:1009D00001335B045B0C1D1C002B20D0ACB2030464
:1009E000558023430D69EFF3108C72B62C68002CF0
:1009F000FCD0BFF35F8F8C88148088800A69BFF3B6
:100A00005F8F002010608CF310880A7801309040CE
:100A1000CA68084952181060180002B070BD01255C
:100A2000DCE7BFF35F8F00232B6084F31088013B6A
:100A3000F2E7C0463C20000010B543890A149342F7
:100A40001ADD53009B184269DB00D3180469EFF3E9
:100A5000108C72B62268002AFCD0BFF35F8F5A88D0
:100A6000090494B2090C8A4208D00369BFF35F8F6E
:100A700000221A608CF31088002010BD094A22431E
:100A80005A80012302698371BFF35F8F00211160D7
:100A90008CF31088027804499340C26801205218F0
:100AA0001360EAE70080FFFF3C200000F0B5C64677
:100AB00000B582B0040000F01FF9FA2206000F0012
:100AC000200000230021920000F0C6FE8019794129
:100AD00004000D1E02DA01242E4D644206267642E1
:100AE000F71736196F41AF4214D811D000F004F94E
:100AF00032003B00121A8B41002B15DC002B46D034
:100B00002000290000F002F902B080BCB846F0BD18
:100B1000A642EBD90026002700F0EEF832003B0099
:100B2000121A8B41002BE9DD00F0E6F832003B00A1
:100B3000121A8B41002B0ADB00230193164B320063
:100B4000009316483B00FFF719FF0130D8D000236F
:100B50003900B0469C46124A1248536A994204D85A
:100B6000966A4645CCD29942CAD10668EFF31087FF
:100B700072B63368002BFCD0BFF35F8F0368BFF3FE
:100B80005F8F66461E6087F3108820BFE5E7002A66
:100B9000B6D0C9E7FFFFFF7F81050010B00300203A
:100BA00000400540E0220020F0B5CE46474680B523
:100BB00004000D0085B0EFF305838946002B32D188
:100BC000404E336883422AD03F4FFB683A789846BC
:100BD0001800039200F088F8039A131D42469B0008
:100BE0009B5822001B1A9C462B00121A8B4119009D
:100BF000002310008B4225DC22D020BF334B586AE3
:100C000048452BD3401B9A6A431E98410023A242B9
:100C10005B41184305B0C0BCB946B046F0BD73682F
:100C20008B42D1D1E9E7294900204B6AAB42F1D38D
:100C30008A6A5B1B591E8B41A24240411843E9E777
:100C40008445DAD900F058F822002B00121A8B41A3
:100C5000002B05DA1D4A536A4B4529D20020D9E7FB
:100C6000002301931A4B2200009338002B00FFF75A
:100C700085FE0028EEDD154B30C65A6A4A4515D36D
:100C80009B6AA34210D301003800FFF7D5FE0F4A3C
:100C90000020536A4B45BDD3926A5B1B591E8B41A2
:100CA000A24240411843B5E74A45ECD120BFEAE7EC
:100CB0000020926A5B1BA24240415A1E9341184396
:100CC000A8E7C046A8030020B0030020004005406C
:100CD0008105001010B5024A0248FFF77FFB10BDE6
:100CE00088C20510CC0E00200300416A0A00986AF1
:100CF000596A8A42FAD17047034B596A0A00986AC6
:100D0000596A9142FAD1704700400540064A536A39
:100D10009942FCD807D1044B02E05A6A914202D1B1
:100D20009A6A9042F9D8704700400540F8B5DE460F
:100D30004E4645465746E0B505008B4618000A99D1
:100D4000914600F0E5FA0A9B6C001E026419304BD4
:100D5000A400E418636880469E4200D966602F1F95
:100D6000FBB29A46012B2FD9C0238022294FAD0018
:100D70009B0179591201E3181A6000291BD14B46D7
:100D800022685B015340E022134080225201A218E6
:100D900013605346012B2FD9802380229B01E31837
:100DA00012011A60434666607B51F0BCBB46B246F6
:100DB000A946A046F8BD786900F0AAFA01304300C0
:100DC0001B18033BFDD2DAE75B46012BCCD1C023D5
:100DD00003229B01E3181A60023AA3681A42FCD06E
:100DE0004A46236852015A40E023134080225201B0
:100DF000A218084F1360AD005846032321684140F4
:100E00000B40136001228240A3681A42FCD0C3E762
:100E100000800040D00E0020F0B5D6464F46464632
:100E2000440098462418324BA400E41863688A46AC
:100E30009146C0B5FF2B02D880235B006360061F7C
:100E4000F6B2012E2FD9C02380222A4F85009B01A4
:100E500079591201E3181A6000291BD14B46226808
:100E60005B015340E022134080225201A21813601C
:100E7000012E30D9802380229B01E31812011A60D1
:100E800080235B00636043467B51E0BCBA46B146B9
:100E9000A846F0BD786900F03BFA013043001B180A
:100EA000033BFDD2DAE75346012BCCD1C02303220A
:100EB0009B01E3181A60023AA3681A42FCD04A4622
:100EC000236852015A40E023134080225201A218A5
:100ED000084F1360850050460323216841400B40B2
:100EE000136001228240A3681A42FCD0C2E7C046C8
:100EF00000800040D00E0020014B8000C058704799
:100F0000D00E0020F0B5C646040000B523481600F8
:100F100098460D0000F0FCF90100300000F0F8F9EF
:100F20004346069A1B04120313439C46236806009B
:100F3000002B22DB1A4B1B48E218531E9A418023D8
:100F40005242120B9B011203D218174B1A60174B17
:100F50001A60130001688B43FBD12122144B2560DA
:100F6000E318A6601A602268002AFCDA6246E26092
:100F700008221A6080BCB846F0BD3F2322681340A7
:100F8000AB42D7D1A3681B051B0D8342D2D1EE2201
:100F9000E368D20213406345CCD1EBE7001BB700F6
:100FA0000040FDBF08C0004000E0004000F00040ED
:100FB000043000008023024A9B000B43D362704739
:100FC00000800540002310B50100988A1B8B9847CC
:100FD00010BDC046162310B5010018885B889847DD
:100FE00010BDC046F8B54746CE4680B50F1E18D096
:100FF00014239946043304000025012698464B46E5
:101000001888434621681B88984701C4431E9841AD
:1010100001350640AF42F2D13000C0BCB946B046FF
:10102000F8BD0126F8E7C046AA23064A1B01136053
:101030008D235B00D3600449044B19605368002B77
:10104000FCDA70470040024000B0FA000060024045
:101050007047C04610B50148FFF7A2F9ACC20510B1
:1010600070B5074D074EB54209D20024013E761BEC
:10107000B608013608CD01349847B442FAD170BDA4
:1010800000C205103CC20510054B064A06491A600D
:10109000064A074B1A6010000B689843FBD1704753
:1010A00000E00040BFCDFBFE08C00040FE7F3C00DA
:1010B00000F00040044BDB6C002B03D18022034B7B
:1010C000D2021A607047C046000011504C201150E7
:1010D000044A054B1A60054A1368DB018033FBD1D3
:1010E0007047C046FFFFFF0100F0004008C000400D
:1010F0004022034B9A675A671A67DA667047C04600
:1011000000F0014010B5FFF79DF910BD70B52749FB
:10111000274E284D761AB4082200302C00D93022F0
:101120002800920000F00CFC2F2C3BD823002A3B17
:10113000214A052B1BD93020AE197107001B260050
:10114000CB0F002902DAA1006A50661CC01AE3180E
:101150009B004108EB18C900C9181A605A6008338F
:101160008B42FAD1012303421CD098438419A30077
:10117000EA50631C2F2C15D09B00EA50A31C2E2C88
:1011800010D09B00EA50E31C2D2C0BD09B00EA50A2
:10119000231D2C2C06D09B00EA50631D2B2C01D064
:1011A0009B00EA50054B9D6070BDC04600010010D9
:1011B000C001001000000020C101001000ED00E09F
:1011C000002310B5294C82B0A367FFF72DFF012241
:1011D000274B1A60636C012BFCD10322254B1A604C
:1011E000224A936B012BFCD1013300930121224A47
:1011F00022480433FFF786FE052301210093204A8D
:101200002048FFF77FFE0022022104201E4BFFF73B
:1012100003FE0022012105201C4BFFF7FDFD0022EB
:10122000002107201A4BFFF7F7FD002200210820BC
:10123000174BFFF7F1FD8023DB0000930022002114
:101240000920134BFFF772FD0022104B00210620EE
:10125000FFF7E2FD0420FFF74FFE0E4900F058F8BB
:1012600001000020FFF7A6FE02B010BD0080004084
:101270003CB0004030B00040002F68590080024070
:10128000008C864700C00240001BB700405973071E
:10129000006CDC0240420F0001480421014B18475A
:1012A000D0030020E50F0010014B5B6818470000D9
:1012B000D0030020014B9B6818470000D00300209A
:1012C000124A936F9B0815D29066D166002905D00B
:1012D000FFE7FFE7FFE7516F106F704704B580210C
:1012E0000906C2175140002800D0C8435AF060FFD9
:1012F000002104BDF0B5146E556E576F166FFFF7E1
:10130000E3FF1466556657671667F0BD000000D00E
:10131000114A936F9B0813D210665166002905D0BD
:10132000FFE7FFE7FFE7516F106F704704B5002834
:1013300001D00020C0435AF03BFF002104BDC0464D
:10134000F0B5146E556E576F166FFFF7E5FF146614
:10135000556657671667F0BD000000D094464A4AAC
:10136000926F9208624601D228E0C046F0B5464E20
:10137000346E756E776F366F00F020F89446424AEF
:1013800014665566576716676246F0BD94463E4A36
:10139000926F9208624601D254E0C046F0B53A4ED0
:1013A000346E756E776F366F00F04CF89446364A9F
:1013B00014665566576716676246F0BD002B24DB3E
:1013C00011D000293EDA00B5C943404200D10131B5
:1013D00000F038F8C943404200D10131DB435242AA
:1013E00000D1013300BD002AEBD1002801D1002932
:1013F00005D00020C90FC90701D1C043410800B57D
:101400005AF0EEFE0022002300BD00B500290ADBE1
:10141000DB43524200D1013300F014F8C94340428B
:1014200000D1013100BDC943404200D10131DB434D
:10143000524200D1013300F005F8DB43524200D1A3
:10144000013300BD002923D1002B18D1002A0CD074
:10145000BC460D4F38667A6600210023FFE7FFE7A0
:10146000FFE77A6F386F67467047002801D007485A
:10147000010000B55AF0B4FE0022002300BD0200B6
:101480000B00002000217047000000D0FFFFFFFF8D
:10149000002B00D0BFE0130C28D1002AE7D080B485
:1014A000114F39667A66FFE7FFE730B4040C7B6FB3
:1014B000396F1B0423433B667A66FFE7FFE7FFE7CC
:1014C000C04684B27B6F3D6F1B0423433B667A6644
:1014D000FFE7FFE7C04600232C042D0C7A6F386F1E
:1014E00000196941B0BC7047000000D0F0B59446C7
:1014F0000025140E01D112020835140F01D112017A
:101500000435940F01D192000235D40F01D152005D
:101510000135D40B0134254F7C66254C3C660E0CFE
:1015200093B2FFE7FFE7FFE73C6F6643360C7703B4
:10153000BE467343DF0B5B04C01AB941130C7343FF
:10154000DB18C91ACE086643360CB64493B273430F
:101550001F0F1B01C01AB941130C73431F0B1B054E
:10156000C01AB941860D8F023E436643360C092DE1
:1015700024DB520A7243801A7703460A6643360C0C
:1015800016235B1BDE40DF40BF1964466643821BA7
:101590007046043506330100D940A840C01900D375
:1015A0000131A24206D20023F0BD0000000000D0AD
:1015B000FFFFFFFF121B0130F3D3F1E709277F1B69
:1015C000FE406446A2B27243801A00D20139220C56
:1015D0007243130C1204821A99410B0070460435B1
:1015E00013370100F940A840801900D30131002BC6
:1015F00002D1A2420AD2F0BD013000D30131121B48
:10160000FAD2013BF8D1A24200D2F0BD013000D3A2
:101610000131121BF7E7F0B51C0C00D080E00CB4D0
:1016200000251C0A04D11B02160E33431202083592
:101630001C0B04D11B01160F3343120104359C0B04
:1016400004D19B00960F334392000235DC0B02D18C
:1016500092185B4101351C00971864410134464FD4
:101660007C66464C3C660E0CFFE7FFE7FFE7C04692
:101670003C6F6643360C7703BE4697B27743C01B78
:1016800000D20139C01B00D201399FB27743C91B78
:10169000C91B170C77437E04FF0B801BB941CE0892
:1016A0006643360C0C2D33DBB644120B1F053A4350
:1016B0001B0B97B27743C01B00D201399FB277430F
:1016C000C91B170C77433E043F0C801BB941860DA4
:1016D0008F023E43664329277F1BFE400C3D774621
:1016E000AF40BF1930BCA2B2ABB272437343801A91
:1016F0009941220C7243130C1204801A9941020082
:101700000B000137001BA941F9D2781E0021F0BD62
:101710000C277F1BFE4077467F0BAF40FF19E0E7A9
:1017200000245D1C07D0144F7D663966FFE7FFE794
:10173000FFE7FFE73C6F95B29EB265436643401BEF
:10174000B141150C1E0C6543664336042F0C3E4315
:101750002D04401BB141994204D202000B0020002D
:101760000021F0BD01D19042F7D3801A9941013494
:101770009942F2D3F6E70000000000D0FFFFFFFF20
:1017800010B50148FEF70CFEB8C20510132370B562
:101790001D78012D19D014DD1D48FFF71BFC060034
:1017A0001C48FFF717FC1C4C80223100200000F081
:1017B000C7F8022D06D01948FFF704FC184B186033
:1017C00070BD154C174BA364F5E7174B124C236003
:1017D0006360A360E36023616361A361E3612362EB
:1017E0006362A362E36223636363A363E3632364CB
:1017F0006364A364E36423656365A365E3652366AB
:101800006366A366E36623676367A367E367D9E755
:101810005344000053460000000C00204C330000ED
:10182000DC2100202D1800108117001007B560463C
:1018300001880A0A0230DF2AFAD1C9B2820804D329
:10184000028840880004104300E00068014A5050BC
:10185000039007BD000C002051434343C9188C4638
:10186000110C83B24B4310B4040C614392B280B2AA
:10187000504362431C041B0C001910BC5941130453
:10188000120CC018514161447047000010B5014866
:10189000FEF786FD64C20510132310B51C781148AD
:1018A000FFF798FB012C0BD004DD010080220E48CD
:1018B00000F046F80D48FFF785FB0D4B186010BD92
:1018C000094C01005422200000F03AF822002000C8
:1018D000084980320368002B00D101600430904237
:1018E000F8D1E7E753460000E02100204C33000028
:1018F000DC2100208D18001010B5040059F0CCFF39
:10190000002804D0034B04199C4200D810BD0248A3
:10191000FEF746FD00000420D0C2051010B559F0B6
:10192000C5FF10BD01480421014B1847E00300200A
:10193000E50F0010014B1B6818470000E003002072
:10194000014B5B6818470000E003002010B5002839
:1019500000D110BD00F01EF9FBE7C04610B5094AE2
:101960000300146884B0002C08D0012200910648BE
:10197000524203A9A047012004B010BD00F054F961
:101980000020F9E7081F00204D19001000BEFDE7F8
:101990007047C046094A1368002B06D0084918183A
:1019A000884208D8106018007047064B0449181880
:1019B00013608842F6D901235B42F4E7041F00203C
:1019C00000000420C823012010B5FFF7DFFFC04648
:1019D00070B5FFF745FB074D074EB54209D200240D
:1019E000013E761BB608013608CD01349847B44253
:1019F000FAD170BD3CC2051040C20510030010B5FD
:101A0000080011001B68984710BDC046F8B5437D1B
:101A100007000D001600002B38D0002A1ADD0B78C5
:101A20000A2B18D00020012E09D0012421006B5C64
:101A300001340A2B1AD0B442F8D1864203DD311AA0
:101A40003B6828189847AD19013D2B780D3B5A4249
:101A500053413B75F8BD037D002BE3D102210E48B5
:101A60003B689847012EEED00120DEE76B1E5B5CE1
:101A70000D2BE0D0884203DA091A3B6828189847F2
:101A8000054802213B6898472000D4E7036811000D
:101A900028009847DEE7C0462CCC0510F0B5464636
:101AA000D6464F46C0B582B090461C0006000D00D9
:101AB000FFF722F900232F4A12184B41002B02DABC
:101AC00001222D4B52422D4908008A465AF080FBD4
:101AD00081466B1C03D130005AF0DEF90500002C62
:101AE00027D0274F274B1C68002C18D04346002BCB
:101AF00021D1254B984602E02469002C0FD02368A1
:101B0000002BF9D043461B68002B01D09C42F3D137
:101B100020002A003100B8472469002CEFD14B4641
:101B2000002B23D1280002B0E0BCBA46B146A8463B
:101B3000F0BD164FD6E7144B984602E02469002CFE
:101B4000EDD02368002BF9D043461B68002B01D051
:101B5000A342F3D12A0031002000B8476B460A2285
:101B60002000DA71D91D093AB847E7E750465AF024
:101B70000FFBD7E740420F00FFFFFF7F780A0020EE
:101B80000D1A0010F81E0020001F0020FD19001083
:101B900000207047F0B5CE46474680B583B06B460F
:101BA0000600DD1D2870FFF7A7F80023194A121858
:101BB0004B41002B02DA0122174B52421749080011
:101BC00089465AF005FB164B80461C68002C14D041
:101BD000144F02E02469002C0FD02368002BF9D0A9
:101BE0003B68002B01D09C42F4D120000122290047
:101BF000FFF70CFF2469002CEFD14346002B05D1E1
:101C0000300003B0C0BCB946B046F0BD48465AF0FB
:101C1000BFFAF5E740420F00FFFFFF7F780A002080
:101C2000F81E0020001F002070B504005AF034F99F
:101C300001230100050001222000FFF72FFF084BC0
:101C40001C68002C06D06368002B05D098472469D7
:101C5000002CF8D1280070BD2469002CF3D1F9E7DD
:101C6000F81E0020F0B5454680463C4B4E464344A6
:101C70005A1E9341DE4657468022E0B55B421B0C5C
:101C800092021B049B18364A83B01360354A89467A
:101C9000354913601D000A689543FBD10620FFF704
:101CA0002BF943465A6802231A4000922F4A802695
:101CB000424413604B468246D90D580201920B00F4
:101CC00002000224760006E0924506D30234121880
:101CD0004B41B44201D0002BF6D080272602361BA0
:101CE0007F0002E0361B012F36D031005046BB4644
:101CF000013FFFF70DFB8145F4D2594661433D0298
:101D000043461C611B68FF226B40802512026D0157
:101D100013404544164A2B60009B42441360022046
:101D20004346019C5B682060444626680724664061
:101D3000C83434402C600324034013600D4B4344EB
:101D40001C6010605046FFF7E3FA03B0F0BCBB46DE
:101D5000B246A946A046F0BD2100D1E70000FCBF75
:101D600000E0004000F0004008C0004004300000E7
:101D7000042000002420000010B5EFF3108C72B690
:101D80000A4B9A688300D058814205D0084A904295
:101D90000AD3084A904207D2044A9268D150BFF34E
:101DA0005F8F8CF3108810BDFFF754F900ED00E051
:101DB000C0010010D401001070B5204C20492068EB
:101DC000FFF750FF022123681E485A681818016067
:101DD00018680A40CD318143802001254001181840
:101DE0000160194912205B181A600121FEF7A2FA5E
:101DF00001211320FEF79EFA144C2088FEF7B2FA58
:101E00002A002388D0249A40114E2406308862622A
:101E10006261FEF7A7FA2A0033880E4E9A4000232B
:101E2000F05E62626261431C06D0FEF79BFA0022FC
:101E3000B35E9D406562656170BDC046F8030020D9
:101E400080F0FA020430000004200000F4030020B7
:101E5000F2030020F0030020F0B5DE4657464E4660
:101E60004546E0B5037887B0002B77D0013B1D00D5
:101E70003E4BD02701933E4B441C02933D4B3F0603
:101E80009B46012398460133994603E0013DEDB29C
:101E9000FF2D63D04046A21C0199039262782378FB
:101EA00000920A8844469040B86104A8C371029821
:101EB0004E4603889C40BC615C4620684C464268A4
:101EC00022402D4C03191E608024C7260368B246A9
:101ED000734064010836011933400B60274B7F249F
:101EE000C3181A6004ABD91D01225AF059F902989F
:101EF000009A0388404698407861584614404A4604
:101F000000681D4943681340421849461160514614
:101F100002684A4080214901164042181660174E57
:101F20008219039E1360310022005AF039F94046AD
:101F3000019B34191B8898406B461B7878615BB213
:101F4000002BA3DA2078661CFF2800D1F530013D74
:101F5000EDB2FEF7ABFD3400FF2D9BD107B0F0BC16
:101F6000BB46B246A946A046F0BDC046F4030020D9
:101F7000F2030020F80300200430000004200000D9
:101F800000230321F0B585B002AA93710A006B4BC0
:101F900002401A706A4B04241B781D00A543012DD2
:101FA0000DD068490020095E022A24D0032A0BD1F3
:101FB000022B00D0ABE0602302AA937187E0800778
:101FC00013D4604801800321012A00D176E0022B5E
:101FD00000D198E0042B00D1A7E0C82202A88271AA
:101FE000012B12D18020802211E056490D80012161
:101FF000022A00D078E0022B07D0042B00D19AE00F
:10200000082202A88271012BECD0A02080224E4B26
:1020100018804E4B1A804E4A4E4B12881A804E4BF7
:102020001980012422004D4BD02500931B882100EC
:102030009A4036232D06AA6102AAD371484A494E16
:1020400013880227994030680192A9614649426885
:102050004318C7211F6003683A404B4008310B40CA
:102060008021490141180B60404BC3181A6002AB34
:10207000D91D01225AF094F82000019A3A49138898
:10208000984068613068CF264218C72143681760BE
:1020900002683B404A4080214901164042181660C0
:1020A000324A02A982181360063101225AF078F8E8
:1020B000009B1B889C406C6105B0F0BD022B1ED0BC
:1020C000042B2CD0A82202A88271012B14D0A020AE
:1020D00080221E4B18801C4B1A801D4A1E4B1288F2
:1020E0001A801C4B19809CE7032A00D06CE76822F9
:1020F00002A88271012BEAD180208022E9E7A02387
:1021000002AA9371E3E7BE3302AA93717DE7042B21
:10211000EDD102AA5C339371A0205022D9E702AA24
:102120009C339371A0205022D3E702AABC33937151
:10213000A02050226BE7A020502268E7C423012092
:10214000C5230120BC230120BA230120BE23012086
:10215000B8230120C0230120C2230120F403002062
:10216000F2030020F80300200430000004200000E7
:10217000F0B5012585B00400FFF71EFE2A006A4E67
:10218000D02733883F069A40684BBA6100930022FB
:102190009B5E5A1C0AD02A009A400520BA61FEF7BD
:1021A00085FC009B00229B5E9D407D616048FFF79F
:1021B00053FE002C00D193E0012C00D1A2E0052CAD
:1021C0000FD0042C26D05B48FFF746FE5A48FFF795
:1021D00043FE022C30D0594B00201C70FFF7D0FE7C
:1021E00016E08022564B57481A80574B1A80FFF74B
:1021F00033FE0222554B50481A80554B01321A804B
:10220000FFF72AFE01224D4B02201A70FFF7B8FE9D
:1022100005B0F0BD50224A4B4E481A804A4B50320E
:102220001A80FFF719FE1822484B43481A800022F3
:10223000474B1A80FFF710FE0125C02302AA9371B5
:102240002A003388D0279A4036233F06BA6102AA73
:10225000D3712A00404B022100931B889A40BA6137
:102260003E4A3F4B10680192C318426819600368E8
:102270000A40C5314B4008310B40802149014118CB
:102280000B60384BC3181A6002ABD91D012259F0FC
:1022900087FF2800009B02211B88019A9840304B41
:1022A00078611068C3184268196003680A40C53134
:1022B0004B4008310B408021490141180B60294BEC
:1022C000C3181A6002AB991D012259F069FF3388C7
:1022D00000209D40194B7D611C70FFF751FE97E770
:1022E0002148FFF7B9FD0222184B13481A80184BFA
:1022F000013A1A80FFF7B0FD104B00201C70FFF769
:102300003FFE85E780220E4B0E481A800E4B1A8046
:10231000FFF7A2FD02220D4B07481A800C4B013239
:102320001A80FFF799FD56E7F4030020F003002020
:102330009CCC05107CCC051030CC0510C5230120A9
:10234000BA2301206CCC0510BE230120B823012044
:10235000BC2301205CCC0510F2030020F803002010
:1023600004300000042000008CCC0510F0B5CE46EF
:1023700047465C4C80B5248887B000195A4C01262A
:10238000248880B2091989B2CB18013B09040B4398
:102390001BBA05932A238218013A0004024312BA99
:1023A000049202AAD3713200504B022401931B887D
:1023B0004F499A401300D0221206936191464D4A2C
:1023C000C7271068CF2543188021904642681C60BB
:1023D000036849017B402B4041180B60464B22406B
:1023E000C31802A91A600731012259F0D9FE320040
:1023F000019B3F491B889A4013004A46536142465D
:1024000010684318802142681C60036849017B40C2
:102410002B4041180B60384B2240C3181A6004A9A6
:10242000042259F0BDFE2B2302AAD3713200019B76
:102430002F491B889A4013004A4693614246106810
:102440004318802142681C60036849017B402B408F
:1024500041180B60284B2240C31802A91A600731AB
:10246000012259F09DFE3200019B21491B889A40B0
:1024700013004A465361424610684318802142685F
:102480001C60036849017B402B4041180B601A4BCC
:102490002240C3181A6005A9042259F081FE2C239A
:1024A00002A8C371019B48461B8811499E40866162
:1024B0004046006842188021436814600268490160
:1024C0007A401540421815600B4A23408218136069
:1024D00002AB0122D91D59F063FE07B0C0BCB9465A
:1024E000B046F0BDC0230120C2230120F20300202A
:1024F00004300000F803002004200000F0B501249F
:102500002600184F1D003B88C6469E403300D0264B
:10251000360600B5B3612B009046FFF727FF210078
:10252000114B02221B889940104B716118681049A9
:10253000436841180A6001681340CD328A43802104
:10254000490141180A600B49421813604246069936
:102550006A4359F035FE3B889C40746180BCB846A4
:10256000F0BDC046F4030020F2030020F803002071
:102570000430000004200000F0B5C64600B5040099
:1025800001F03AFA364A374E136801331360336864
:10259000002B34D0344BE26A98461B68002B28D0BD
:1025A000324D33490B6801330B606364314B19685A
:1025B000914200D21A6093009B189B00E9184A6868
:1025C000A26090680700E060201D78609060EA5883
:1025D00061610132EA5001F01BFA43461B68002B8F
:1025E00004D03368DA6AE36A9A4211D380BCB846F1
:1025F000F0BD3368DB6A9342D2D83460D0E73460F0
:102600001368012B07D0184BE26A9846174DC8E7AC
:1026100001F0E6F9EAE7154D2F00380001F08AFADB
:10262000154B1437BB42F8D1144B9846180001F0F3
:1026300081FA134F380001F07DFA124801F07AFA5E
:10264000114801F077FA114801F074FA4246104B34
:102650001A60104BE26A1F60034B9846A1E7C04620
:10266000EC220020642100207C230120782100201E
:10267000F8220020FC220020DC2100202823012059
:102680003C23012068230120942301208023012082
:102690006C21002070210020F8B54746CE4604008A
:1026A000264B80B51E68264B264D1B6889461F00A9
:1026B000254B1B6828689846043001F071FA631CAA
:1026C00018D02B6834195C60A64208D929684046A6
:1026D000043101F04BFAC0BCB946B046F8BD2968D8
:1026E0003800043101F042FA184B1A68A242F2D9BC
:1026F0001C60F0E74B46002B0CD12A68731E536018
:102700009E42E3D829683800043101F02FFA0F4BBC
:102710001B68E0E70E4B29685A688A609068296850
:10272000C8602968043141602968043191602A68D1
:1027300053611A6801321A60CDE7C046A823012010
:102740006C21002064210020702100205C230120E6
:1027500080230120F8B5CE464746950080B58046D7
:1027600028000E00994601F0B7F8071E00D187E057
:10277000782001F0B1F8041E00D17EE0782200211B
:10278000FFF7D8F82A00A52138002763FFF7D2F811
:10279000236B043D5D1907239D43002E4BD034224B
:1027A0003378A354002B43D073780132A354002B09
:1027B0003ED0B3780132A354002B39D0F3780132E4
:1027C000A354002B34D033790132A354002B2FD0E3
:1027D00073790132A354002B2AD0B3790132A35468
:1027E000002B25D0F3790132A354002B20D0337A6B
:1027F0000132A354002B1BD0737A0132A354002B57
:1028000016D0B37A0132A354002B11D0F37A0132DF
:10281000A354002B0CD0337B0132A354002B07D0E0
:10282000737B0132A354002B02D04223B27BE254CB
:1028300043230022E254089E042E1CD8201DE66289
:10284000E66401F083F92000183001F07FF90523D8
:102850009B1BA3614A46414628002461646201F043
:10286000AFF8099B2060002B00D01C602000C0BC8A
:10287000B946B046F8BD0426E0E7380001F038F864
:102880000024F3E7F0B5C646124B00B59846124D4A
:10289000124F134E14E001F0AFF8FB68DC68201D06
:1028A00001F07EF93368013B33602B68013B2B60FC
:1028B00001F0AEF8206B01F01BF8200001F018F8D1
:1028C0002B68002BE7D143461B68012BF8D901F098
:1028D00087F8F5E778210020F022002094230120DA
:1028E000EC220020F0B55746DE464E4645465E4B8C
:1028F000E0B51F6883B001371F60002F66D05B49C9
:102900000B689F4277D35A4B98461B681B68002B75
:1029100000D1A3E000239C46564B45469A46564BB1
:10292000564C9946634600934B468C46B9460193F4
:1029300038E01068013810609A6A002A0FD0D9690F
:10294000186A8860D969416018005168183081425E
:1029500000D175E00021106899620138106001997A
:10296000D86A0A68904200D9086047468200121867
:102970009200A118486898608668DE60776087607A
:10298000A05859610130A05052461068DA6AC36AF3
:1029900093429B41009A5B421A432B6800921B684A
:1029A000002B55D02B68DB68DB685A6891454AD309
:1029B0009968D8685A698860996841605068191D9B
:1029C00088468842B5D1D8685060B2E7284B2C4A77
:1029D00019681068186011602A490A6801320A6093
:1029E0001A681268002A25D1012320495B420B6036
:1029F0000B689F4287D200239C461E4B1F4C9A4671
:102A0000534601201B68204AD96A12688B005B1864
:102A10009B00E3589842804113005A1E9341404264
:102A200018436346184303B0F0BCBB46B246A94600
:102A3000A046F0BD1B680D49DB681B680B605FE7B3
:102A4000186A506086E76146009B0A609C46D7E79B
:102A50006146944601235B420B60D1E79C46054BDF
:102A6000064C9A46F6E7C046A82301205C230120C5
:102A70006C21002064210020FC220020782100200D
:102A80007021002060230120B423012010B582B002
:102A9000059C0194049C0094FFF75CFE002804D080
:102AA000FFF76AFD012002B010BD01204042FAE7A5
:102AB000F8B5040000F0A0FF254E002C42D0201DE8
:102AC00001F06EF8A36A271D002B03D020001830F8
:102AD00001F066F81F4A204D136801331360336814
:102AE000A34221D02B681D4A1368013B13601C4B85
:102AF0001A681268002A13D01B68DB681A68194B21
:102B00001A6000F085FF206B00F0F2FE200000F05C
:102B1000EFFE2B68002B02D03368A34214D0F8BD1F
:102B2000104B013A1A60ECE72B68002BDBD0390020
:102B30000D4801F00FF80D4A13680133136000F0DF
:102B400067FFE6E73468BAE700F04AFFE7E7C04608
:102B500064210020F82200207C230120EC220020A8
:102B60006C2100205C23012094230120F02200200E
:102B700010B5002486B01022002102A8FEF7DAFE6C
:102B8000114B80220293114B1148019300940023B2
:102B900002A9FFF7DFFD002805D0FFF7EDFC00F0EC
:102BA00055FE012803D00B4B1B6806B010BD72B652
:102BB0000122094B52421A60084B1860084B1C60F6
:102BC00000F064FFEFE7C04649444C455423012020
:102BD00085280010D8CC05105C2301207C2301201F
:102BE000A8230120024A1368013313607047C046CE
:102BF000F4220020F8B5DE46454657464E46E0B57D
:102C000000F0FAFE534D2B68013B2B602B68002B24
:102C100000D082E0504B1B68002B7ED04F4F3B68AA
:102C2000002B00D192E04E4BAB4618004D4B4E4C62
:102C300099464E4B9A46FB68DB68DE69196A9A6AC8
:102C4000B160DE694E601900566818318E4200D1BD
:102C500075E0002199621168013911609E68D96898
:102C60005A69B1609E684E6051681E1DB14263D0C2
:102C7000116801391160D96A0268914200D9016076
:102C80008A0052189200A1188C46496899608D6894
:102C9000DD606E608E6061465961A1580131A150BE
:102CA0004A461168DA6ACB6A9A4240D953460122F1
:102CB0001A603B68002BBED12D4B5D461A68126826
:102CC000002A3FD01B68DB681A682A4B1A602A4E1C
:102CD0003468002C17D0330001272E001D0008E0B7
:102CE000FFF700FE002801D053461F60013C002C76
:102CF00008D03368002BF3D02B68013C01332B60E4
:102D0000002CF6D12C6053461B68002B05D0154BC8
:102D100001241B6800F064FE00E0002400F078FE4F
:102D20002000F0BCBB46B246A946A046F8BD3B68B1
:102D3000002B00D07FE7BFE7D968516098E7196A98
:102D4000516086E70B4B013A1A60C0E7074B9A4681
:102D5000BDE7C046F4220020EC22002068230120B9
:102D6000FC2200206421002078210020B4230120CF
:102D70006C2100205C23012064230120F0B5C646AD
:102D8000040000B500281DD0154A136801331360F4
:102D9000144B154D1E68154BA4191B689846144B0F
:102DA0001F682868043000F0FBFE2B6829685C600F
:102DB0000431A6420BD9380000F0D8FEFFF71AFF05
:102DC000002801D100F00CFE80BCB846F0BD4046A2
:102DD00000F0CCFE074B1A689442EFD21C60EDE77E
:102DE000F4220020A8230120642100206C2100206F
:102DF000702100205C230120014B18687047C046F9
:102E0000A8230120064B10B51B68002B02D1FFF749
:102E100069FD10BD034A0020136801331360F8E711
:102E2000F422002064230120234B30B51B68002BC3
:102E300003D00122214B1A6030BD204A204C136080
:102E4000236820499C4662469B009A1892008A5843
:102E5000002A2BD163465A1E930098188000085808
:102E6000002811D163469A1E9300981880000858D4
:102E7000002809D16346DA1E93009818800008588C
:102E8000002801D1013A93009B189B00C818844682
:102E90006546406808334068C9186860884207D0B2
:102EA000094BC168196022601B68C5E76246EBE701
:102EB000E8686860F4E7C046F4220020B4230120EB
:102EC000FC2200207821002064210020F0B5C646B5
:102ED0000D001E4C00B52168183100F047FE1C4B58
:102EE0001E681C4B1B681F001B4B1B682068984604
:102EF000043000F055FE6B1C15D023682168AD1915
:102F00005D600431AE4205D9404600F02FFE80BC22
:102F1000B846F0BD380000F029FE104B1A68954203
:102F2000F5D21D60F3E70E4B21685A688A609068FD
:102F30002168C860216804314160216804319160D2
:102F4000226853611A6801321A60E0E764210020A8
:102F5000A82301206C210020702100205C23012087
:102F600080230120F8B54746CE462A4C4368884660
:102F7000216880B5CB619D6821680D622168183198
:102F80006960216818319960236898620368013389
:102F90000360214B002A1ED01B68204B1B68204B6E
:102FA0001B682068043000F0FBFD1E4B21685A6846
:102FB0008A6090682168C860216804314160216896
:102FC00004319160226853611A6801321A60C0BCF2
:102FD000B946B046F8BD1E68104B1B689946104BA9
:102FE0001F682068043000F0DBFD43469D1923680C
:102FF00021685D600431AE4208D8484600F0B6FD55
:10300000094B1A689542E2D21D60E0E7380000F0F3
:10301000ADFDDCE764210020A82301206C21002005
:1030200070210020802301205C230120C36870B53B
:10303000DB68D869196A9A6A8160D86948601800A3
:1030400051681830814245D00021996211680139D8
:103050001160274A1268002A2ED19868D9685A69E7
:10306000816098684860191D8C465168614534D06C
:103070001168013911601F4AD96A1068814227D846
:1030800066468A001C48521892008418616899604C
:103090008D68DD606E608E6081585C6101318150A9
:1030A000164A00201168DA6ACB6A9A4203D90122D3
:1030B000134B01301A6070BD124A5168D9618C6897
:1030C0001C626060886011689A6201311160E7E7F4
:1030D0001160D5E7196A5160B6E7D9685160116887
:1030E00001391160034AD96A10688142C8D9EFE7F3
:1030F000F4220020FC2200207821002064210020FE
:10310000B423012068230120034B1B680360034B99
:103110001B6843607047C04660230120A82301203C
:10312000F8B50D00040000F067FC114A2B68116827
:10313000581C1AD00F4E2768B44636686068B742EC
:1031400008D0884206D8002301242B6000F060FCE0
:103150002000F8BD0E1AB342F5D95B1A1B182B607C
:1031600063461B682360136863600024EEE7C04673
:10317000A8230120602301200122014B1A6070471F
:10318000B4230120014B18687047C0466421002019
:10319000F8B5041E22D0204DC26A2B68DB6A9A4221
:1031A00015D28369002B04DB2B68D96A05235B1ACF
:1031B000836193009B18194A9B001600D31862691B
:1031C0009A420DD02B680120DB6AE36205E02B6890
:1031D000C06CDB6A984280414042F8BD0020FCE7A9
:1031E000201D00F0DDFC2B68271DDA6A0C4BE26223
:1031F00019688A4200D91A6093009B189B00F11845
:103200004A68A2609068E06047609760F258616128
:1032100001320120F250E0E76421002078210020F3
:10322000FC220020F8B5041E08D0036DC16AC26CF0
:10323000013B0365914201D0002B01D00020F8BD75
:10324000071D043000F0ACFC0523E26C9B1AA3615F
:103250000B4BE26219688A4200D91A60930009494F
:103260009B189B00C8184268A2609568E5606F6073
:103270009760CA58606101320120CA50DFE7C0463A
:10328000FC2200207821002070B5041E08D0C36CF9
:103290008B4206D3E26A9A4202D0216D012905D001
:1032A00070BDE26A0B009A42F7D1F9E7A169E362C7
:1032B000002902DB0521CB1AA36193009B18104A59
:1032C0009B001500D31862699A42E9D1201D00F0D5
:1032D00067FC0C4BE26A1968261D8A4200D91A6005
:1032E00093009B189B00E9184A68A2609068E06010
:1032F00046609660EA5861610132EA50D0E7C04604
:1033000078210020FC220020034B1868002802D0FE
:10331000036D01330365704764210020F8B5040094
:103320004746CE46254D1A342B68A600F35880B583
:10333000884607009146002B01D1002A1CD100F0DD
:103340005BFB2B68A400E658002E05D04346002BFB
:103350000ED000222B68E25000232868C019743078
:10336000037000F055FB3000C0BCB946B046F8BD54
:103370002B68721EE250EFE7114A136801331360A5
:1033800000F03AFB2B68F358002B04D000F040FB10
:10339000FFF730FCD3E701222B68DB1974331A7076
:1033A00000F036FB01214846FFF776F9FFF722FCD3
:1033B0000028C4D100F014FBC1E7C04664210020FE
:1033C000F4220020F8B51E0004000D00170000F0E4
:1033D00013FB069B002B05D01A002B001A339B0011
:1033E0001B59136002226319743319781A70C9B219
:1033F000032E14D00FD8012E41D0022E04D1AD00DF
:103400006519AB6E0133AB6601290DD0012400F0C4
:10341000FFFA2000F8BD042EF6D1022935D01A3566
:10342000AD002F510129F1D1A168E26863698A607A
:10343000A168201D51605A68824228D01A68013A5A
:103440001A60144BE26A19688A4200D91A60930024
:1034500011499B189B00CD186A68A2609668E660C7
:1034600070609060CA5865610132CA500B4B1B688E
:10347000DA6AE36A9A42C9D200F0B2FAC6E7AD004E
:103480006519AB6E3B43AB66BEE70024BFE7E2685D
:103490005A60D3E7FC22002078210020642100201C
:1034A000F0B557464546DE464E46E0B5D24FD34AC4
:1034B000B84643469246D24A8BB0019228221B68F6
:1034C00093461D68CF4CD04F002D67D1FFF78AFB84
:1034D000FFF792FC3B688146834200D9F6E05346F1
:1034E0001B6838601A6853425A414B462068E91AF3
:1034F00001F020F9FFF77EFB002800D13AE110220D
:10350000002106A8FEF716FA3D000022206806A951
:1035100000F092FD00283BD0069B002B75DB089E37
:10352000002EF2D07369002B02D0301D00F038FB62
:10353000FFF762FC2B68070098426FD3069B2F6051
:10354000092BE2D8019A9B00D3589F465B46F05C5A
:1035500001235A460343B3540799B26936618B1865
:103560007360BB4200D9A6E0791A8A4236D8410777
:1035700000D502E1012398435B46F0543000336AE2
:1035800098470022206806A900F056FD0028C3D104
:1035900043461B682F001D68002D97D0DB681D680F
:1035A000FFF720FBFFF728FC3B688146984200D2DA
:1035B0008CE03860854200D801E1002295E75B4647
:1035C0000122F35C13435A46B354079B3661DA1960
:1035D000B3617260BA4273D8002B96D05346311D46
:1035E000186800F0C3FA90E75B460122F35C93434E
:1035F0005A46B35489E75B46F35C9A0700D4B5E0BA
:10360000012293435A46B3547FE7079B09990898D0
:103610009847069B002B00DA77E780E743461B6854
:103620001A68002A40D00422029691460395049419
:1036300005900BE0012293435A46A354236A2000CD
:10364000984743461B681A68002A29D0DB68DC6863
:103650001E68271D380000F0A3FA5B464A46E35C6B
:103660001A42E7D0A3692461F518F64365609E42CB
:1036700009D3EE43236A20009847A3692461ED181B
:103680006560B342F5D953463900186800F06EFA08
:10369000236A2000984743461B681A68002AD5D140
:1036A000029E039D049C059F5246414612680A6093
:1036B0005246136042E7B94202D9994200D856E710
:1036C0004346311D186800F051FA1EE743461B6857
:1036D0001A68002A3FD04A460397A14602920BE09F
:1036E000012293435A46AB542B6A2800984743461D
:1036F0001B681A68002A2AD0DB68DD681F682C1D49
:10370000200000F04DFA5B460422EB5C1A42E7D041
:10371000AB692D61FE18FF436E609F420AD33700EC
:10372000FF432B6A28009847AB692D61F6186E603D
:10373000BB42F4D953462100186800F017FA2B6AEF
:103740002800984743461B681A68002AD4D1029A79
:103750004C469146039F5246414612680A605246C3
:1037600013604B463B60FFF745FAC8E6300000F0B7
:10377000BFF8CAE600F034F9C1E6A1463C0007E014
:10378000E31A9A4214D8336A300098473B00B26972
:10379000D71877603661BC42F2D29C4201D2BB425C
:1037A000F1D94346311D18684C4600F0DFF9E5E6D3
:1037B0005346311D18684C4600F0D8F9DEE6FFF795
:1037C00019FA43461B68DB68DE68331D1800029354
:1037D00000F0E6F95B46F35C5A0707D401229343F5
:1037E0005A46B3543000336A984788E622002B00CB
:1037F0004C46914611E0C04668210020742100200B
:10380000DCCC0510AC23012058230120E31A9A4296
:1038100014D8336A300098472B00B26936619D187E
:103820007560A542F2D9A34201D9AB42F1D9434612
:10383000029918684C4600F099F9D3E7534602996B
:1038400018684C4600F092F9CCE7C04670B582B0DB
:1038500000F0D2F8174C2368002B12D000F0D8F8F3
:1038600023680020002B0AD0134B802201930323EE
:1038700012490093124800235200FFF707F902B0E3
:1038800070BD104E300000F055F90F4D280000F0CB
:1038900051F90E4B00221E600D4B10210A201D60B5
:1038A00000F08EF920600028D8D00A4900F08EFE82
:1038B000D4E7C046AC230120B023012034C3051057
:1038C000A1340010002301201423012068210020CE
:1038D000742100202CC3051010B50400FFF782F9F5
:1038E0002000FEF709F80400FFF784F9200010BD5E
:1038F00010B5041E06D0FFF775F92000FEF70EF88C
:10390000FFF778F910BDC04600000000000000007D
:103910000B4A13681868203080F30988022080F36E
:103920001488BFF36F8F3FBCAE4608BC04BC62B6C0
:103930001847C046C046C046C046C046C046C046FE
:1039400064210020000000000000000000000000D2
:10395000EFF30980164B1A6820381060F0C0444617
:103960004D4656465F46F0C00D221207146E556E46
:10397000566F176F3038F0C008B572B6FFF754FABB
:1039800062B60CBC116808681030F0C8A046A946A1
:10399000B246BB4680F309880D2212073038F0C8C2
:1039A0001466556656671767F0C81847C046C04684
:1039B0006421002010B5FCF70BFDC0467047C046DF
:1039C00010B58024031F64041C60043B1960034984
:1039D000043B1960143B40381A6010BDB539001023
:1039E0008022044B52051A60BFF34F8FBFF36F8FD5
:1039F0007047C04604ED00E072B6044A1368013314
:103A00001360BFF34F8FBFF36F8F7047E822002022
:103A1000034A1368013B1360002B00D162B6704764
:103A2000E8220020EFF3108072B6704780F3108810
:103A30007047C04610B5FFF7F5FF0400FFF7E2F945
:103A4000002803D08022034B52051A602000FFF7A4
:103A5000EDFF10BD04ED00E0002310B5084A094C4D
:103A6000052023601360FDF747FAFA218900FDF76E
:103A70004FFC054B013818600723236010BDC0467A
:103A800018E000E010E000E014E000E0FF22134B3B
:103A90001204196810B50A431A60FF221968120649
:103AA0000A431A600E490E20FEF766F90D490F20F1
:103AB000FEF762F90C490B20FEF75EF9FFF7CCFF29
:103AC00000220A4B1A60D0221206094B12681A70A3
:103AD000FFF71EFFFFF7A8F9FCF77AFC20ED00E0E6
:103AE00051390010353A0010BD390010E82200208D
:103AF000FC03002010B5FCF799FC054A054B801823
:103B00008000186000F00AF8034B186010BDC04632
:103B100040000034602100205023012010B51C20FB
:103B2000FFF7DAFE041E03D0002308C000F002F8FD
:103B3000200010BD0300083301224360C36003610D
:103B400000235242826003607047C0460023036135
:103B50007047C04643689A684B608A6051609960BC
:103B600003680861013303607047C04630B5050043
:103B70002B0008680C000833421C0DD019005B684C
:103B80001A688242FAD963609C602B68A160013395
:103B90004C6025612B6030BD29694B68F3E7C04656
:103BA0000369416882688A6051605968814205D022
:103BB0000022026118680138186070475A60F7E700
:103BC000F8B505000E001700002840D0030C0A0CC1
:103BD000002B41D1002A2FD130006843030051331C
:103BE00035D85030FFF778FE041E30D00300002E89
:103BF00030D12360E5632664FFF7FEFE216CE36BA2
:103C000022684B43D018A06000205B1A6260D21873
:103C1000E260FF234422A0632000A3540132A35496
:103C20001030FFF787FF20002430FFF783FFFFF7F6
:103C3000EFFE4C23E7540BE0131CA9B2B2B24A4387
:103C400080B29BB24343120C9B181B0CC4D00024BF
:103C50002000F8BD5033CCE7002AF8D1081CECE76F
:103C6000F0B5CE464746050080B585B0984601922E
:103C70008946FFF7C1FEAA6BEB6B9A427BD34246A3
:103C80000023022A00D1EBE02E002436019A002AFC
:103C900000D1FAE0002B00D1DEE0FFF7B9FEFEF71D
:103CA000A1FFFFF7A9FE4422AB5C5BB2013301D157
:103CB0000023AB544522AB5C5BB2013301D100233E
:103CC000AB54FFF7A5FE01A902A8FFF729FA0028C7
:103CD00000D0DEE0FFF790FEAA6BEB6B9A426DD04E
:103CE000FFF796FEFFF788FE4523EC5C64B2002CDC
:103CF00004DC11E0013CE4B2002C0DD06B6A002B17
:103D00000AD03000FFF792F90028F3D0013CE4B26A
:103D1000FFF732FA002CF1D14523FF22EA54FFF7D6
:103D200077FEFFF769FE44232F00EC5C103764B286
:103D3000002C04DC11E0013CE4B2002C0DD02B6916
:103D4000002B0AD03800FFF771F90028F3D0013CAE
:103D5000E4B2FFF711FA002CF1D14423FF22EA5418
:103D6000FFF756FEFEF746FFFFF746FEAA6BE96B2C
:103D7000012391428AD92A6CAC6B002A00D173E0EE
:103D80004346002B00D0F1E049466868FDF7D8FDB6
:103D90006B682A6CA9689B186B606A6A01348B4255
:103DA00001D32B686B60AC63002A65D1FFF730FE4E
:103DB000012005B0C0BCB946B046F0BD2F00103799
:103DC000FFF726FE38000199FFF780F8FFF714FE91
:103DD0004523EC5C64B2002C04DC11E0013CE4B24D
:103DE000002C0DD06B6A002B0AD03000FFF71EF9B3
:103DF0000028F3D0013CE4B2FFF7BEF9002CF1D16A
:103E00004523FF22EA54FFF703FEFFF7F5FD4423A5
:103E1000EC5C64B2002C04DC11E0013CE4B2002C48
:103E20000DD02B69002B0AD03800FFF7FFF80028CF
:103E3000F3D0013CE4B2FFF79FF9002CF1D1442309
:103E4000FF22EA54FFF7E4FDFEF7D4FE002800D07D
:103E50008AE7FFF7C5FD87E702A8FFF755F91CE7DA
:103E60002A6CAC6B002A5AD12E680134002E72D015
:103E70006B6AAC63002B99D028002430FFF7D6F88A
:103E8000002893D0FFF7ACFD90E7FFF7C1FD0020BD
:103E90008FE7FFF7B1FD45232E00EC5C243664B2BA
:103EA000002C04DC11E0013CE4B2002C0DD06B6A64
:103EB000002B0AD03000FFF7B9F80028F3D0013CFE
:103EC000E4B2FFF759F9002CF1D14523FF22EA545F
:103ED000FFF79EFDFFF790FD44232E00EC5C1036AB
:103EE00064B2002C04DC11E0013CE4B2002C0DD0E3
:103EF0002B69002B0AD03000FFF798F80028F3D088
:103F0000013CE4B2FFF738F9002CF1D14423FF2241
:103F1000EA54FFF77DFDFEF76DFE002049E74946B4
:103F2000E868FDF70DFDEB682A6C29689B1AEB60C9
:103F30008B4202D2AB689B1AEB606B6A002C04D0F8
:103F4000AC63002B00D131E796E70122AA63002B76
:103F500000D12BE790E7A868FFF764F96B6AAE60C1
:103F6000AC63002B88D100288CD11FE74946E86854
:103F7000FDF7E6FCEB682A6C29689B1AEB608B4224
:103F800005D342466B6A022AD8D00134D8E7AB6821
:103F90009B1AEB60F5E7C04670B506005020FFF7AE
:103FA0009BFC041E2DD0002501230060C363056423
:103FB000FFF722FD216CE36B22684B43D0185B1A9C
:103FC0006260D218E260FF234422A060A563A3547C
:103FD0000132A354230010331800FFF7ABFD230078
:103FE00024331800FFF7A6FDFFF712FD4C23002233
:103FF000E654002100232000A5602560E560FFF75E
:104000002FFE200070BDC04670B504008568FFF724
:10401000B9F80023854201D0180070BDE368013B68
:10402000E360002B01D00123F6E7002200212000ED
:10403000FFF716FE0123EFE7F0B5CE464746050031
:1040400080B585B089460192FFF7D6FCAC6B002C99
:1040500000D01DE1019B002B00D1C8E02E0002A87A
:10406000FFF752F844272436FFF7D2FCFEF7BAFDDB
:10407000FFF7C2FCEB5D5BB2013301D10023EB55CE
:104080004522AB5C5BB2013301D10023AB54FFF797
:10409000BFFC01A902A8FFF743F8002856D1FFF79B
:1040A000ABFCAB6B002B00D0A9E0FFF7B1FC2423E5
:1040B0009846A84440460199FEF708FFFFF79CFC8C
:1040C0004523EC5C64B2002C04DC11E0013CE4B25A
:1040D000002C0DD06B6A002B0AD04046FEF7A6FFDD
:1040E0000028F3D0013CE4B2FFF746F8002CF1D1F0
:1040F0004523FF22EA54FFF78BFCFFF77DFC4423A6
:10410000EC5C343B984664B2A844002C04DC11E01B
:10411000013CE4B2002C0DD02B69002B0AD04046A4
:10412000FEF784FF0028F3D0013CE4B2FFF724F847
:10413000002CF1D14423FF22EA54FFF769FCFEF77B
:1041400059FD00284AD1FFF74BFC47E0FFF754FC2C
:104150004523EC5C64B2002C04DC11E0013CE4B2C9
:10416000002C0DD06B6A002B0AD03000FEF75EFFEA
:104170000028F3D0013CE4B2FEF7FEFF002CF1D1A1
:104180004523FF22EA54FFF743FCFFF735FC1023D9
:104190009846EC5DA84464B2002C04DC11E0013CBC
:1041A000E4B2002C0DD02B69002B0AD04046FEF75C
:1041B0003DFF0028F3D0013CE4B2FEF7DDFF002C08
:1041C000F1D1FF23EB55FFF723FCFEF713FDFFF7BB
:1041D00013FCAB6B002B0AD0FFF71AFCFFF70CFCAB
:1041E000AC6B002C54D1019B002B00D03CE7FFF7B7
:1041F0000FFC002005B0C0BCB946B046F0BDFFF7CB
:1042000007FCFFF7F9FB4523EC5C213B984664B2C1
:10421000A844002C04DC11E0013CE4B2002C0DD0D9
:104220006B6A002B0AD04046FEF700FF0028F3D04F
:10423000013CE4B2FEF7A0FF002CF1D14523FF22A0
:10424000EA54FFF7E5FBFFF7D7FB4423EC5C343B74
:10425000984664B2A844002C04DC11E0013CE4B2AE
:10426000002C0DD02B69002B0AD04046FEF7DEFE55
:104270000028F3D0013CE4B2FEF77EFF002CF1D120
:104280004423FF22EA54FFF7C3FBFEF7B3FCA5E784
:104290002A6C002A08D0E968AB688918E96099425D
:1042A0000BD24846FDF74CFB2B69013CAC63002B5D
:1042B00006D1FFF7ADFB01209CE72968E960F0E734
:1042C00028001030FEF7B2FE0028F2D0FFF788FB7E
:1042D000EFE7C046F0B5CE464746050080B585B04D
:1042E0000191FFF789FBAB6B002B00D040E1019BF4
:1042F000002B00D12BE102A8FEF706FF00232E00C1
:10430000994644272436FFF783FBFEF76BFCFFF743
:1043100073FBEB5D5BB2013301D10023EB5545220A
:10432000AB5C5BB2013301D10023AB54FFF770FBF0
:1043300001A902A8FEF7F4FE00285AD1FFF75CFBA2
:10434000AB6B002B00D0B1E0FFF762FB2B68002BBA
:1043500000D104E124239846A84440460199FEF781
:10436000B5FDFFF749FB4523EC5C64B2002C04DC8F
:1043700011E0013CE4B2002C0DD06B6A002B0AD096
:104380004046FEF753FE0028F3D0013CE4B2FEF7AE
:10439000F3FE002CF1D14523FF22EA54FFF738FB4E
:1043A000FFF72AFB4423EC5C64B2002C15DD343BA0
:1043B0009846A84403E0013CE4B2002C0DD02B69E0
:1043C000002B0AD04046FEF731FE0028F3D0013C16
:1043D000E4B2FEF7D1FE002CF1D14423FF22EA54CF
:1043E000FFF716FBFEF706FC002855D1FFF7F8FA99
:1043F00052E0FFF701FB4523EC5C64B2002C04DCC7
:1044000011E0013CE4B2002C0DD06B6A002B0AD005
:104410003000FEF70BFE0028F3D0013CE4B2FEF7BB
:10442000ABFE002CF1D14523FF22EA54FFF7F0FA4E
:10443000FFF7E2FAEC5D64B2002C15DD102398461C
:10444000A84403E0013CE4B2002C0DD02B69002B02
:104450000AD04046FEF7EAFD0028F3D0013CE4B262
:10446000FEF78AFE002CF1D1FF23EB55FFF7D0FABF
:10447000FEF7C0FBFFF7C0FAAB6B002B0AD1FFF7CA
:10448000C7FA4B46002B5AD1002005B0C0BCB94634
:10449000B046F0BDFFF7BCFAFFF7AEFAAB6B002BEE
:1044A00066D1019B002B00D02DE750E0FFF7B0FA5A
:1044B000FFF7A2FA4523EC5C64B2002C15DD213B2A
:1044C0009846A84403E0013CE4B2002C0DD06B6A8E
:1044D000002B0AD04046FEF7A9FD0028F3D0013C8E
:1044E000E4B2FEF749FE002CF1D14523FF22EA5445
:1044F000FFF78EFAFFF780FA4423EC5C64B2002CDD
:1045000015DD343B9846A84403E0013CE4B2002C9E
:104510000DD02B69002B0AD04046FEF787FD0028FE
:10452000F3D0013CE4B2FEF727FE002CF1D1442386
:10453000FF22EA54FFF76CFAFEF75CFBACE7FFF7EB
:104540005BFA696A002905D1A868FEF79DFEFFF7AE
:104550005FFA99E705212B6B1B68C91AF4E7FFF78F
:104560004BFAA868FEF714FE8146FFF751FAF1E610
:10457000013BAB632B68002B0FD02B69002B03D1C1
:10458000FFF746FA012080E728001030FEF74EFDC5
:104590000028F5D0FFF724FAF2E7FEF7B5FEA86091
:1045A000EBE7C04670B5856804000E00FEF7EAFD33
:1045B000854205D031002000FFF78CFE002803D093
:1045C0000120E3680133E36070BDC04610B50029E7
:1045D00043D0554B5A68904200D18EE01A68002AA9
:1045E0003CD0DA68904200D19CE09A68002A54D00E
:1045F0005A69904200D193E01A69002A53D0DA69CF
:10460000904200D180E09A69002A52D05A6A9042C2
:1046100057D01A6A002A58D0DA6A904200D175E061
:104620009A6A002A57D05A6B904200D170E01A6BF8
:10463000002A56D0DA6B904200D16BE09A6B002AC8
:1046400055D05A6C904267D01A6C002A57D0DA6C59
:10465000904263D09A6C002A30D010BDDA68904244
:1046600060D05A6990425BD01A00DC69A0424BD0FE
:104670005C6AA04225D0DC6AA04247D05C6BA042B5
:1046800046D0DC6BA04245D05C6CA04244D0DC6CD0
:10469000A04243D011605060DFE75A6990423FD09A
:1046A0001A000832E1E7DA6990422DD01A00103280
:1046B000DEE75A6A904204D01C4ADCE748331A000D
:1046C000E8E70422D2009A18E4E7DA6A90421DD0A3
:1046D0001A002032D2E75A6B904219D01A002832C1
:1046E000CFE7DA6B904215D01A003032CCE75A6C23
:1046F000904211D01A003832C9E70022E2E7DA6CA2
:1047000090420BD00A4AC5E70322DBE70522D9E72E
:104710000622D7E70722D5E70822D3E70922D1E707
:104720000222CFE70122CDE7000D0020180D002066
:10473000400D002070B5050016000C00FFF75CF975
:104740004422AB5C5BB2013301D10023AB54452260
:10475000AB5C5BB2013301D10023AB54FFF758F9D6
:10476000AB6B002B42D0FFF747F94523EC5C64B2FA
:10477000002C14DD2E00243603E0013CE4B2002CB2
:104780000DD06B6A002B0AD03000FEF74FFC0028DA
:10479000F3D0013CE4B2FEF7EFFC002CF1D145234D
:1047A000FF22EA54FFF734F9FFF726F94423EC5CC3
:1047B00064B2002C14DD2E00103603E0013CE4B29C
:1047C000002C0DD02B69002B0AD03000FEF72EFCF8
:1047D0000028F3D0013CE4B2FEF7CEFC002CF1D16E
:1047E0004423FF22EA54FFF713F970BD280032007A
:1047F00021002430FEF7B6FBB5E7C04670B50400D3
:1048000007F014F80500200007F00EF8392D00D04D
:1048100070BDC2239B00C0580028F9D009F012FBDC
:10482000F6E7C04670B50500B226006828F0F6F835
:10483000B600040000223021805921F0A1F80028A0
:1048400000D1A051B426B600A059002805D00022FE
:10485000312121F095F8002818D1B4230022B72186
:1048600001209B00E2508900635C83436354B523BD
:104870009B00E2507021286827F056F8B2239B0075
:10488000E058002801D022F005FE70BDB7239B0040
:10489000E35C9B07E1D5A05927F0B8FFDDE7C046F0
:1048A00010B50400006828F0B9F8B222B421030062
:1048B000920080588900585020682F21985000227B
:1048C00021F05EF810BDC04610B50022C9B227F035
:1048D0005BFD10BD10B521F04BFF10BD10B521F0F0
:1048E0002BFF10BD10B506F0A9FF0023036010BD1B
:1048F000F0B585B00190002861D028F08FF8041E33
:104900005ED0B2239B00C0580390002800D16FE016
:104910004F492A2203AB0E0021F00EF901AB2A22E7
:104920003100019821F008F9039B002B00D17EE0B3
:10493000BA2292009446A444604622002E21070029
:1049400006F03CFE002851D00398002806D0002233
:104950002E2121F015F8002800D1039022002F21EC
:104960003800019B06F02AFE00283FD0019800285D
:1049700006D000222F2121F003F800283AD101901F
:10498000B22200239200A3500C32A350039B002BB1
:1049900017D022003121380006F010FE002825D063
:1049A000039800280DD00022312120F0E9FF0028D3
:1049B00007D103900198002806D1032014E0FEE7F8
:1049C000FEE70198002838D022F064FD31000198FC
:1049D00021F0DCF80398002834D0310021F0D6F81B
:1049E000019843425841400005B0F0BD0420FBE768
:1049F000174E93E7B225B5220021019BAD0092002E
:104A00006351A150002BC1D022003800303106F094
:104A1000D5FD0028EAD001980028B7D00022302127
:104A200020F0AEFF0028B1D160510190AEE7BA236B
:104A30009B009C46A444674690E703980028CCD18D
:104A40000320D1E7019B0130002BCDD1B5E7C04653
:104A5000E5480010F0B5060085B07B480D0007F072
:104A600081F9041E00D1E2E0C922002192000AF07F
:104A7000F3FB01235B42A360E36000230322236175
:104A800063618233A361E38F26605B0A5B02134399
:104A9000E3871222402365605020AC27E2540BF0DC
:104AA0000DF9BF00E051002800D1C1E001F0FCF891
:104AB000AD239B00E358002B02D02000E15998471A
:104AC000AC2300229B00E358013E013D5A619A61EC
:104AD000DE611D624032A15C0C3299549A234B3A3C
:104AE0009B00E2500EF0C4FFC3239B00E050A03BAC
:104AF000E018102107F02EF9544D220021215448CE
:104B0000AE69AC6109F058F9C2239B00E05000285F
:104B100000D18EE00EF0E4FD002800D08AE00530E0
:104B200007F03EFE02AB187002040002000E120EE7
:104B3000987000205A7007F033FE03AB187002041F
:104B40000002120E000E98705A70424B2000009323
:104B5000039A002302990CF0DDF8C1239B00E0507A
:104B6000B32700201FF02AFABF00E05100201FF0F9
:104B700025FAB2239B00E05000201FF01FFAB1235A
:104B80009B00E05000201FF019FAB0229200A050C4
:104B9000E05927F0B5F9B1239B00E05827F0B0F9B0
:104BA000B0229200A05827F0ABF9B1239B00E05847
:104BB00002211FF01DFAB0229200A05802211FF01E
:104BC00017FA4023E05C06F06BF90022E359002855
:104BD00033D04821180026F0A7FEB3239B00E058ED
:104BE000002124F0B1FAB1239B00E058002124F009
:104BF000ABFAB0239B00E058002124F0A5FAB223C1
:104C00009B00E05822F046FC002E1BD0BA239B00EC
:104C100039221149E0180023AE6106F01BFDC223C2
:104C20009B00E05809F022F9200005B0F0BDFEE736
:104C3000FEE7FEE70EF062FD8FE7FF21180027F088
:104C400085FBCAE72600E1E7141F00200C1F0020A7
:104C500065E20210A0CD0510FD470010014B9869D8
:104C60007047C0460C1F002010B5002804D001007A
:104C7000034807F007F910BD014807F0FBF8FAE711
:104C8000141F002000280AD0C02305229B00C35C0B
:104C90001340012B01D0006870474068FCE7024BCD
:104CA00098690028F0D1F7E70C1F002000280AD0EF
:104CB000C02305229B00C35C1340012B01D0406838
:104CC00070470068FCE7024B98690028F0D1F7E7CD
:104CD0000C1F0020002801D000687047024B986923
:104CE0000028F9D1F9E7C0460C1F0020002801D0A8
:104CF00040687047024B98690028F9D1F9E7C0462F
:104D00000C1F0020002801D080697047024B986971
:104D10000028F9D18220F8E70C1F0020F0B5574693
:104D20004E464546DE46E0B589B0059312AB1B788A
:104D300004000D0016009A4600290DD000280CD062
:104D40004023C35C076898460300002F03D05B68CC
:104D50009B46002B0AD1FEE7FEE73D4B9B69002BEB
:104D6000F9D040229A5C1F689046EEE74146280041
:104D700001F012FAA84200D0FEE7002E06D041460C
:104D8000300001F009FAB04200D0FEE74146380099
:104D900001F0F6F953460690002B43D100283FD08E
:104DA000059A90423DD801001000FCF7B1FA834605
:104DB0009E239B009C46A4446046059B069A3900AE
:104DC00002930195434600925A46079001F0B4FAC7
:104DD000A5200599800002910699251843462800D0
:104DE000019600915A46390001F0A6FA731E9E41C1
:104DF00076423540002C1CD0079B2562E361A362FC
:104E000023003D225146995402223E3463781343D5
:104E1000637009B0F0BCBB46B246A946A046F0BDDF
:104E2000FEE7FEE75A4603005343059A9342BFD973
:104E3000FEE7074B9B69002BE6D019000220079A7A
:104E40001D62DA619A623E314A7882434A70D8E73D
:104E50000C1F0020002801D0C1627047024B9869E6
:104E60000028F9D1F9E7C0460C1F0020002802D025
:104E70004023C05C7047024B98690028F8D1F9E7DD
:104E80000C1F0020002343637047C046006A431E86
:104E90009841C0B27047C046002803D0B2239B009F
:104EA000C0587047024B98690028F7D1F9E7C0460F
:104EB0000C1F0020002803D0B4239B00C05870476B
:104EC000024B98690028F7D1F9E7C0460C1F002073
:104ED000002803D0B1239B00C0587047024B98694B
:104EE0000028F7D1F9E7C0460C1F0020002803D0A6
:104EF000B0239B00C0587047024B98690028F7D137
:104F0000F9E7C0460C1F0020002803D0B3239B0004
:104F1000C0587047024B98690028F7D1F9E7C0469E
:104F20000C1F0020F0B5DE464E4645465746E0B51C
:104F3000B1B099463AAB1B7805009B468A4690462D
:104F400027F06CFDB2239B00C6580400B5424DD03B
:104F5000B527BF00C059A84248D000284DD0B04264
:104F600000D197E0002105F06FF800220021E05900
:104F700021F0B2FB00227021E05926F0D5FCB223CB
:104F8000B4229B00E358E65992003000A350FFF78B
:104F9000AFFC04282AD0032800D113E1012800D156
:104FA000F5E1002822D1B4239B00E05827E0D44942
:104FB00018A805F069F9C02305229B00E35C1340A3
:104FC000012B00D172E12268002118A805F064F9D4
:104FD000002E00D1CFE000222E21300020F0D0FCA6
:104FE000684604F0D5FF18A804F0D2FF31B0F0BC39
:104FF000BB46B246A946A046F0BD0833E058B523EB
:105000009B00E550002804D00833E35C9B0700D5E3
:10501000B5E0B42300209B00E050534604220A3B35
:10502000DBB29A424041B72201219200A35C0840C2
:105030008B435F46034302203940490083430B43BF
:1050400028000021A35404F0FFFF002E48D10022C5
:105050000021280021F040FB00227021280026F0CA
:1050600063FC47464B461F4356D12800FFF740FCE0
:105070000428BBD0831EDBB2012B00D89BE00128A3
:10508000B4D05B46002BB1D0002EAFD0300027F05B
:10509000BDFBABE7B4229200A058E551002871D0C7
:1050A0000221B7230F009B00E35C1F40194266D129
:1050B0005046A75004220A38C0B282427F410120E4
:1050C0003A005F46024083431343B7223840400012
:1050D0008B430343920000212800A35404F0B4FF43
:1050E0000021300004F0B0FF00220021280021F050
:1050F000F3FA00220021300021F0EEFA00227021A4
:10510000280026F011FC00227021300026F00CFC53
:1051100047464B461F43A8D04746684604F01EFF4B
:105120002900684605F0AEF86846764905F0BCF8F7
:105130006846754905F0BAF83900684605F0A6F8E2
:105140004946684605F0A4F818A804F007FF3100A6
:1051500018A805F097F8390018A805F097F84946FF
:1051600018A805F095F853460E2B00D930E79F009C
:10517000664BDB599F46684604F00AFF36E727F086
:1051800045FB46E7534604220A3BDBB29A424041C4
:10519000B72201219200A35C08405F468B43034382
:1051A00002203940490083430B4328000021A354C7
:1051B00004F04AFF94E7B2239B00E750032800D095
:1051C0005FE713E7B42200239200A3500EE74C4D93
:1051D0006846290005F058F8C02305229B00E35CCF
:1051E0001340012B00D1D4E021680022684605F06D
:1051F00053F8290018A805F047F8C02305229B00A2
:10520000E35C1340012B78D022680021524218A899
:1052100005F042F8DCE66846394905F035F8C02368
:1052200005229B00E35C1340012B1AD0216819E092
:105230006846334905F028F8C02305229B00E35C4B
:105240001340012B3FD0216849420BE068463049AA
:1052500005F01AF8C02305229B00E35C1340012BE4
:10526000E4D061680022684605F016F8B0E6284DE3
:105270006846290005F008F8C02305229B00E35C7E
:105280001340012B00D18AE0616849420022684640
:1052900005F002F8290018A804F0F6FFC023052243
:1052A0009B00E35C1340012B00D18CE662688BE627
:1052B0006846174904F0E8FFC02305229B00E35C21
:1052C0001340012BBFD061684942CBE71049E2E7A8
:1052D00068460B4904F0D8FF00220021684604F01C
:1052E000DBFF75E60A4918A804F0CEFFC0230522AB
:1052F0009B00E35C1340012B86D0626885E7C046C3
:10530000DD480010A14800102548001004CD05100C
:10531000D5480010234D6846290004F0B5FFC0238E
:1053200005229B00E35C1340012B34D021684942E5
:105330000022684604F0B0FF290039E61A4D68469D
:10534000290004F0A1FFC02305229B00E35C134069
:10535000012B22D061680022684604F09DFF2900DD
:10536000C1E718A8114904F08FFF0022FF2118A8F7
:1053700004F092FF2CE668460C4904F085FFFF22FA
:105380000021684604F088FF22E6064932E7E5512D
:105390003FE6616829E76168C9E72168DBE72168C2
:1053A00073E7C046DD480010D5480010C94800101A
:1053B00010B5002805D0BA24A400001906F04AF957
:1053C00010BDFEE7F0B5C6460E00170000B5002878
:1053D0000DD0BA239B00C518280006F05BF9002306
:1053E0009846441E09D5404680BCB846F0BDFEE74D
:1053F00043689F420BD0013CF5D32100280006F002
:105400004FF90028F7D003689E42F4D1F0E721005D
:10541000280006F05BF9434601339846EBE7C046A7
:105420001300BA229200944610B5844402006046EC
:1054300006F0C4F810BDC046002805D0C0239B006C
:10544000C05C0007C00F7047024B98690028F5D177
:10545000F9E7C0460C1F002070B504000E000028BC
:1054600008D0C123B6259B00AD00E6506359042B3C
:105470000CD070BD1E4B9C69002CFAD0C123B62500
:105480009B00AD00E6506359042BF2D1AF239B0083
:10549000E358186827F040FB0028EAD1AF239B00AF
:1054A000E358586827F038FB0028E2D1AF239B006F
:1054B000E358986827F030FB0028DAD1AF239B002F
:1054C000E35818680EF00EFA002ED2D16359012B62
:1054D000CFD90122AF2316009B00E3589200D05889
:1054E0000EF000FA6359721C9342F3D8C1E7C0462C
:1054F0000C1F0020002803D0C1239B00C058704718
:10550000014B9869F8E7C0460C1F002000280CD01A
:105510009A234A4251419B0001229C464942C3586A
:105520000A439B18624683507047024B98690028D3
:10553000EED1F9E70C1F0020002806D09A239B002B
:10554000C358D817C01AC00F7047024B986900287B
:10555000F4D1F9E70C1F002070B5041E14D0BA2353
:105560009B009C46C825A44460461300AD0043221E
:10557000060006F06FF86359002B0BD0C8220120FB
:1055800001339200A35070BD064B9C69002CE6D1FC
:105590000020F8E7230022004421300006F00EF836
:1055A0006359EBE70C1F0020F8B54746CE460600CE
:1055B00080B590460F0000282CD0BA239B00F51828
:1055C000280006F067F8441E28D40023994601E01D
:1055D000013C14D32100280006F062F80028F7D01F
:1055E00003689F42F4D143689845F1D12100280017
:1055F00006F06CF84B4601339946013CEAD2494625
:1056000000290BD0C8229200B3585B1AB3500AD0BD
:10561000012004E0074B9E69002ECED10020C0BCC3
:10562000B946B046F8BD32004421280005F0C6FF57
:105630000120F4E70C1F002010B500280DD0084B06
:105640009B69002B0AD09B6943430120EF2B04DDAB
:1056500050331800A021FBF733FE10BD8223F3E77F
:105660000C1F0020F0B5CE46474680B50C0089B02F
:105670009046002150220500994609F0EDFD4E2389
:10568000FF220021EA5400200023002205F086FCBE
:105690004D230022A864EA5427F0D0FF2B004A468D
:1056A000AC603433060083CA83C311682C3BD962D3
:1056B000494691C991C34C4611681960043383CCA3
:1056C00083C312681A604C234246EA54AD239B0000
:1056D000F358002B02D02900300098471C220021EB
:1056E0006846FCF727F92C23A2220293144B5200A0
:1056F0009C580495002C09D0E369002B15D0009428
:105700000194684698472468002CF5D1AC22920099
:10571000B358002B11D01A00DB68002BFBD1D560E9
:1057200009B0C0BCB946B046F0BD2468002CE3D136
:10573000AC229200B358002BEDD1B550F0E7C04633
:105740000C1F002010B5024808F036FC10BDC04602
:105750005C20002010B50AF0BBFA00280CD0A22271
:10576000064B520099580160A421490098505A589C
:1057700001325A50826010BDFEE7C0460C1F002067
:10578000F0B5C646531EDBB206008846150000B5CC
:105790000C2B35D81C4A9B009858002830D060301C
:1057A0000AF096FA00282CD003004246083392CA29
:1057B00092C34446944611681960043386CC86C36C
:1057C000624612681A60320086641433343292CA18
:1057D00092C312681A604E23F25C0A33C25403006B
:1057E000603343650123057103657368002B09D09D
:1057F0001A001B68002BFBD1106080BCB846F0BDBE
:10580000FEE7FEE77060F8E740CD0510F0B5D6463C
:105810004F464646C0B54C6882460F0088B0002C03
:1058200000D1B6E000230022984602E0A846002CF2
:105830001DD025002B6D2468042BF7D12B79082B64
:1058400040D0072B50D0280001F0B8FD061E04D030
:1058500069230122C35C1A4240D128000AF04AFAA7
:105860004346002B37D001221C60002CE1D1BB68DD
:10587000002B20D04D21795C00291CD07A68002AA9
:1058800000D18DE0A222544B52009C58002C17D01E
:105890000025E3682000390098470130431E9841F5
:1058A00024680543002CF4D1280008B0E0BCBA46B7
:1058B000B146A846F0BD002AE4D17B68002BE1D1B7
:1058C0000025F1E76E6DB06B0028BCD00AF012FA2B
:1058D0000023B363B7E701227C60A8E7806A0AF07F
:1058E00009FA0023B362B8E76B6D9E6A3368B1466C
:1058F000002B17D03000143005F074FA32683649A6
:1059000013894343A62040000E580020B34200D81C
:10591000F01AA6235B00C850100000F05BFF0023C4
:105920004A4613605246002A00D18CE7AC239B0004
:10593000D35803E0DA6891454AD01300002BF9D11F
:105940001C2200216846FBF7F5FF2D2302934B46EE
:10595000A2220493204B52009E58002E09D0F369D6
:10596000002B12D000960196684698473668002EA4
:10597000F5D1AE2350469B00C358002B01D04946B9
:10598000984748460AF0B6F95DE73668002EE6D13A
:10599000EFE78B68002B93D04D228A5C002A8FD0D2
:1059A0005B68002B03D18BE71B68002B88D01A792A
:1059B000072AF9D11A6D002AF6D15A6D926ABA42B5
:1059C000F2D1012205481A6508F034FB00256BE787
:1059D0004A46D268DA60B3E70C1F00205C20002042
:1059E00070B527F02BFE061E11D0AC239B00C458C7
:1059F000002C0CD0002521003000FFF707FFE468E1
:105A00000543EDB2002CF6D1002D00D070BDA222CE
:105A10000B4B52009C58002C07D06369002B08D018
:105A2000200098472468002CF7D1064808F002FBB4
:105A3000ECE72468002CF0D1024808F0FBFAE5E717
:105A40000C1F00205C200020F8B5B2234C6D404FA5
:105A500020615B00FE5C0D00002E4ED12068002806
:105A600005D0802109031EF0C5FE00285FD15A230E
:105A70006422EA540022013BEA54EB33FC58002C28
:105A80000CD02369002B0CD02000290098472468F3
:105A9000002CF6D15923EB5C002B09D104232B6594
:105AA000F8BD2468002CECD15923EB5C002BF5D019
:105AB00027F0C4FD051E0FD0AC239B00C458002C5A
:105AC0000AD021002800FFF7A1FEE4680643F6B2E1
:105AD000002CF6D1002EE3D1A2235B00FC58002C51
